{"abi":[{"type":"function","name":"fill","inputs":[{"name":"length","type":"uint256","internalType":"uint256"},{"name":"a","type":"address","internalType":"address"}],"outputs":[{"name":"addresses","type":"address[]","internalType":"address[]"}],"stateMutability":"pure"},{"type":"function","name":"push","inputs":[{"name":"a","type":"address[]","internalType":"address[]"},{"name":"b","type":"address","internalType":"address"}],"outputs":[{"name":"addresses","type":"address[]","internalType":"address[]"}],"stateMutability":"pure"}],"bytecode":{"object":"0x6080806040523461001a5761034e908161001f823930815050f35b5f80fdfe60806040526004361015610011575f80fd5b5f3560e01c806347d5f0be1461016157634dc036131461002f575f80fd5b60407ffffffffffffffffffffffffffffffffffffffffffffffffffffffffffffffffc3601126101305767ffffffffffffffff600435818111610130573660238201121561013057806004013591821161013057600560243684831b84018201116101305761009c6101e3565b9160019160018601808711610134576100b49061029c565b945f5b8781106100f6576100f2878773ffffffffffffffffffffffffffffffffffffffff6100e28c84610300565b9116905260405191829182610206565b0390f35b8281851b830101359073ffffffffffffffffffffffffffffffffffffffff8216809203610130578591610129828a610300565b52016100b7565b5f80fd5b7f4e487b71000000000000000000000000000000000000000000000000000000005f52601160045260245ffd5b60407ffffffffffffffffffffffffffffffffffffffffffffffffffffffffffffffffc360112610130576004356101966101e3565b906101a08161029c565b9173ffffffffffffffffffffffffffffffffffffffff165f5b8281106101ce57604051806100f28682610206565b80826101dc60019387610300565b52016101b9565b6024359073ffffffffffffffffffffffffffffffffffffffff8216820361013057565b60209060206040818301928281528551809452019301915f5b82811061022d575050505090565b835173ffffffffffffffffffffffffffffffffffffffff168552938101939281019260010161021f565b67ffffffffffffffff811161026f5760051b60200190565b7f4e487b71000000000000000000000000000000000000000000000000000000005f52604160045260245ffd5b906102a682610257565b604051907fffffffffffffffffffffffffffffffffffffffffffffffffffffffffffffffe090601f018116820167ffffffffffffffff81118382101761026f576040528382526102f68294610257565b0190602036910137565b80518210156103145760209160051b010190565b7f4e487b71000000000000000000000000000000000000000000000000000000005f52603260045260245ffdfea164736f6c6343000817000a","linkReferences":{}},"methodIdentifiers":{"fill(uint256,address)":"47d5f0be","push(address[],address)":"4dc03613"},"id":53}