{"abi":[{"type":"function","name":"permit2","inputs":[{"name":"token","type":"address","internalType":"contract ERC20"},{"name":"owner","type":"address","internalType":"address"},{"name":"spender","type":"address","internalType":"address"},{"name":"amount","type":"uint256","internalType":"uint256"},{"name":"deadline","type":"uint256","internalType":"uint256"},{"name":"v","type":"uint8","internalType":"uint8"},{"name":"r","type":"bytes32","internalType":"bytes32"},{"name":"s","type":"bytes32","internalType":"bytes32"}],"outputs":[],"stateMutability":"nonpayable"},{"type":"function","name":"simplePermit2","inputs":[{"name":"token","type":"address","internalType":"contract ERC20"},{"name":"owner","type":"address","internalType":"address"},{"name":"spender","type":"address","internalType":"address"},{"name":"amount","type":"uint256","internalType":"uint256"},{"name":"deadline","type":"uint256","internalType":"uint256"},{"name":"v","type":"uint8","internalType":"uint8"},{"name":"r","type":"bytes32","internalType":"bytes32"},{"name":"s","type":"bytes32","internalType":"bytes32"}],"outputs":[],"stateMutability":"nonpayable"},{"type":"function","name":"testPermit2Code","inputs":[{"name":"token","type":"address","internalType":"contract ERC20"}],"outputs":[{"name":"","type":"bool","internalType":"bool"}],"stateMutability":"view"},{"type":"function","name":"transferFrom2","inputs":[{"name":"token","type":"address","internalType":"contract ERC20"},{"name":"from","type":"address","internalType":"address"},{"name":"to","type":"address","internalType":"address"},{"name":"amount","type":"uint256","internalType":"uint256"}],"outputs":[],"stateMutability":"nonpayable"},{"type":"error","name":"UnsafeCast","inputs":[]}],"bytecode":{"object":"0x6080806040523461001657610ad4908161001b8239f35b5f80fdfe60806040526004361015610011575f80fd5b5f3560e01c806311b7fc7e146100545780632d929cf31461004f578063e04c699a1461004a5763f395a1c414610045575f80fd5b61061a565b610377565b610152565b346101305760207ffffffffffffffffffffffffffffffffffffffffffffffffffffffffffffffffc3601126101305761010c60043561009281610134565b7f3644e5150000000000000000000000000000000000000000000000000000000060a05260046080526100c560c0604052565b5f9073c02aaa39b223fe8d0a0e5c4f27ead9083c756cc273ffffffffffffffffffffffffffffffffffffffff821603610110575b5060405190151581529081906020820190565b0390f35b602091505f9060a060805191611388fa60203d145f5115151616826100f9565b5f80fd5b73ffffffffffffffffffffffffffffffffffffffff81160361013057565b346101305760807ffffffffffffffffffffffffffffffffffffffffffffffffffffffffffffffffc3601126101305760043561018d81610134565b60243561019981610134565b6044356101a581610134565b6040517f23b872dd00000000000000000000000000000000000000000000000000000000602082810191825273ffffffffffffffffffffffffffffffffffffffff808616602485015284166044840152606480359084018190529261024e925f9161023b81608481015b037fffffffffffffffffffffffffffffffffffffffffffffffffffffffffffffffe081018352826106b3565b519082895af15f516001143d1517161590565b61025457005b61025d90610a7c565b926e22d473030f116ddee9f6b43ac78ba390813b15610130576040517f36c7851600000000000000000000000000000000000000000000000000000000815273ffffffffffffffffffffffffffffffffffffffff948516600482015292841660248401529383166044830152929091166064820152905f908290608490829084905af18015610300576102ed575b005b806102fa6102eb9261063a565b806106f4565b6106fe565b7ffffffffffffffffffffffffffffffffffffffffffffffffffffffffffffffffc6101009101126101305760043561033c81610134565b9060243561034981610134565b9060443561035681610134565b90606435906084359060a43560ff81168103610130579060c4359060e43590565b346101305761038536610305565b956040959195949294516020808201917f3644e515000000000000000000000000000000000000000000000000000000008352600481526103c58161067b565b5f925f9073ffffffffffffffffffffffffffffffffffffffff8d169273c02aaa39b223fe8d0a0e5c4f27ead9083c756cc284036105f6575b505083610418575b5050501561040f57005b6102eb9761089e565b919250907fdbb8cf42e1ecb028be3f3dbc922e1d878b963f411dc388ced501601c60f7c6f70361056c576040517f7ecebe0000000000000000000000000000000000000000000000000000000000815273ffffffffffffffffffffffffffffffffffffffff84166004820152908290829060249082905afa918215610300578661052d5f948594859161053f575b506040517f8fcbaf0c000000000000000000000000000000000000000000000000000000008582015273ffffffffffffffffffffffffffffffffffffffff80891660248301528916604482015260648101919091526084810192909252600160a483015260ff8a1660c483015260e482018b905261010482018c905281610124810161020f565b905b81519101828c5af15f8080610405565b61055f9150843d8611610565575b61055781836106b3565b810190610709565b5f6104a6565b503d61054d565b506040517fd505accf000000000000000000000000000000000000000000000000000000008183015273ffffffffffffffffffffffffffffffffffffffff808416602483015284166044820152606481018590526084810186905260ff871660a482015260c4810188905260e481018990525f9182916105f081610104810161020f565b9061052f565b849395505f925051908d611388fa91813d14925f519384151516168093905f6103fd565b34610130576102eb61062b36610305565b9695909594919493929361089e565b67ffffffffffffffff811161064e57604052565b7f4e487b71000000000000000000000000000000000000000000000000000000005f52604160045260245ffd5b6040810190811067ffffffffffffffff82111761064e57604052565b6080810190811067ffffffffffffffff82111761064e57604052565b90601f7fffffffffffffffffffffffffffffffffffffffffffffffffffffffffffffffe0910116810190811067ffffffffffffffff82111761064e57604052565b5f91031261013057565b6040513d5f823e3d90fd5b90816020910312610130575190565b519065ffffffffffff8216820361013057565b9081606091031261013057805161074181610134565b9161075a604061075360208501610718565b9301610718565b90565b6040519061076a82610697565b565b604051906060820182811067ffffffffffffffff82111761064e57604052565b92917fff000000000000000000000000000000000000000000000000000000000000009160405194602086015260408501521660608301526041825261076a82610697565b919260406101009473ffffffffffffffffffffffffffffffffffffffff8094168552602093815181815116602088015281602082015116848801526060848201519165ffffffffffff809316828a0152015116608087015260208201511660a0860152015160c08401528360e0840152805180948401525f5b848110610889575050507fffffffffffffffffffffffffffffffffffffffffffffffffffffffffffffffe0601f610120935f8582860101520116010190565b8181018301518482016101200152820161084a565b6040517f927da10500000000000000000000000000000000000000000000000000000000815273ffffffffffffffffffffffffffffffffffffffff8381166004830152918216602482018190529184166044820152909791966e22d473030f116ddee9f6b43ac78ba39690959294909391906060826064818b5afa918215610300575f92610a44575b5061093190610a7c565b61093961075d565b73ffffffffffffffffffffffffffffffffffffffff909a168a5273ffffffffffffffffffffffffffffffffffffffff1660208a015265ffffffffffff60408a015265ffffffffffff16606089015261098f61076c565b97885273ffffffffffffffffffffffffffffffffffffffff166020880152604087015260f81b7fff0000000000000000000000000000000000000000000000000000000000000016906109e19261078c565b90803b1561013057610a26935f8094604051968795869485937f2b67b570000000000000000000000000000000000000000000000000000000008552600485016107d1565b03925af1801561030057610a375750565b806102fa61076a9261063a565b610931919250610a6b9060603d606011610a75575b610a6381836106b3565b81019061072b565b9150509190610927565b503d610a59565b73ffffffffffffffffffffffffffffffffffffffff90818111610a9d571690565b60046040517fc4bd89a9000000000000000000000000000000000000000000000000000000008152fdfea164736f6c6343000817000a","linkReferences":{}},"methodIdentifiers":{"permit2(address,address,address,uint256,uint256,uint8,bytes32,bytes32)":"e04c699a","simplePermit2(address,address,address,uint256,uint256,uint8,bytes32,bytes32)":"f395a1c4","testPermit2Code(address)":"11b7fc7e","transferFrom2(address,address,address,uint256)":"2d929cf3"},"id":50}