{"abi":[{"type":"function","name":"DOMAIN_SEPARATOR","inputs":[],"outputs":[{"name":"","type":"bytes","internalType":"bytes"}],"stateMutability":"pure"}],"bytecode":{"object":"0x6080806040523461001657610161908161001b8239f35b5f80fdfe6080600436101561000e575f80fd5b5f3560e01c633644e51514610021575f80fd5b34610150575f7ffffffffffffffffffffffffffffffffffffffffffffffffffffffffffffffffc360112610150576060810181811067ffffffffffffffff8211176101235760409081526021825260207f313233343536373839303132333435363738393031323334353637383930313260208401527f3300000000000000000000000000000000000000000000000000000000000000828401528151928391602083528151918260208501525f5b83811061010d5750505f83830185015250601f017fffffffffffffffffffffffffffffffffffffffffffffffffffffffffffffffe0168101030190f35b81810183015187820187015286945082016100d0565b7f4e487b71000000000000000000000000000000000000000000000000000000005f52604160045260245ffd5b5f80fdfea164736f6c6343000817000a","linkReferences":{}},"methodIdentifiers":{"DOMAIN_SEPARATOR()":"3644e515"},"id":48}