{"abi":[{"type":"constructor","inputs":[{"name":"_name","type":"string","internalType":"string"},{"name":"_symbol","type":"string","internalType":"string"},{"name":"_decimals","type":"uint8","internalType":"uint8"}],"stateMutability":"nonpayable"},{"type":"function","name":"DOMAIN_SEPARATOR","inputs":[],"outputs":[{"name":"","type":"bytes32","internalType":"bytes32"}],"stateMutability":"pure"},{"type":"function","name":"allowance","inputs":[{"name":"","type":"address","internalType":"address"},{"name":"","type":"address","internalType":"address"}],"outputs":[{"name":"","type":"uint256","internalType":"uint256"}],"stateMutability":"view"},{"type":"function","name":"approve","inputs":[{"name":"spender","type":"address","internalType":"address"},{"name":"amount","type":"uint256","internalType":"uint256"}],"outputs":[{"name":"","type":"bool","internalType":"bool"}],"stateMutability":"nonpayable"},{"type":"function","name":"balanceOf","inputs":[{"name":"","type":"address","internalType":"address"}],"outputs":[{"name":"","type":"uint256","internalType":"uint256"}],"stateMutability":"view"},{"type":"function","name":"burn","inputs":[{"name":"from","type":"address","internalType":"address"},{"name":"value","type":"uint256","internalType":"uint256"}],"outputs":[],"stateMutability":"nonpayable"},{"type":"function","name":"decimals","inputs":[],"outputs":[{"name":"","type":"uint8","internalType":"uint8"}],"stateMutability":"view"},{"type":"function","name":"mint","inputs":[{"name":"to","type":"address","internalType":"address"},{"name":"value","type":"uint256","internalType":"uint256"}],"outputs":[],"stateMutability":"nonpayable"},{"type":"function","name":"name","inputs":[],"outputs":[{"name":"","type":"string","internalType":"string"}],"stateMutability":"view"},{"type":"function","name":"nonces","inputs":[{"name":"","type":"address","internalType":"address"}],"outputs":[{"name":"","type":"uint256","internalType":"uint256"}],"stateMutability":"view"},{"type":"function","name":"permit","inputs":[{"name":"owner","type":"address","internalType":"address"},{"name":"spender","type":"address","internalType":"address"},{"name":"value","type":"uint256","internalType":"uint256"},{"name":"deadline","type":"uint256","internalType":"uint256"},{"name":"v","type":"uint8","internalType":"uint8"},{"name":"r","type":"bytes32","internalType":"bytes32"},{"name":"s","type":"bytes32","internalType":"bytes32"}],"outputs":[],"stateMutability":"nonpayable"},{"type":"function","name":"symbol","inputs":[],"outputs":[{"name":"","type":"string","internalType":"string"}],"stateMutability":"view"},{"type":"function","name":"totalSupply","inputs":[],"outputs":[{"name":"","type":"uint256","internalType":"uint256"}],"stateMutability":"view"},{"type":"function","name":"transfer","inputs":[{"name":"to","type":"address","internalType":"address"},{"name":"amount","type":"uint256","internalType":"uint256"}],"outputs":[{"name":"","type":"bool","internalType":"bool"}],"stateMutability":"nonpayable"},{"type":"function","name":"transferFrom","inputs":[{"name":"from","type":"address","internalType":"address"},{"name":"to","type":"address","internalType":"address"},{"name":"amount","type":"uint256","internalType":"uint256"}],"outputs":[{"name":"","type":"bool","internalType":"bool"}],"stateMutability":"nonpayable"},{"type":"event","name":"Approval","inputs":[{"name":"owner","type":"address","indexed":true,"internalType":"address"},{"name":"spender","type":"address","indexed":true,"internalType":"address"},{"name":"amount","type":"uint256","indexed":false,"internalType":"uint256"}],"anonymous":false},{"type":"event","name":"Transfer","inputs":[{"name":"from","type":"address","indexed":true,"internalType":"address"},{"name":"to","type":"address","indexed":true,"internalType":"address"},{"name":"amount","type":"uint256","indexed":false,"internalType":"uint256"}],"anonymous":false}],"bytecode":{"object":"0x60e06040818152346200040457620011bc803803809162000021828662000408565b84398201606083820312620004045782516001600160401b039390848111620004045782620000529183016200042c565b6020928383015186811162000404578591620000709185016200042c565b9201519060ff8216820362000404578051868111620002065780620000965f54620004a0565b92601f93848111620003b3575b5086908483116001146200034b575f926200033f575b50508160011b915f199060031b1c1916175f555b82519086821162000206578190600194620000e98654620004a0565b828111620002ea575b508691831160011462000286575f926200027a575b50505f19600383901b1c191690831b1782555b6080524660a05282515f91815f54936200013485620004a0565b92838352868301958782821691825f146200025a5750506001146200021a575b50620001639250038262000408565b519020918051918201927f8b73c3c69bb8fe3d512ecc4cf759cc79239f7b179b0ffacaa9a75d522b39400f8452818301527fc89efdaa54c0f20c7adf612882df0950f5a951637e0307cdcb4c672f298b8bc660608301524660808301523060a083015260a0825260c082019382851090851117620002065783905251902060c052610ce09081620004dc823960805181610891015260a05181505060c051815050f35b634e487b7160e01b5f52604160045260245ffd5b8691505f8052815f20905f915b858310620002415750506200016393508201015f62000154565b8054838801850152869450889390920191810162000227565b60ff191688526200016395151560051b85010192505f9150620001549050565b015190505f8062000107565b90859350601f19831691845f52875f20925f5b89828210620002d35750508411620002ba575b505050811b0182556200011a565b01515f1960f88460031b161c191690555f8080620002ac565b838501518655899790950194938401930162000299565b90919250855f52865f208380860160051c82019289871062000335575b91869589929594930160051c01915b82811062000326575050620000f2565b5f815586955088910162000316565b9250819262000307565b015190505f80620000b9565b5f8080528881209350601f198516905b898282106200039c57505090846001959493921062000383575b505050811b015f55620000cd565b01515f1960f88460031b161c191690555f808062000375565b60018596829396860151815501950193016200035b565b9091505f8052865f208480850160051c820192898610620003fa575b9085949392910160051c01905b818110620003eb5750620000a3565b5f8155849350600101620003dc565b92508192620003cf565b5f80fd5b601f909101601f19168101906001600160401b038211908210176200020657604052565b919080601f84011215620004045782516001600160401b0381116200020657602090604051926200046783601f19601f850116018562000408565b81845282828701011162000404575f5b8181106200048c5750825f9394955001015290565b858101830151848201840152820162000477565b90600182811c92168015620004d0575b6020831014620004bc57565b634e487b7160e01b5f52602260045260245ffd5b91607f1691620004b056fe6080604081815260049182361015610015575f80fd5b5f3560e01c90816306fdde0314610aa757508063095ea7b314610a0d57806318160ddd146109d157806323b872dd146108b5578063313ce5671461085a5780633644e5151461082257806340c10f191461075357806370a08231146106f15780637ecebe001461068f57806395d89b41146105385780639dc29fac1461049b578063a9059cbb146103ee578063d505accf1461012f5763dd62ed3e146100b9575f80fd5b3461012b57807ffffffffffffffffffffffffffffffffffffffffffffffffffffffffffffffffc36011261012b576020916100f2610c53565b6100fa610c76565b9173ffffffffffffffffffffffffffffffffffffffff8092165f528452825f2091165f528252805f20549051908152f35b5f80fd5b503461012b5760e07ffffffffffffffffffffffffffffffffffffffffffffffffffffffffffffffffc36011261012b57610167610c53565b90610170610c76565b90604435606435916084359460ff861680960361012b574284106103915773ffffffffffffffffffffffffffffffffffffffff80911694855f5260209460058652835f209788549860018a01905584519184888401947f6e71edae12b1b97f4d1f60370fef10105fa2faae0126114a169c64845d6126c986528a8886015216998a606085015287608085015260a084015260c083015260c0825260e0820167ffffffffffffffff93838210858311176103655781875283519020906101008401917f190100000000000000000000000000000000000000000000000000000000000083525f610102860152610122850152604281526101608401948186109086111761036557848752519020835261018082015260a4356101a082015260c4356101c0909101525f808052859160809060015afa1561035b575f51169586151580610352575b156102f7577f8c5be1e5ebec7d5bd14f71427d1e84f3dd0314c0f7b2291e5b200ac8c7c3b9259495965f528352805f20865f52835281815f205551908152a3005b8360649251917f08c379a0000000000000000000000000000000000000000000000000000000008352820152600e60248201527f494e56414c49445f5349474e45520000000000000000000000000000000000006044820152fd5b508487146102b6565b50513d5f823e3d90fd5b60418c7f4e487b71000000000000000000000000000000000000000000000000000000005f525260245ffd5b60648760208451917f08c379a0000000000000000000000000000000000000000000000000000000008352820152601760248201527f5045524d49545f444541444c494e455f455850495245440000000000000000006044820152fd5b503461012b57807ffffffffffffffffffffffffffffffffffffffffffffffffffffffffffffffffc36011261012b57602090610428610c53565b73ffffffffffffffffffffffffffffffffffffffff60243591335f5260038552835f20610456848254610c99565b90551690815f5260038452825f2081815401905582519081527fddf252ad1be2c89b69c2b068fc378daa952ba7f163c4a11628f55a4df523b3ef843392a35160018152f35b503461012b57807ffffffffffffffffffffffffffffffffffffffffffffffffffffffffffffffffc36011261012b575f907fddf252ad1be2c89b69c2b068fc378daa952ba7f163c4a11628f55a4df523b3ef60206104f7610c53565b73ffffffffffffffffffffffffffffffffffffffff60243591169384865260038352808620610527838254610c99565b9055816002540360025551908152a3005b503461012b575f7ffffffffffffffffffffffffffffffffffffffffffffffffffffffffffffffffc36011261012b578051905f9260018054908160011c91600181168015610685575b6020948585108214610659575083875290811561061b57506001146105c1575b5050506105b3826105bd940383610b81565b5191829182610bef565b0390f35b60015f9081529295507fb10e2d527612073b26eecdfd717e6a320cf44b4afac2b0732d9fcbe2b7fa0cf65b82841061060857505050826105bd946105b392820101946105a1565b80548685018801529286019281016105ec565b7fffffffffffffffffffffffffffffffffffffffffffffffffffffffffffffff0016868501525050151560051b83010192506105b3826105bd6105a1565b6022907f4e487b71000000000000000000000000000000000000000000000000000000005f525260245ffd5b92607f1692610581565b503461012b5760207ffffffffffffffffffffffffffffffffffffffffffffffffffffffffffffffffc36011261012b5760209073ffffffffffffffffffffffffffffffffffffffff6106df610c53565b165f5260058252805f20549051908152f35b503461012b5760207ffffffffffffffffffffffffffffffffffffffffffffffffffffffffffffffffc36011261012b5760209073ffffffffffffffffffffffffffffffffffffffff610741610c53565b165f5260038252805f20549051908152f35b50903461012b57817ffffffffffffffffffffffffffffffffffffffffffffffffffffffffffffffffc36011261012b5761078b610c53565b60243591600254908382018092116107f657505f9273ffffffffffffffffffffffffffffffffffffffff7fddf252ad1be2c89b69c2b068fc378daa952ba7f163c4a11628f55a4df523b3ef9360209360025516948585526003835280852082815401905551908152a3005b6011907f4e487b71000000000000000000000000000000000000000000000000000000005f525260245ffd5b503461012b575f7ffffffffffffffffffffffffffffffffffffffffffffffffffffffffffffffffc36011261012b57602090515f8152f35b503461012b575f7ffffffffffffffffffffffffffffffffffffffffffffffffffffffffffffffffc36011261012b576020905160ff7f0000000000000000000000000000000000000000000000000000000000000000168152f35b503461012b5760607ffffffffffffffffffffffffffffffffffffffffffffffffffffffffffffffffc36011261012b576108ed610c53565b916108f6610c76565b927fddf252ad1be2c89b69c2b068fc378daa952ba7f163c4a11628f55a4df523b3ef6044359273ffffffffffffffffffffffffffffffffffffffff80931692835f526020968288938452875f20335f528452875f2054877fffffffffffffffffffffffffffffffffffffffffffffffffffffffffffffffff82036109ae575b505050845f5260038352865f2061098d878254610c99565b90551693845f5260038252855f208181540190558551908152a35160018152f35b6109b791610c99565b90865f528452875f20335f528452875f20555f8087610975565b503461012b575f7ffffffffffffffffffffffffffffffffffffffffffffffffffffffffffffffffc36011261012b576020906002549051908152f35b503461012b57807ffffffffffffffffffffffffffffffffffffffffffffffffffffffffffffffffc36011261012b57602091610a47610c53565b9060243590335f52845273ffffffffffffffffffffffffffffffffffffffff835f20921691825f52845280835f205582519081527f8c5be1e5ebec7d5bd14f71427d1e84f3dd0314c0f7b2291e5b200ac8c7c3b925843392a35160018152f35b9190503461012b575f7ffffffffffffffffffffffffffffffffffffffffffffffffffffffffffffffffc36011261012b575f925f5460018160011c91600181168015610b77575b6020948585108214610659575083875290811561061b5750600114610b1f575050506105b3826105bd940383610b81565b5f8080529295507f290decd9548b62a8d60345a988386fc84ba6bc95484008f6362f93160ef3e5635b828410610b6457505050826105bd946105b392820101946105a1565b8054868501880152928601928101610b48565b92607f1692610aee565b90601f7fffffffffffffffffffffffffffffffffffffffffffffffffffffffffffffffe0910116810190811067ffffffffffffffff821117610bc257604052565b7f4e487b71000000000000000000000000000000000000000000000000000000005f52604160045260245ffd5b6020808252825181830181905293925f5b858110610c3f575050507fffffffffffffffffffffffffffffffffffffffffffffffffffffffffffffffe0601f845f6040809697860101520116010190565b818101830151848201604001528201610c00565b6004359073ffffffffffffffffffffffffffffffffffffffff8216820361012b57565b6024359073ffffffffffffffffffffffffffffffffffffffff8216820361012b57565b91908203918211610ca657565b7f4e487b71000000000000000000000000000000000000000000000000000000005f52601160045260245ffdfea164736f6c6343000817000a","linkReferences":{}},"methodIdentifiers":{"DOMAIN_SEPARATOR()":"3644e515","allowance(address,address)":"dd62ed3e","approve(address,uint256)":"095ea7b3","balanceOf(address)":"70a08231","burn(address,uint256)":"9dc29fac","decimals()":"313ce567","mint(address,uint256)":"40c10f19","name()":"06fdde03","nonces(address)":"7ecebe00","permit(address,address,uint256,uint256,uint8,bytes32,bytes32)":"d505accf","symbol()":"95d89b41","totalSupply()":"18160ddd","transfer(address,uint256)":"a9059cbb","transferFrom(address,address,uint256)":"23b872dd"},"id":47}