{"abi":[{"type":"constructor","inputs":[{"name":"name","type":"string","internalType":"string"},{"name":"symbol","type":"string","internalType":"string"}],"stateMutability":"nonpayable"},{"type":"function","name":"DOMAIN_SEPARATOR","inputs":[],"outputs":[{"name":"","type":"bytes32","internalType":"bytes32"}],"stateMutability":"view"},{"type":"function","name":"allowance","inputs":[{"name":"","type":"address","internalType":"address"},{"name":"","type":"address","internalType":"address"}],"outputs":[{"name":"","type":"uint256","internalType":"uint256"}],"stateMutability":"view"},{"type":"function","name":"approve","inputs":[{"name":"spender","type":"address","internalType":"address"},{"name":"amount","type":"uint256","internalType":"uint256"}],"outputs":[{"name":"","type":"bool","internalType":"bool"}],"stateMutability":"nonpayable"},{"type":"function","name":"balanceOf","inputs":[{"name":"","type":"address","internalType":"address"}],"outputs":[{"name":"","type":"uint256","internalType":"uint256"}],"stateMutability":"view"},{"type":"function","name":"decimals","inputs":[],"outputs":[{"name":"","type":"uint8","internalType":"uint8"}],"stateMutability":"view"},{"type":"function","name":"mint","inputs":[{"name":"to","type":"address","internalType":"address"},{"name":"amount","type":"uint256","internalType":"uint256"}],"outputs":[],"stateMutability":"nonpayable"},{"type":"function","name":"name","inputs":[],"outputs":[{"name":"","type":"string","internalType":"string"}],"stateMutability":"view"},{"type":"function","name":"nonces","inputs":[{"name":"","type":"address","internalType":"address"}],"outputs":[{"name":"","type":"uint256","internalType":"uint256"}],"stateMutability":"view"},{"type":"function","name":"permit","inputs":[{"name":"owner","type":"address","internalType":"address"},{"name":"spender","type":"address","internalType":"address"},{"name":"value","type":"uint256","internalType":"uint256"},{"name":"deadline","type":"uint256","internalType":"uint256"},{"name":"v","type":"uint8","internalType":"uint8"},{"name":"r","type":"bytes32","internalType":"bytes32"},{"name":"s","type":"bytes32","internalType":"bytes32"}],"outputs":[],"stateMutability":"nonpayable"},{"type":"function","name":"symbol","inputs":[],"outputs":[{"name":"","type":"string","internalType":"string"}],"stateMutability":"view"},{"type":"function","name":"totalSupply","inputs":[],"outputs":[{"name":"","type":"uint256","internalType":"uint256"}],"stateMutability":"view"},{"type":"function","name":"transfer","inputs":[{"name":"to","type":"address","internalType":"address"},{"name":"amount","type":"uint256","internalType":"uint256"}],"outputs":[{"name":"","type":"bool","internalType":"bool"}],"stateMutability":"nonpayable"},{"type":"function","name":"transferFrom","inputs":[{"name":"from","type":"address","internalType":"address"},{"name":"to","type":"address","internalType":"address"},{"name":"amount","type":"uint256","internalType":"uint256"}],"outputs":[{"name":"","type":"bool","internalType":"bool"}],"stateMutability":"nonpayable"},{"type":"event","name":"Approval","inputs":[{"name":"owner","type":"address","indexed":true,"internalType":"address"},{"name":"spender","type":"address","indexed":true,"internalType":"address"},{"name":"amount","type":"uint256","indexed":false,"internalType":"uint256"}],"anonymous":false},{"type":"event","name":"Transfer","inputs":[{"name":"from","type":"address","indexed":true,"internalType":"address"},{"name":"to","type":"address","indexed":true,"internalType":"address"},{"name":"amount","type":"uint256","indexed":false,"internalType":"uint256"}],"anonymous":false}],"bytecode":{"object":"0x60e0604081815234620003fb57620012ed8038038091620000218286620003ff565b843982018183820312620003fb5782516001600160401b039390848111620003fb57826200005191830162000423565b9060209283820151868111620003fb576200006d920162000423565b908051858111620001fd5780620000855f5462000497565b92601f93848111620003aa575b50859084831160011462000342575f9262000336575b50508160011b915f199060031b1c1916175f555b815190858211620001fd578190600193620000d8855462000497565b828111620002e1575b50859183116001146200027d575f9262000271575b50505f19600383901b1c191690821b1781555b60126080524660a05282515f91815f5493620001258562000497565b92838352868301958782821691825f146200025157505060011462000211575b506200015492500382620003ff565b519020918051918201927f8b73c3c69bb8fe3d512ecc4cf759cc79239f7b179b0ffacaa9a75d522b39400f8452818301527fc89efdaa54c0f20c7adf612882df0950f5a951637e0307cdcb4c672f298b8bc660608301524660808301523060a083015260a0825260c082019382851090851117620001fd5783905251902060c052610e1a9081620004d38239608051816107e8015260a05181610c64015260c05181610c8a0152f35b634e487b7160e01b5f52604160045260245ffd5b8691505f8052815f20905f915b858310620002385750506200015493508201015f62000145565b805483880185015286945088939092019181016200021e565b60ff191688526200015495151560051b85010192505f9150620001459050565b015190505f80620000f6565b90849350601f19831691845f52865f20925f5b88828210620002ca5750508411620002b1575b505050811b01815562000109565b01515f1960f88460031b161c191690555f8080620002a3565b838501518655889790950194938401930162000290565b90919250845f52855f208380860160051c8201928887106200032c575b91869588929594930160051c01915b8281106200031d575050620000e1565b5f81558695508791016200030d565b92508192620002fe565b015190505f80620000a8565b5f8080528781209350601f198516905b88828210620003935750509084600195949392106200037a575b505050811b015f55620000bc565b01515f1960f88460031b161c191690555f80806200036c565b600185968293968601518155019501930162000352565b9091505f8052855f208480850160051c820192888610620003f1575b9085949392910160051c01905b818110620003e2575062000092565b5f8155849350600101620003d3565b92508192620003c6565b5f80fd5b601f909101601f19168101906001600160401b03821190821017620001fd57604052565b919080601f84011215620003fb5782516001600160401b038111620001fd57602090604051926200045e83601f19601f8501160185620003ff565b818452828287010111620003fb575f5b818110620004835750825f9394955001015290565b85810183015184820184015282016200046e565b90600182811c92168015620004c7575b6020831014620004b357565b634e487b7160e01b5f52602260045260245ffd5b91607f1691620004a756fe6080604081815260049182361015610015575f80fd5b5f3560e01c90816306fdde03146109fe57508063095ea7b31461096457806318160ddd1461092857806323b872dd1461080c578063313ce567146107b15780633644e5151461077057806340c10f19146106a157806370a082311461063f5780637ecebe00146105dd57806395d89b41146104c3578063a9059cbb14610416578063d505accf146101245763dd62ed3e146100ae575f80fd5b3461012057807ffffffffffffffffffffffffffffffffffffffffffffffffffffffffffffffffc360112610120576020916100e7610be1565b6100ef610c04565b9173ffffffffffffffffffffffffffffffffffffffff8092165f528452825f2091165f528252805f20549051908152f35b5f80fd5b50346101205760e07ffffffffffffffffffffffffffffffffffffffffffffffffffffffffffffffffc3601126101205761015c610be1565b90610165610c04565b91604435606435926084359260ff8416809403610120574285106103b95761018b610c61565b9573ffffffffffffffffffffffffffffffffffffffff80921695865f5260209560058752845f209889549960018b01905585519285898501957f6e71edae12b1b97f4d1f60370fef10105fa2faae0126114a169c64845d6126c987528b89870152169a8b606086015288608086015260a085015260c084015260c0835260e0830167ffffffffffffffff948482108683111761038d57818852845190206101008501927f19010000000000000000000000000000000000000000000000000000000000008452610102860152610122850152604281526101608401948186109086111761036157848752519020835261018082015260a4356101a082015260c4356101c0909101525f808052859160809060015afa15610357575f5116958615158061034e575b156102f3577f8c5be1e5ebec7d5bd14f71427d1e84f3dd0314c0f7b2291e5b200ac8c7c3b9259495965f528352805f20865f52835281815f205551908152a3005b8360649251917f08c379a0000000000000000000000000000000000000000000000000000000008352820152600e60248201527f494e56414c49445f5349474e45520000000000000000000000000000000000006044820152fd5b508487146102b2565b50513d5f823e3d90fd5b60418c7f4e487b71000000000000000000000000000000000000000000000000000000005f525260245ffd5b60418d7f4e487b71000000000000000000000000000000000000000000000000000000005f525260245ffd5b60648760208451917f08c379a0000000000000000000000000000000000000000000000000000000008352820152601760248201527f5045524d49545f444541444c494e455f455850495245440000000000000000006044820152fd5b503461012057807ffffffffffffffffffffffffffffffffffffffffffffffffffffffffffffffffc36011261012057602090610450610be1565b73ffffffffffffffffffffffffffffffffffffffff60243591335f5260038552835f2061047e848254610c27565b90551690815f5260038452825f2081815401905582519081527fddf252ad1be2c89b69c2b068fc378daa952ba7f163c4a11628f55a4df523b3ef843392a35160018152f35b5034610120575f7ffffffffffffffffffffffffffffffffffffffffffffffffffffffffffffffffc3601126101205780515f6001805461050281610abe565b8085529160209160018116908115610595575060011461053c575b610538858761052e82880383610b0f565b5191829182610b7d565b0390f35b60015f90815293507fb10e2d527612073b26eecdfd717e6a320cf44b4afac2b0732d9fcbe2b7fa0cf65b8385106105825750505050810160200161052e8261053861051d565b8054868601840152938201938101610566565b6105389795508693506020925061052e9491507fffffffffffffffffffffffffffffffffffffffffffffffffffffffffffffff001682840152151560051b820101929461051d565b50346101205760207ffffffffffffffffffffffffffffffffffffffffffffffffffffffffffffffffc3601126101205760209073ffffffffffffffffffffffffffffffffffffffff61062d610be1565b165f5260058252805f20549051908152f35b50346101205760207ffffffffffffffffffffffffffffffffffffffffffffffffffffffffffffffffc3601126101205760209073ffffffffffffffffffffffffffffffffffffffff61068f610be1565b165f5260038252805f20549051908152f35b50903461012057817ffffffffffffffffffffffffffffffffffffffffffffffffffffffffffffffffc360112610120576106d9610be1565b602435916002549083820180921161074457505f9273ffffffffffffffffffffffffffffffffffffffff7fddf252ad1be2c89b69c2b068fc378daa952ba7f163c4a11628f55a4df523b3ef9360209360025516948585526003835280852082815401905551908152a3005b6011907f4e487b71000000000000000000000000000000000000000000000000000000005f525260245ffd5b5034610120575f7ffffffffffffffffffffffffffffffffffffffffffffffffffffffffffffffffc360112610120576020906107aa610c61565b9051908152f35b5034610120575f7ffffffffffffffffffffffffffffffffffffffffffffffffffffffffffffffffc360112610120576020905160ff7f0000000000000000000000000000000000000000000000000000000000000000168152f35b50346101205760607ffffffffffffffffffffffffffffffffffffffffffffffffffffffffffffffffc36011261012057610844610be1565b9161084d610c04565b927fddf252ad1be2c89b69c2b068fc378daa952ba7f163c4a11628f55a4df523b3ef6044359273ffffffffffffffffffffffffffffffffffffffff80931692835f526020968288938452875f20335f528452875f2054877fffffffffffffffffffffffffffffffffffffffffffffffffffffffffffffffff8203610905575b505050845f5260038352865f206108e4878254610c27565b90551693845f5260038252855f208181540190558551908152a35160018152f35b61090e91610c27565b90865f528452875f20335f528452875f20555f80876108cc565b5034610120575f7ffffffffffffffffffffffffffffffffffffffffffffffffffffffffffffffffc360112610120576020906002549051908152f35b503461012057807ffffffffffffffffffffffffffffffffffffffffffffffffffffffffffffffffc3601126101205760209161099e610be1565b9060243590335f52845273ffffffffffffffffffffffffffffffffffffffff835f20921691825f52845280835f205582519081527f8c5be1e5ebec7d5bd14f71427d1e84f3dd0314c0f7b2291e5b200ac8c7c3b925843392a35160018152f35b905034610120575f7ffffffffffffffffffffffffffffffffffffffffffffffffffffffffffffffffc360112610120575f8054610a3a81610abe565b808452906020906001908181169081156105955750600114610a6757610538858761052e82880383610b0f565b5f80805293507f290decd9548b62a8d60345a988386fc84ba6bc95484008f6362f93160ef3e5635b838510610aab5750505050810160200161052e8261053861051d565b8054868601840152938201938101610a8f565b90600182811c92168015610b05575b6020831014610ad857565b7f4e487b71000000000000000000000000000000000000000000000000000000005f52602260045260245ffd5b91607f1691610acd565b90601f7fffffffffffffffffffffffffffffffffffffffffffffffffffffffffffffffe0910116810190811067ffffffffffffffff821117610b5057604052565b7f4e487b71000000000000000000000000000000000000000000000000000000005f52604160045260245ffd5b6020808252825181830181905293925f5b858110610bcd575050507fffffffffffffffffffffffffffffffffffffffffffffffffffffffffffffffe0601f845f6040809697860101520116010190565b818101830151848201604001528201610b8e565b6004359073ffffffffffffffffffffffffffffffffffffffff8216820361012057565b6024359073ffffffffffffffffffffffffffffffffffffffff8216820361012057565b91908203918211610c3457565b7f4e487b71000000000000000000000000000000000000000000000000000000005f52601160045260245ffd5b467f000000000000000000000000000000000000000000000000000000000000000003610cac577f000000000000000000000000000000000000000000000000000000000000000090565b6040515f905f5490610cbd82610abe565b8082528160209485820194600190876001821691825f14610dd1575050600114610d78575b50610cef92500382610b0f565b51902090604051908101917f8b73c3c69bb8fe3d512ecc4cf759cc79239f7b179b0ffacaa9a75d522b39400f835260408201527fc89efdaa54c0f20c7adf612882df0950f5a951637e0307cdcb4c672f298b8bc660608201524660808201523060a082015260a0815260c0810181811067ffffffffffffffff821117610b505760405251902090565b5f808052879250907f290decd9548b62a8d60345a988386fc84ba6bc95484008f6362f93160ef3e5635b858310610db9575050610cef93508201015f610ce2565b80548388018501528694508893909201918101610da2565b7fffffffffffffffffffffffffffffffffffffffffffffffffffffffffffffff00168852610cef95151560051b85010192505f9150610ce2905056fea164736f6c6343000817000a","linkReferences":{}},"methodIdentifiers":{"DOMAIN_SEPARATOR()":"3644e515","allowance(address,address)":"dd62ed3e","approve(address,uint256)":"095ea7b3","balanceOf(address)":"70a08231","decimals()":"313ce567","mint(address,uint256)":"40c10f19","name()":"06fdde03","nonces(address)":"7ecebe00","permit(address,address,uint256,uint256,uint8,bytes32,bytes32)":"d505accf","symbol()":"95d89b41","totalSupply()":"18160ddd","transfer(address,uint256)":"a9059cbb","transferFrom(address,address,uint256)":"23b872dd"},"id":18}