{"abi":[{"type":"constructor","inputs":[{"name":"name","type":"string","internalType":"string"},{"name":"symbol","type":"string","internalType":"string"},{"name":"decimals","type":"uint8","internalType":"uint8"}],"stateMutability":"nonpayable"},{"type":"function","name":"DOMAIN_SEPARATOR","inputs":[],"outputs":[{"name":"","type":"bytes32","internalType":"bytes32"}],"stateMutability":"view"},{"type":"function","name":"allowance","inputs":[{"name":"","type":"address","internalType":"address"},{"name":"","type":"address","internalType":"address"}],"outputs":[{"name":"","type":"uint256","internalType":"uint256"}],"stateMutability":"view"},{"type":"function","name":"approve","inputs":[{"name":"spender","type":"address","internalType":"address"},{"name":"amount","type":"uint256","internalType":"uint256"}],"outputs":[{"name":"","type":"bool","internalType":"bool"}],"stateMutability":"nonpayable"},{"type":"function","name":"balanceOf","inputs":[{"name":"","type":"address","internalType":"address"}],"outputs":[{"name":"","type":"uint256","internalType":"uint256"}],"stateMutability":"view"},{"type":"function","name":"decimals","inputs":[],"outputs":[{"name":"","type":"uint8","internalType":"uint8"}],"stateMutability":"view"},{"type":"function","name":"mint","inputs":[{"name":"_to","type":"address","internalType":"address"},{"name":"_amount","type":"uint256","internalType":"uint256"}],"outputs":[],"stateMutability":"nonpayable"},{"type":"function","name":"name","inputs":[],"outputs":[{"name":"","type":"string","internalType":"string"}],"stateMutability":"view"},{"type":"function","name":"nonces","inputs":[{"name":"","type":"address","internalType":"address"}],"outputs":[{"name":"","type":"uint256","internalType":"uint256"}],"stateMutability":"view"},{"type":"function","name":"permit","inputs":[{"name":"owner","type":"address","internalType":"address"},{"name":"spender","type":"address","internalType":"address"},{"name":"value","type":"uint256","internalType":"uint256"},{"name":"deadline","type":"uint256","internalType":"uint256"},{"name":"v","type":"uint8","internalType":"uint8"},{"name":"r","type":"bytes32","internalType":"bytes32"},{"name":"s","type":"bytes32","internalType":"bytes32"}],"outputs":[],"stateMutability":"nonpayable"},{"type":"function","name":"symbol","inputs":[],"outputs":[{"name":"","type":"string","internalType":"string"}],"stateMutability":"view"},{"type":"function","name":"totalSupply","inputs":[],"outputs":[{"name":"","type":"uint256","internalType":"uint256"}],"stateMutability":"view"},{"type":"function","name":"transfer","inputs":[{"name":"to","type":"address","internalType":"address"},{"name":"amount","type":"uint256","internalType":"uint256"}],"outputs":[{"name":"","type":"bool","internalType":"bool"}],"stateMutability":"nonpayable"},{"type":"function","name":"transferFrom","inputs":[{"name":"from","type":"address","internalType":"address"},{"name":"to","type":"address","internalType":"address"},{"name":"amount","type":"uint256","internalType":"uint256"}],"outputs":[{"name":"","type":"bool","internalType":"bool"}],"stateMutability":"nonpayable"},{"type":"event","name":"Approval","inputs":[{"name":"owner","type":"address","indexed":true,"internalType":"address"},{"name":"spender","type":"address","indexed":true,"internalType":"address"},{"name":"amount","type":"uint256","indexed":false,"internalType":"uint256"}],"anonymous":false},{"type":"event","name":"Transfer","inputs":[{"name":"from","type":"address","indexed":true,"internalType":"address"},{"name":"to","type":"address","indexed":true,"internalType":"address"},{"name":"amount","type":"uint256","indexed":false,"internalType":"uint256"}],"anonymous":false}],"bytecode":{"object":"0x60e06040818152346200040a57620012fc80380380916200002182866200040e565b843982016060838203126200040a5782516001600160401b0393908481116200040a57826200005291830162000432565b602092838301518681116200040a5785916200007091850162000432565b9201519060ff821682036200040a5780518681116200020c5780620000965f54620004a6565b92601f93848111620003b9575b50869084831160011462000351575f9262000345575b50508160011b915f199060031b1c1916175f555b8251908682116200020c578190600194620000e98654620004a6565b828111620002f0575b50869183116001146200028c575f9262000280575b50505f19600383901b1c191690831b1782555b6080524660a05282515f91815f54936200013485620004a6565b92838352868301958782821691825f146200026057505060011462000220575b5062000163925003826200040e565b519020918051918201927f8b73c3c69bb8fe3d512ecc4cf759cc79239f7b179b0ffacaa9a75d522b39400f8452818301527fc89efdaa54c0f20c7adf612882df0950f5a951637e0307cdcb4c672f298b8bc660608301524660808301523060a083015260a0825260c0820193828510908511176200020c5783905251902060c052610e1a9081620004e28239608051816107e8015260a05181610c64015260c05181610c8a0152f35b634e487b7160e01b5f52604160045260245ffd5b8691505f8052815f20905f915b858310620002475750506200016393508201015f62000154565b805483880185015286945088939092019181016200022d565b60ff191688526200016395151560051b85010192505f9150620001549050565b015190505f8062000107565b90859350601f19831691845f52875f20925f5b89828210620002d95750508411620002c0575b505050811b0182556200011a565b01515f1960f88460031b161c191690555f8080620002b2565b83850151865589979095019493840193016200029f565b90919250855f52865f208380860160051c8201928987106200033b575b91869589929594930160051c01915b8281106200032c575050620000f2565b5f81558695508891016200031c565b925081926200030d565b015190505f80620000b9565b5f8080528881209350601f198516905b89828210620003a257505090846001959493921062000389575b505050811b015f55620000cd565b01515f1960f88460031b161c191690555f80806200037b565b600185968293968601518155019501930162000361565b9091505f8052865f208480850160051c82019289861062000400575b9085949392910160051c01905b818110620003f15750620000a3565b5f8155849350600101620003e2565b92508192620003d5565b5f80fd5b601f909101601f19168101906001600160401b038211908210176200020c57604052565b919080601f840112156200040a5782516001600160401b0381116200020c57602090604051926200046d83601f19601f85011601856200040e565b8184528282870101116200040a575f5b818110620004925750825f9394955001015290565b85810183015184820184015282016200047d565b90600182811c92168015620004d6575b6020831014620004c257565b634e487b7160e01b5f52602260045260245ffd5b91607f1691620004b656fe6080604081815260049182361015610015575f80fd5b5f3560e01c90816306fdde03146109fe57508063095ea7b31461096457806318160ddd1461092857806323b872dd1461080c578063313ce567146107b15780633644e5151461077057806340c10f19146106a157806370a082311461063f5780637ecebe00146105dd57806395d89b41146104c3578063a9059cbb14610416578063d505accf146101245763dd62ed3e146100ae575f80fd5b3461012057807ffffffffffffffffffffffffffffffffffffffffffffffffffffffffffffffffc360112610120576020916100e7610be1565b6100ef610c04565b9173ffffffffffffffffffffffffffffffffffffffff8092165f528452825f2091165f528252805f20549051908152f35b5f80fd5b50346101205760e07ffffffffffffffffffffffffffffffffffffffffffffffffffffffffffffffffc3601126101205761015c610be1565b90610165610c04565b91604435606435926084359260ff8416809403610120574285106103b95761018b610c61565b9573ffffffffffffffffffffffffffffffffffffffff80921695865f5260209560058752845f209889549960018b01905585519285898501957f6e71edae12b1b97f4d1f60370fef10105fa2faae0126114a169c64845d6126c987528b89870152169a8b606086015288608086015260a085015260c084015260c0835260e0830167ffffffffffffffff948482108683111761038d57818852845190206101008501927f19010000000000000000000000000000000000000000000000000000000000008452610102860152610122850152604281526101608401948186109086111761036157848752519020835261018082015260a4356101a082015260c4356101c0909101525f808052859160809060015afa15610357575f5116958615158061034e575b156102f3577f8c5be1e5ebec7d5bd14f71427d1e84f3dd0314c0f7b2291e5b200ac8c7c3b9259495965f528352805f20865f52835281815f205551908152a3005b8360649251917f08c379a0000000000000000000000000000000000000000000000000000000008352820152600e60248201527f494e56414c49445f5349474e45520000000000000000000000000000000000006044820152fd5b508487146102b2565b50513d5f823e3d90fd5b60418c7f4e487b71000000000000000000000000000000000000000000000000000000005f525260245ffd5b60418d7f4e487b71000000000000000000000000000000000000000000000000000000005f525260245ffd5b60648760208451917f08c379a0000000000000000000000000000000000000000000000000000000008352820152601760248201527f5045524d49545f444541444c494e455f455850495245440000000000000000006044820152fd5b503461012057807ffffffffffffffffffffffffffffffffffffffffffffffffffffffffffffffffc36011261012057602090610450610be1565b73ffffffffffffffffffffffffffffffffffffffff60243591335f5260038552835f2061047e848254610c27565b90551690815f5260038452825f2081815401905582519081527fddf252ad1be2c89b69c2b068fc378daa952ba7f163c4a11628f55a4df523b3ef843392a35160018152f35b5034610120575f7ffffffffffffffffffffffffffffffffffffffffffffffffffffffffffffffffc3601126101205780515f6001805461050281610abe565b8085529160209160018116908115610595575060011461053c575b610538858761052e82880383610b0f565b5191829182610b7d565b0390f35b60015f90815293507fb10e2d527612073b26eecdfd717e6a320cf44b4afac2b0732d9fcbe2b7fa0cf65b8385106105825750505050810160200161052e8261053861051d565b8054868601840152938201938101610566565b6105389795508693506020925061052e9491507fffffffffffffffffffffffffffffffffffffffffffffffffffffffffffffff001682840152151560051b820101929461051d565b50346101205760207ffffffffffffffffffffffffffffffffffffffffffffffffffffffffffffffffc3601126101205760209073ffffffffffffffffffffffffffffffffffffffff61062d610be1565b165f5260058252805f20549051908152f35b50346101205760207ffffffffffffffffffffffffffffffffffffffffffffffffffffffffffffffffc3601126101205760209073ffffffffffffffffffffffffffffffffffffffff61068f610be1565b165f5260038252805f20549051908152f35b50903461012057817ffffffffffffffffffffffffffffffffffffffffffffffffffffffffffffffffc360112610120576106d9610be1565b602435916002549083820180921161074457505f9273ffffffffffffffffffffffffffffffffffffffff7fddf252ad1be2c89b69c2b068fc378daa952ba7f163c4a11628f55a4df523b3ef9360209360025516948585526003835280852082815401905551908152a3005b6011907f4e487b71000000000000000000000000000000000000000000000000000000005f525260245ffd5b5034610120575f7ffffffffffffffffffffffffffffffffffffffffffffffffffffffffffffffffc360112610120576020906107aa610c61565b9051908152f35b5034610120575f7ffffffffffffffffffffffffffffffffffffffffffffffffffffffffffffffffc360112610120576020905160ff7f0000000000000000000000000000000000000000000000000000000000000000168152f35b50346101205760607ffffffffffffffffffffffffffffffffffffffffffffffffffffffffffffffffc36011261012057610844610be1565b9161084d610c04565b927fddf252ad1be2c89b69c2b068fc378daa952ba7f163c4a11628f55a4df523b3ef6044359273ffffffffffffffffffffffffffffffffffffffff80931692835f526020968288938452875f20335f528452875f2054877fffffffffffffffffffffffffffffffffffffffffffffffffffffffffffffffff8203610905575b505050845f5260038352865f206108e4878254610c27565b90551693845f5260038252855f208181540190558551908152a35160018152f35b61090e91610c27565b90865f528452875f20335f528452875f20555f80876108cc565b5034610120575f7ffffffffffffffffffffffffffffffffffffffffffffffffffffffffffffffffc360112610120576020906002549051908152f35b503461012057807ffffffffffffffffffffffffffffffffffffffffffffffffffffffffffffffffc3601126101205760209161099e610be1565b9060243590335f52845273ffffffffffffffffffffffffffffffffffffffff835f20921691825f52845280835f205582519081527f8c5be1e5ebec7d5bd14f71427d1e84f3dd0314c0f7b2291e5b200ac8c7c3b925843392a35160018152f35b905034610120575f7ffffffffffffffffffffffffffffffffffffffffffffffffffffffffffffffffc360112610120575f8054610a3a81610abe565b808452906020906001908181169081156105955750600114610a6757610538858761052e82880383610b0f565b5f80805293507f290decd9548b62a8d60345a988386fc84ba6bc95484008f6362f93160ef3e5635b838510610aab5750505050810160200161052e8261053861051d565b8054868601840152938201938101610a8f565b90600182811c92168015610b05575b6020831014610ad857565b7f4e487b71000000000000000000000000000000000000000000000000000000005f52602260045260245ffd5b91607f1691610acd565b90601f7fffffffffffffffffffffffffffffffffffffffffffffffffffffffffffffffe0910116810190811067ffffffffffffffff821117610b5057604052565b7f4e487b71000000000000000000000000000000000000000000000000000000005f52604160045260245ffd5b6020808252825181830181905293925f5b858110610bcd575050507fffffffffffffffffffffffffffffffffffffffffffffffffffffffffffffffe0601f845f6040809697860101520116010190565b818101830151848201604001528201610b8e565b6004359073ffffffffffffffffffffffffffffffffffffffff8216820361012057565b6024359073ffffffffffffffffffffffffffffffffffffffff8216820361012057565b91908203918211610c3457565b7f4e487b71000000000000000000000000000000000000000000000000000000005f52601160045260245ffd5b467f000000000000000000000000000000000000000000000000000000000000000003610cac577f000000000000000000000000000000000000000000000000000000000000000090565b6040515f905f5490610cbd82610abe565b8082528160209485820194600190876001821691825f14610dd1575050600114610d78575b50610cef92500382610b0f565b51902090604051908101917f8b73c3c69bb8fe3d512ecc4cf759cc79239f7b179b0ffacaa9a75d522b39400f835260408201527fc89efdaa54c0f20c7adf612882df0950f5a951637e0307cdcb4c672f298b8bc660608201524660808201523060a082015260a0815260c0810181811067ffffffffffffffff821117610b505760405251902090565b5f808052879250907f290decd9548b62a8d60345a988386fc84ba6bc95484008f6362f93160ef3e5635b858310610db9575050610cef93508201015f610ce2565b80548388018501528694508893909201918101610da2565b7fffffffffffffffffffffffffffffffffffffffffffffffffffffffffffffff00168852610cef95151560051b85010192505f9150610ce2905056fea164736f6c6343000817000a","linkReferences":{}},"methodIdentifiers":{"DOMAIN_SEPARATOR()":"3644e515","allowance(address,address)":"dd62ed3e","approve(address,uint256)":"095ea7b3","balanceOf(address)":"70a08231","decimals()":"313ce567","mint(address,uint256)":"40c10f19","name()":"06fdde03","nonces(address)":"7ecebe00","permit(address,address,uint256,uint256,uint8,bytes32,bytes32)":"d505accf","symbol()":"95d89b41","totalSupply()":"18160ddd","transfer(address,uint256)":"a9059cbb","transferFrom(address,address,uint256)":"23b872dd"},"id":43}