{"abi":[{"type":"function","name":"DOMAIN_SEPARATOR","inputs":[],"outputs":[{"name":"","type":"bytes32","internalType":"bytes32"}],"stateMutability":"view"},{"type":"function","name":"allowance","inputs":[{"name":"","type":"address","internalType":"address"},{"name":"","type":"address","internalType":"address"},{"name":"","type":"address","internalType":"address"}],"outputs":[{"name":"amount","type":"uint160","internalType":"uint160"},{"name":"expiration","type":"uint48","internalType":"uint48"},{"name":"nonce","type":"uint48","internalType":"uint48"}],"stateMutability":"view"},{"type":"function","name":"approve","inputs":[{"name":"token","type":"address","internalType":"address"},{"name":"spender","type":"address","internalType":"address"},{"name":"amount","type":"uint160","internalType":"uint160"},{"name":"expiration","type":"uint48","internalType":"uint48"}],"outputs":[],"stateMutability":"nonpayable"},{"type":"function","name":"invalidateNonces","inputs":[{"name":"token","type":"address","internalType":"address"},{"name":"spender","type":"address","internalType":"address"},{"name":"newNonce","type":"uint48","internalType":"uint48"}],"outputs":[],"stateMutability":"nonpayable"},{"type":"function","name":"lockdown","inputs":[{"name":"approvals","type":"tuple[]","internalType":"struct IAllowanceTransfer.TokenSpenderPair[]","components":[{"name":"token","type":"address","internalType":"address"},{"name":"spender","type":"address","internalType":"address"}]}],"outputs":[],"stateMutability":"nonpayable"},{"type":"function","name":"permit","inputs":[{"name":"owner","type":"address","internalType":"address"},{"name":"permitBatch","type":"tuple","internalType":"struct IAllowanceTransfer.PermitBatch","components":[{"name":"details","type":"tuple[]","internalType":"struct IAllowanceTransfer.PermitDetails[]","components":[{"name":"token","type":"address","internalType":"address"},{"name":"amount","type":"uint160","internalType":"uint160"},{"name":"expiration","type":"uint48","internalType":"uint48"},{"name":"nonce","type":"uint48","internalType":"uint48"}]},{"name":"spender","type":"address","internalType":"address"},{"name":"sigDeadline","type":"uint256","internalType":"uint256"}]},{"name":"signature","type":"bytes","internalType":"bytes"}],"outputs":[],"stateMutability":"nonpayable"},{"type":"function","name":"permit","inputs":[{"name":"owner","type":"address","internalType":"address"},{"name":"permitSingle","type":"tuple","internalType":"struct IAllowanceTransfer.PermitSingle","components":[{"name":"details","type":"tuple","internalType":"struct IAllowanceTransfer.PermitDetails","components":[{"name":"token","type":"address","internalType":"address"},{"name":"amount","type":"uint160","internalType":"uint160"},{"name":"expiration","type":"uint48","internalType":"uint48"},{"name":"nonce","type":"uint48","internalType":"uint48"}]},{"name":"spender","type":"address","internalType":"address"},{"name":"sigDeadline","type":"uint256","internalType":"uint256"}]},{"name":"signature","type":"bytes","internalType":"bytes"}],"outputs":[],"stateMutability":"nonpayable"},{"type":"function","name":"transferFrom","inputs":[{"name":"transferDetails","type":"tuple[]","internalType":"struct IAllowanceTransfer.AllowanceTransferDetails[]","components":[{"name":"from","type":"address","internalType":"address"},{"name":"to","type":"address","internalType":"address"},{"name":"amount","type":"uint160","internalType":"uint160"},{"name":"token","type":"address","internalType":"address"}]}],"outputs":[],"stateMutability":"nonpayable"},{"type":"function","name":"transferFrom","inputs":[{"name":"from","type":"address","internalType":"address"},{"name":"to","type":"address","internalType":"address"},{"name":"amount","type":"uint160","internalType":"uint160"},{"name":"token","type":"address","internalType":"address"}],"outputs":[],"stateMutability":"nonpayable"},{"type":"event","name":"Approval","inputs":[{"name":"owner","type":"address","indexed":true,"internalType":"address"},{"name":"token","type":"address","indexed":true,"internalType":"address"},{"name":"spender","type":"address","indexed":true,"internalType":"address"},{"name":"amount","type":"uint160","indexed":false,"internalType":"uint160"},{"name":"expiration","type":"uint48","indexed":false,"internalType":"uint48"}],"anonymous":false},{"type":"event","name":"Lockdown","inputs":[{"name":"owner","type":"address","indexed":true,"internalType":"address"},{"name":"token","type":"address","indexed":false,"internalType":"address"},{"name":"spender","type":"address","indexed":false,"internalType":"address"}],"anonymous":false},{"type":"event","name":"NonceInvalidation","inputs":[{"name":"owner","type":"address","indexed":true,"internalType":"address"},{"name":"token","type":"address","indexed":true,"internalType":"address"},{"name":"spender","type":"address","indexed":true,"internalType":"address"},{"name":"newNonce","type":"uint48","indexed":false,"internalType":"uint48"},{"name":"oldNonce","type":"uint48","indexed":false,"internalType":"uint48"}],"anonymous":false},{"type":"event","name":"Permit","inputs":[{"name":"owner","type":"address","indexed":true,"internalType":"address"},{"name":"token","type":"address","indexed":true,"internalType":"address"},{"name":"spender","type":"address","indexed":true,"internalType":"address"},{"name":"amount","type":"uint160","indexed":false,"internalType":"uint160"},{"name":"expiration","type":"uint48","indexed":false,"internalType":"uint48"},{"name":"nonce","type":"uint48","indexed":false,"internalType":"uint48"}],"anonymous":false},{"type":"error","name":"AllowanceExpired","inputs":[{"name":"deadline","type":"uint256","internalType":"uint256"}]},{"type":"error","name":"ExcessiveInvalidation","inputs":[]},{"type":"error","name":"InsufficientAllowance","inputs":[{"name":"amount","type":"uint256","internalType":"uint256"}]},{"type":"error","name":"InvalidContractSignature","inputs":[]},{"type":"error","name":"InvalidNonce","inputs":[]},{"type":"error","name":"InvalidSignature","inputs":[]},{"type":"error","name":"InvalidSignatureLength","inputs":[]},{"type":"error","name":"InvalidSigner","inputs":[]},{"type":"error","name":"SignatureExpired","inputs":[{"name":"signatureDeadline","type":"uint256","internalType":"uint256"}]}],"bytecode":{"object":"0x60c0346100c05763ffffffff46168060a05260208201907f8cad95687ba82c2ce50e74f7b754645e5117c3a5bec8151c0726d5857980a86682527f9ac997416e8ff9d2ff6bebeb7149f65cdae5e32e2b90440b566bb3044041d36a604084015260608301523060808301526080825260a082019180831060018060401b038411176100ac578260405251902060805261160f90816100c5823960805181610e06015260a05181610dde0152f35b634e487b7160e01b5f52604160045260245ffd5b5f80fdfe60406080815260049081361015610014575f80fd5b5f3560e01c80630d58b1db14610abf5780632a2d80d1146107a95780632b67b570146105d15780633644e5151461059057806336c785161461051d57806365d9723c1461038f57806387517c4514610260578063927da105146101b75763cc53287f1461007f575f80fd5b346101b357602091827ffffffffffffffffffffffffffffffffffffffffffffffffffffffffffffffffc3601126101b35780359067ffffffffffffffff908183116101b357366023840112156101b3578201359081116101b3576024820191602436918360061b0101116101b3575f5b8181106100f857005b8061010e6101096001938587610e97565b610ea7565b6101238761011d848789610e97565b01610ea7565b335f525f8852865f209173ffffffffffffffffffffffffffffffffffffffff80911692835f528952875f20911690815f528852865f207fffffffffffffffffffffffff000000000000000000000000000000000000000081541690558651918252878201527f89b1add15eff56b3dfe299ad94e01f2b52fbcb80ae1a3baea6ae8c04cb2b98a4863392a2016100ef565b5f80fd5b50346101b35760607ffffffffffffffffffffffffffffffffffffffffffffffffffffffffffffffffc3601126101b3576101ef610bef565b906101f8610c12565b610200610c35565b73ffffffffffffffffffffffffffffffffffffffff9384165f908152602081815284822093861682529283528381209185168152908252829020549151928216835265ffffffffffff60a083901c169083015260d01c6040820152606090f35b50346101b35760807ffffffffffffffffffffffffffffffffffffffffffffffffffffffffffffffffc3601126101b357610298610bef565b906102a1610c12565b916102aa610c35565b65ffffffffffff92606435848116908181036101b35779ffffffffffff0000000000000000000000000000000000000000947fda9fa7c1b00402c17d0161b249b1ab8bbec047c5a52207b9c112deffd817036b94335f525f6020527fffffffffffff0000000000000000000000000000000000000000000000000000855f209873ffffffffffffffffffffffffffffffffffffffff809416998a5f5260205283875f209b169a8b5f52602052865f209486155f1461038757504216925b8454921697889360a01b16911617179055815193845260208401523392a4005b905092610367565b50346101b35760607ffffffffffffffffffffffffffffffffffffffffffffffffffffffffffffffffc3601126101b3576103c7610bef565b6103cf610c12565b916044359065ffffffffffff808316928381036101b357335f526020905f8252835f209573ffffffffffffffffffffffffffffffffffffffff80911696875f528352845f20971696875f528252835f205460d01c92838611156104f55761ffff9084830316116104cd57907f55eb90d810e1700b35a8e7e25395ff7f2b2259abd7415ca2284dfb1c246418f3939291335f525f8252835f20875f528252835f20885f528252835f209079ffffffffffffffffffffffffffffffffffffffffffffffffffff7fffffffffffff000000000000000000000000000000000000000000000000000083549260d01b16911617905582519485528401523392a4005b8784517f24d35a26000000000000000000000000000000000000000000000000000000008152fd5b8885517f756688fe000000000000000000000000000000000000000000000000000000008152fd5b346101b35760807ffffffffffffffffffffffffffffffffffffffffffffffffffffffffffffffffc3601126101b357610554610bef565b61055c610c12565b610564610c35565b6064359173ffffffffffffffffffffffffffffffffffffffff831683036101b35761058e93610ec8565b005b50346101b3575f7ffffffffffffffffffffffffffffffffffffffffffffffffffffffffffffffffc3601126101b3576020906105ca610dd5565b9051908152f35b5090346101b3576101007ffffffffffffffffffffffffffffffffffffffffffffffffffffffffffffffffc3601126101b35761060b610bef565b7fffffffffffffffffffffffffffffffffffffffffffffffffffffffffffffffdc360160c081126101b357608084519161064483610cc2565b126101b35783519061065582610c79565b73ffffffffffffffffffffffffffffffffffffffff9160243583811681036101b357815260443583811681036101b357602082015265ffffffffffff60643581811681036101b3578783015260843590811681036101b3576060820152815260a4359382851685036101b3576020820194855260c4359086830182815260e43567ffffffffffffffff81116101b3576106f19036908401610d66565b92909380421161077a57505091859161076a61058e99610770956107158851611567565b90898c511690519083519260208401947ff3841cd1ff0085026a6327b620b67997ce40f282c88a8e905a7a5626e310f3d08652840152606083015260808201526080815261076281610cde565b519020611089565b916110eb565b51925116916113ec565b602492508951917fcd21db4f000000000000000000000000000000000000000000000000000000008352820152fd5b5090346101b3576060907ffffffffffffffffffffffffffffffffffffffffffffffffffffffffffffffffc906060823601126101b3576107e7610bef565b926024359167ffffffffffffffff938484116101b35760609084360301126101b35785519561081587610cc2565b838201358581116101b3578401366023820112156101b357828101359361083b85610d3b565b9161084884519384610cfa565b85835260209560248785019160071b830101913683116101b357602401905b828210610a6357505050508752604461088260248601610c58565b94848901958652013592818801958487526044359081116101b3576108aa9036908501610d66565b939094804211610a3457505092919087969751516108c781610d3b565b906108d483519283610cfa565b8082526108e081610d3b565b868301917fffffffffffffffffffffffffffffffffffffffffffffffffffffffffffffffe08092013684375f5b8181106109fc575050908392918b96959451918883018094519091905f5b8181106109e5575050509161095161076a959492826109b49b9503908101835282610cfa565b51902073ffffffffffffffffffffffffffffffffffffffff998a8a51169051918451938401947faf1b0d30d2cab0380e68f0689007e3254993c596f2fdd0aaa7f4d04f794408638652840152606083015260808201526080815261076281610cde565b511690805151915f5b8381106109c657005b806109df83876109d96001958851610d94565b516113ec565b016109bd565b825184528f9a50928b0192918b019160010161092b565b80610a1b610a158e9f9e936001949c999a9b9c51610d94565b51611567565b610a258288610d94565b52019b9a9b979695949761090d565b602492508351917fcd21db4f000000000000000000000000000000000000000000000000000000008352820152fd5b6080823603126101b357876080918751610a7c81610c79565b610a8585610c58565b8152610a92838601610c58565b83820152610aa1898601610d53565b89820152610ab0878601610d53565b87820152815201910190610867565b5090346101b35760209160207ffffffffffffffffffffffffffffffffffffffffffffffffffffffffffffffffc3601126101b35781359067ffffffffffffffff928383116101b357366023840112156101b3578201359283116101b35760249160073660248660071b840101116101b3575f5b858110610b3b57005b80821b83019060807fffffffffffffffffffffffffffffffffffffffffffffffffffffffffffffffdc83360301126101b357610be9858960019460608a610bbf6084610b93875193610b8c85610c79565b8601610c58565b94858452610ba360448201610c58565b8097850152610bb460648201610c58565b809885015201610c58565b918291015273ffffffffffffffffffffffffffffffffffffffff8080809316951693169116610ec8565b01610b32565b6004359073ffffffffffffffffffffffffffffffffffffffff821682036101b357565b6024359073ffffffffffffffffffffffffffffffffffffffff821682036101b357565b6044359073ffffffffffffffffffffffffffffffffffffffff821682036101b357565b359073ffffffffffffffffffffffffffffffffffffffff821682036101b357565b6080810190811067ffffffffffffffff821117610c9557604052565b7f4e487b71000000000000000000000000000000000000000000000000000000005f52604160045260245ffd5b6060810190811067ffffffffffffffff821117610c9557604052565b60a0810190811067ffffffffffffffff821117610c9557604052565b90601f7fffffffffffffffffffffffffffffffffffffffffffffffffffffffffffffffe0910116810190811067ffffffffffffffff821117610c9557604052565b67ffffffffffffffff8111610c955760051b60200190565b359065ffffffffffff821682036101b357565b9181601f840112156101b35782359167ffffffffffffffff83116101b357602083818601950101116101b357565b8051821015610da85760209160051b010190565b7f4e487b71000000000000000000000000000000000000000000000000000000005f52603260045260245ffd5b4663ffffffff167f00000000000000000000000000000000000000000000000000000000000000008103610e2857507f000000000000000000000000000000000000000000000000000000000000000090565b60405160208101917f8cad95687ba82c2ce50e74f7b754645e5117c3a5bec8151c0726d5857980a86683527f9ac997416e8ff9d2ff6bebeb7149f65cdae5e32e2b90440b566bb3044041d36a6040830152606082015230608082015260808152610e9181610cde565b51902090565b9190811015610da85760061b0190565b3573ffffffffffffffffffffffffffffffffffffffff811681036101b35790565b909273ffffffffffffffffffffffffffffffffffffffff8083165f525f60205260409381855f20931692835f52602052845f20335f52602052845f209586549665ffffffffffff8860a01c16804211611059575083881697848903610fe3575b5050859650925f9492859260649560209851957f23b872dd000000000000000000000000000000000000000000000000000000008752600487015260248601521660448401525af13d15601f3d1160015f511416171615610f865750565b606490517f08c379a000000000000000000000000000000000000000000000000000000000815260206004820152601460248201527f5452414e534645525f46524f4d5f4641494c45440000000000000000000000006044820152fd5b88858516115f1461101e576024898951907ff96fb0710000000000000000000000000000000000000000000000000000000082526004820152fd5b7fffffffffffffffffffffffff000000000000000000000000000000000000000016978390038416979097179096559394859490825f610f28565b6024908851907fd81b2f2e0000000000000000000000000000000000000000000000000000000082526004820152fd5b611091610dd5565b906040519060208201927f190100000000000000000000000000000000000000000000000000000000000084526022830152604282015260428152610e9181610c79565b91908260409103126101b3576020823592013590565b833b61127857604182036111ca57611105828201826110d5565b93909260401015610da8576020935f9360ff6040608095013560f81c5b60405194855216868401526040830152606082015282805260015afa156111bf5773ffffffffffffffffffffffffffffffffffffffff805f511691821561119557160361116b57565b60046040517f815e1d64000000000000000000000000000000000000000000000000000000008152fd5b60046040517f8baa579f000000000000000000000000000000000000000000000000000000008152fd5b6040513d5f823e3d90fd5b6040820361124e576111de918101906110d5565b91601b7f7fffffffffffffffffffffffffffffffffffffffffffffffffffffffffffffff84169360ff1c019060ff8211611221576020935f9360ff608094611122565b7f4e487b71000000000000000000000000000000000000000000000000000000005f52601160045260245ffd5b60046040517f4be6321b000000000000000000000000000000000000000000000000000000008152fd5b90601f92938173ffffffffffffffffffffffffffffffffffffffff60646020957fffffffffffffffffffffffffffffffffffffffffffffffffffffffffffffffe0604051988997889687947f1626ba7e000000000000000000000000000000000000000000000000000000009d8e8752600487015260406024870152816044870152868601375f85828601015201168101030192165afa80156111bf575f90611371575b7fffffffff000000000000000000000000000000000000000000000000000000009150160361134757565b60046040517fb0669cbc000000000000000000000000000000000000000000000000000000008152fd5b506020813d6020116113e4575b8161138b60209383610cfa565b810103126101b357517fffffffff00000000000000000000000000000000000000000000000000000000811681036101b3577fffffffff000000000000000000000000000000000000000000000000000000009061131c565b3d915061137e565b9065ffffffffffff90816060840151169173ffffffffffffffffffffffffffffffffffffffff9283855116948460208201511692858160408094015116951695865f525f602052825f20885f52602052825f20981697885f52602052815f209083825460d01c0361153e57918493917fc6a377bfc4eb120024a8ac08eef205be16b817020812c73223e81d1bdb9708ec96956115179487155f1461151c5779ffffffffffff00000000000000000000000000000000000000009042165b60a01b167fffffffffffff00000000000000000000000000000000000000000000000000006001860160d01b1617179055519384938491604091949373ffffffffffffffffffffffffffffffffffffffff606085019616845265ffffffffffff809216602085015216910152565b0390a4565b5079ffffffffffff0000000000000000000000000000000000000000876114a9565b600483517f756688fe000000000000000000000000000000000000000000000000000000008152fd5b73ffffffffffffffffffffffffffffffffffffffff9081815116916020820151169065ffffffffffff60608160408401511692015116906040519260208401947f65626cad6cb96493bf6f5ebea28756c966f023ab9e8a83a7101849d5573b3678865260408501526060840152608083015260a082015260a0815260c0810181811067ffffffffffffffff821117610c95576040525190209056fea164736f6c6343000817000a","linkReferences":{}},"methodIdentifiers":{"DOMAIN_SEPARATOR()":"3644e515","allowance(address,address,address)":"927da105","approve(address,address,uint160,uint48)":"87517c45","invalidateNonces(address,address,uint48)":"65d9723c","lockdown((address,address)[])":"cc53287f","permit(address,((address,uint160,uint48,uint48),address,uint256),bytes)":"2b67b570","permit(address,((address,uint160,uint48,uint48)[],address,uint256),bytes)":"2a2d80d1","transferFrom((address,address,uint160,address)[])":"0d58b1db","transferFrom(address,address,uint160,address)":"36c78516"},"id":0}