{"abi":[{"type":"function","name":"MINT_AMOUNT_ERC1155","inputs":[],"outputs":[{"name":"","type":"uint256","internalType":"uint256"}],"stateMutability":"view"},{"type":"function","name":"MINT_AMOUNT_ERC20","inputs":[],"outputs":[{"name":"","type":"uint256","internalType":"uint256"}],"stateMutability":"view"},{"type":"function","name":"TRANSFER_AMOUNT_ERC1155","inputs":[],"outputs":[{"name":"","type":"uint256","internalType":"uint256"}],"stateMutability":"view"},{"type":"function","name":"TRANSFER_AMOUNT_ERC20","inputs":[],"outputs":[{"name":"","type":"uint256","internalType":"uint256"}],"stateMutability":"view"},{"type":"function","name":"initializeERC20Tokens","inputs":[],"outputs":[],"stateMutability":"nonpayable"},{"type":"function","name":"initializeNFTTokens","inputs":[],"outputs":[],"stateMutability":"nonpayable"},{"type":"function","name":"setERC20TestTokenApprovals","inputs":[{"name":"vm","type":"address","internalType":"contract Vm"},{"name":"owner","type":"address","internalType":"address"},{"name":"spender","type":"address","internalType":"address"}],"outputs":[],"stateMutability":"nonpayable"},{"type":"function","name":"setERC20TestTokens","inputs":[{"name":"from","type":"address","internalType":"address"}],"outputs":[],"stateMutability":"nonpayable"},{"type":"function","name":"setNFTTestTokenApprovals","inputs":[{"name":"vm","type":"address","internalType":"contract Vm"},{"name":"owner","type":"address","internalType":"address"},{"name":"spender","type":"address","internalType":"address"}],"outputs":[],"stateMutability":"nonpayable"},{"type":"function","name":"setNFTTestTokens","inputs":[{"name":"from","type":"address","internalType":"address"}],"outputs":[],"stateMutability":"nonpayable"}],"bytecode":{"object":"0x6080806040523461002b57600680546001600160a01b0319166209876517905561462a90816100308239f35b5f80fdfe60806040908082526004918236101562000017575f80fd5b5f915f3560e01c908163035c3deb1462000c29575080631b2102931462000be057806330f1f0271462000ba5578063628d9070146200090357909180938263ae6c97f81462000682578263c4d5df151462000494578263e2acb0f8146200026c578263e48c323e1462000230578263e6d9ff3d14620000ea57505063f5c3db8a14620000a1575f80fd5b34620000e657817ffffffffffffffffffffffffffffffffffffffffffffffffffffffffffffffffc360112620000e657602090516b0140777acabde1065f8400008152f35b5080fd5b915091346200022c5760207ffffffffffffffffffffffffffffffffffffffffffffffffffffffffffffffffc3601126200022c576200012862000e18565b73ffffffffffffffffffffffffffffffffffffffff928385541691823b156200022857835194807f40c10f190000000000000000000000000000000000000000000000000000000092838852169586848201528781604481836ec097ce7bc90715b34b9f1000000000998a60248401525af180156200021e5790889162000206575b50506001541690813b15620002025786604492819587519889968795865285015260248401525af1908115620001f95750620001e35750f35b620001ee9062000ea8565b620001f65780f35b80fd5b513d84823e3d90fd5b8680fd5b620002119062000ea8565b6200020257865f620001aa565b86513d8a823e3d90fd5b8580fd5b5050fd5b508234620000e657817ffffffffffffffffffffffffffffffffffffffffffffffffffffffffffffffffc360112620000e6576020905160648152f35b83346200049057827ffffffffffffffffffffffffffffffffffffffffffffffffffffffffffffffffc36011262000490578051906112fc928383019267ffffffffffffffff9080851082861117620004645760e08162001e8d968888833960608152600560608201527f5465737430000000000000000000000000000000000000000000000000000000608082015260a06020820152600560a08201527f544553543000000000000000000000000000000000000000000000000000000060c082015260128782015203019087f09485156200045a5773ffffffffffffffffffffffffffffffffffffffff94857fffffffffffffffffffffffff000000000000000000000000000000000000000097168789541617885584519382850193858510908511176200042e575091839160e093833960608152600560608201527f5465737431000000000000000000000000000000000000000000000000000000608082015260a06020820152600560a08201527f544553543100000000000000000000000000000000000000000000000000000060c082015260128582015203019085f09081156200042557501690600154161760015580f35b513d85823e3d90fd5b8860416024927f4e487b7100000000000000000000000000000000000000000000000000000000835252fd5b83513d88823e3d90fd5b6024876041857f4e487b7100000000000000000000000000000000000000000000000000000000835252fd5b8280fd5b915091346200022c5760207ffffffffffffffffffffffffffffffffffffffffffffffffffffffffffffffffc3601126200022c57620004d262000e18565b9173ffffffffffffffffffffffffffffffffffffffff90816002541693843b1562000228578351868160448183887f40c10f190000000000000000000000000000000000000000000000000000000097888452169a8b89840152600160248401525af180156200063a579087916200066a575b5050826003541690813b1562000202578691604483928751948593849283528a88840152600260248401525af18015620006605790869162000644575b50508181541691823b15620002285783518681606481837f156e29f600000000000000000000000000000000000000000000000000000000988983528b89840152600160248401528360448401525af180156200063a5790879162000622575b505060055416803b156200022857859283606492865197889586948552840152600260248401528360448401525af1908115620001f95750620001e35750f35b6200062d9062000ea8565b6200022857855f620005e2565b85513d89823e3d90fd5b6200064f9062000ea8565b6200065c57845f62000582565b8480fd5b84513d88823e3d90fd5b620006759062000ea8565b6200022857855f62000545565b915091346200022c57620006963662000e3c565b90939173ffffffffffffffffffffffffffffffffffffffff80911694853b156200020257818551917f06447d5600000000000000000000000000000000000000000000000000000000835216848201528681602481838a5af180156200063a57908791620008eb575b5050806002541691823b1562000202578451878160448183877f095ea7b300000000000000000000000000000000000000000000000000000000978884521698898b840152600160248401525af180156200021e57908891620008d3575b5050816003541690813b15620008cf57879160448392885194859384928352888a840152600260248401525af180156200063a57908791620008b7575b50508083541690813b15620002025784518781604481837fa22cb4650000000000000000000000000000000000000000000000000000000097888352898b840152600160248401525af180156200021e579088916200089f575b50506005541691823b156200020257604487928387519586948593845288840152600160248401525af1801562000895579085916200087d575b5050823b156200087857839283918351809581937f90c5013b0000000000000000000000000000000000000000000000000000000083525af1908115620001f95750620001e35750f35b505050fd5b620008889062000ea8565b6200087857835f6200082e565b83513d87823e3d90fd5b620008aa9062000ea8565b6200020257865f620007f4565b620008c29062000ea8565b6200022857855f6200079a565b8780fd5b620008de9062000ea8565b6200020257865f6200075d565b620008f69062000ea8565b6200022857855f620006ff565b5034620000e657817ffffffffffffffffffffffffffffffffffffffffffffffffffffffffffffffffc360112620000e6578051611495918282019167ffffffffffffffff908084108285111762000b795760c0816200318995878783398581526008868201527f546573744e4654310000000000000000000000000000000000000000000000006060820152608060208201528960808201527f4e4654310000000000000000000000000000000000000000000000000000000060a082015203019086f093841562000b435773ffffffffffffffffffffffffffffffffffffffff93847fffffffffffffffffffffffff00000000000000000000000000000000000000009616866002541617600255835191808301918383108584111762000b4d5791839160c09383398581526008868201527f546573744e4654320000000000000000000000000000000000000000000000006060820152608060208201528960808201527f4e4654320000000000000000000000000000000000000000000000000000000060a082015203019086f0801562000b43578316846003541617600355815190610f46808301928084108385111762000b0d578062000f479483868339039088f0801562000b3957851686895416178855835192818401928484109084111762000b0d57908392918339039085f09081156200042557501690600554161760055580f35b60248860418b7f4e487b7100000000000000000000000000000000000000000000000000000000835252fd5b84513d89823e3d90fd5b82513d87823e3d90fd5b60248960418c7f4e487b7100000000000000000000000000000000000000000000000000000000835252fd5b6024866041897f4e487b7100000000000000000000000000000000000000000000000000000000835252fd5b5034620000e657817ffffffffffffffffffffffffffffffffffffffffffffffffffffffffffffffffc360112620000e65760209051600a8152f35b5034620000e657817ffffffffffffffffffffffffffffffffffffffffffffffffffffffffffffffffc360112620000e657602090516ec097ce7bc90715b34b9f10000000008152f35b9190503462000e145762000c3d3662000e3c565b9591909373ffffffffffffffffffffffffffffffffffffffff80921694853b1562000e14577f06447d560000000000000000000000000000000000000000000000000000000082528216838201525f8160248183895af1801562000e0a5762000df4575b50849581869283541691855191807f095ea7b30000000000000000000000000000000000000000000000000000000092838552169283878201527fffffffffffffffffffffffffffffffffffffffffffffffffffffffffffffffff94856024830152816044816020998a945af1801562000dea57604492879594928c9262000dc8575b50600154168951968795869485528a85015260248401525af18015620006605762000d93575050823b156200087857839283918351809581937f90c5013b0000000000000000000000000000000000000000000000000000000083525af1908115620001f95750620001e35750f35b8162000db792903d1062000dc0575b62000dae818362000eea565b81019062000f2c565b505f806200082e565b503d62000da2565b62000de290873d891162000dc05762000dae818362000eea565b505f62000d24565b88513d8c823e3d90fd5b62000e0191955062000ea8565b5f935f62000ca1565b84513d5f823e3d90fd5b5f80fd5b6004359073ffffffffffffffffffffffffffffffffffffffff8216820362000e1457565b7ffffffffffffffffffffffffffffffffffffffffffffffffffffffffffffffffc606091011262000e145773ffffffffffffffffffffffffffffffffffffffff600435818116810362000e145791602435828116810362000e145791604435908116810362000e145790565b67ffffffffffffffff811162000ebd57604052565b7f4e487b71000000000000000000000000000000000000000000000000000000005f52604160045260245ffd5b90601f7fffffffffffffffffffffffffffffffffffffffffffffffffffffffffffffffe0910116810190811067ffffffffffffffff82111762000ebd57604052565b9081602091031262000e145751801515810362000e14579056fe6080806040523461001657610f2b908161001b8239f35b5f80fdfe608060409080825260049081361015610016575f80fd5b5f3560e01c908162fdd58e14610aae5750806301ffc9a7146109c15780630e89341c14610969578063156e29f61461083c5780632eb2c2d61461058c5780634e1273f4146103e5578063a22cb4651461031c578063e985e9c5146102a25763f242432a14610082575f80fd5b3461029e5760a07ffffffffffffffffffffffffffffffffffffffffffffffffffffffffffffffffc36011261029e576100b9610b15565b906100c2610b38565b916044359060643560843567ffffffffffffffff811161029e576100e99036908601610be8565b939073ffffffffffffffffffffffffffffffffffffffff80941690813314801561027b575b61011790610d05565b815f526020945f8652895f20845f528652895f20610136868254610da7565b9055881697885f525f8652895f20845f528652895f20610157868254610de1565b905588838b5186815287898201527fc3d58168c5ae7397731d063d5bbf3d657854427343f4c083240f7aacaa2d0f628d3392a43b6101a457505050505050506101a291501515610ea1565b005b8495969792916102025f928b51998a97889687957ff23a6e61000000000000000000000000000000000000000000000000000000009e8f8852339088015260248701526044860152606485015260a0608485015260a4840191610e63565b03925af19384156102725750927fffffffff00000000000000000000000000000000000000000000000000000000916101a2945f92610245575b50501614610ea1565b6102649250803d1061026b575b61025c8183610c5f565b810190610e2b565b5f8061023c565b503d610252565b513d5f823e3d90fd5b50815f526001602052885f20335f5260205261011760ff8a5f205416905061010e565b5f80fd5b823461029e57807ffffffffffffffffffffffffffffffffffffffffffffffffffffffffffffffffc36011261029e576020906102dc610b15565b6102e4610b38565b9073ffffffffffffffffffffffffffffffffffffffff8091165f5260018452825f2091165f52825260ff815f20541690519015158152f35b823461029e57807ffffffffffffffffffffffffffffffffffffffffffffffffffffffffffffffffc36011261029e57610353610b15565b906024359081151580920361029e57335f52600160205273ffffffffffffffffffffffffffffffffffffffff815f20931692835f52602052805f207fffffffffffffffffffffffffffffffffffffffffffffffffffffffffffffff0081541660ff8416179055519081527f17307eab39ab6107e8899845ad3d59bd9653f200f220920489ca2b5937696c3160203392a3005b503461029e57817ffffffffffffffffffffffffffffffffffffffffffffffffffffffffffffffffc36011261029e5767ffffffffffffffff90803582811161029e576104349036908301610bb7565b909260249060243590811161029e57610454909594939536908701610bb7565b939095610462858514610ca0565b61046b84610f06565b9661047887519889610c5f565b84885261048485610f06565b956020957fffffffffffffffffffffffffffffffffffffffffffffffffffffffffffffffe0878b0198013689375f5b8181106104f85789518881528b51818a018190528190818d01908c908c5f5b8281106104e157505050500390f35b8351855286955093810193928101926001016104d2565b6105078183889d9b9c9d610d6a565b3573ffffffffffffffffffffffffffffffffffffffff811680910361029e575f525f88528a5f20610539828587610d6a565b355f5288528a5f2054895182101561056157600582901b8a01890152979998976001016104b3565b876032877f4e487b71000000000000000000000000000000000000000000000000000000005f52525ffd5b503461029e577ffffffffffffffffffffffffffffffffffffffffffffffffffffffffffffffffc9060a08236011261029e576105c6610b15565b916105cf610b38565b67ffffffffffffffff9060443582811161029e576105f09036908601610bb7565b92909360643582811161029e5761060a9036908801610bb7565b9260843590811161029e576106229036908901610be8565b919093610630818814610ca0565b73ffffffffffffffffffffffffffffffffffffffff809a16958633148015610819575b899b61065f8a92610d05565b8d5f9184169d8e915b8484106107b75791938b93507f4a39dc06d4c0dbc64b70af90fd698a233a518aa5d07e595d983b8c0526c8f7fb916106a891845194808652850191610dee565b918083036020820152806106be3394898b610dee565b0390a43b6106db575050505050505050506101a291501515610ea1565b8a999798995198899788977fbc197c81000000000000000000000000000000000000000000000000000000009c8d8a5233908a015260248901526044880160a0905260a488019061072b92610dee565b908487830301606488015261073f92610dee565b9184830301608485015261075292610e63565b03815a6020945f91f192831561027257506101a2927fffffffff00000000000000000000000000000000000000000000000000000000915f91610798575b501614610ea1565b6107b1915060203d60201161026b5761025c8183610c5f565b5f610790565b6107c78460019661080c94610d6a565b356107d385898b610d6a565b35938d5f526020905f8252835f20835f528252835f206107f4878254610da7565b90555f525f8152825f20915f52525f20918254610de1565b90550188908c8b8f610668565b50865f5260016020528b5f20335f5260205261065f60ff8d5f2054169050610653565b503461029e5760607ffffffffffffffffffffffffffffffffffffffffffffffffffffffffffffffffc36011261029e57610874610b15565b906024359160443584519061088882610c16565b5f825273ffffffffffffffffffffffffffffffffffffffff831694855f526020935f8552875f20825f528552875f206108c2848254610de1565b9055865f895184815285888201527fc3d58168c5ae7397731d063d5bbf3d657854427343f4c083240f7aacaa2d0f628b3392a43b61090b5750505050506101a291501515610ea1565b948392915f61020296978951978895869485937ff23a6e61000000000000000000000000000000000000000000000000000000009c8d865233908601528560248601526044850152606484015260a0608484015260a4830190610b5b565b823461029e5760207ffffffffffffffffffffffffffffffffffffffffffffffffffffffffffffffffc36011261029e5780516109bd916109a882610c16565b5f825251918291602083526020830190610b5b565b0390f35b503461029e5760207ffffffffffffffffffffffffffffffffffffffffffffffffffffffffffffffffc36011261029e57357fffffffff00000000000000000000000000000000000000000000000000000000811680910361029e576020917f01ffc9a7000000000000000000000000000000000000000000000000000000008214918215610a84575b8215610a5a575b50519015158152f35b7f0e89341c000000000000000000000000000000000000000000000000000000001491505f610a51565b7fd9b67a260000000000000000000000000000000000000000000000000000000081149250610a4a565b83903461029e57817ffffffffffffffffffffffffffffffffffffffffffffffffffffffffffffffffc36011261029e5760209173ffffffffffffffffffffffffffffffffffffffff610afe610b15565b165f525f8352805f206024355f5283525f20548152f35b6004359073ffffffffffffffffffffffffffffffffffffffff8216820361029e57565b6024359073ffffffffffffffffffffffffffffffffffffffff8216820361029e57565b91908251928382525f5b848110610ba35750507fffffffffffffffffffffffffffffffffffffffffffffffffffffffffffffffe0601f845f6020809697860101520116010190565b602081830181015184830182015201610b65565b9181601f8401121561029e5782359167ffffffffffffffff831161029e576020808501948460051b01011161029e57565b9181601f8401121561029e5782359167ffffffffffffffff831161029e576020838186019501011161029e57565b6020810190811067ffffffffffffffff821117610c3257604052565b7f4e487b71000000000000000000000000000000000000000000000000000000005f52604160045260245ffd5b90601f7fffffffffffffffffffffffffffffffffffffffffffffffffffffffffffffffe0910116810190811067ffffffffffffffff821117610c3257604052565b15610ca757565b60646040517f08c379a000000000000000000000000000000000000000000000000000000000815260206004820152600f60248201527f4c454e4754485f4d49534d4154434800000000000000000000000000000000006044820152fd5b15610d0c57565b60646040517f08c379a000000000000000000000000000000000000000000000000000000000815260206004820152600e60248201527f4e4f545f415554484f52495a45440000000000000000000000000000000000006044820152fd5b9190811015610d7a5760051b0190565b7f4e487b71000000000000000000000000000000000000000000000000000000005f52603260045260245ffd5b91908203918211610db457565b7f4e487b71000000000000000000000000000000000000000000000000000000005f52601160045260245ffd5b91908201809211610db457565b90918281527f07ffffffffffffffffffffffffffffffffffffffffffffffffffffffffffffff831161029e5760209260051b809284830137010190565b9081602091031261029e57517fffffffff000000000000000000000000000000000000000000000000000000008116810361029e5790565b601f82602094937fffffffffffffffffffffffffffffffffffffffffffffffffffffffffffffffe093818652868601375f8582860101520116010190565b15610ea857565b60646040517f08c379a000000000000000000000000000000000000000000000000000000000815260206004820152601060248201527f554e534146455f524543495049454e54000000000000000000000000000000006044820152fd5b67ffffffffffffffff8111610c325760051b6020019056fea164736f6c6343000817000a60e06040818152346200040a57620012fc80380380916200002182866200040e565b843982016060838203126200040a5782516001600160401b0393908481116200040a57826200005291830162000432565b602092838301518681116200040a5785916200007091850162000432565b9201519060ff821682036200040a5780518681116200020c5780620000965f54620004a6565b92601f93848111620003b9575b50869084831160011462000351575f9262000345575b50508160011b915f199060031b1c1916175f555b8251908682116200020c578190600194620000e98654620004a6565b828111620002f0575b50869183116001146200028c575f9262000280575b50505f19600383901b1c191690831b1782555b6080524660a05282515f91815f54936200013485620004a6565b92838352868301958782821691825f146200026057505060011462000220575b5062000163925003826200040e565b519020918051918201927f8b73c3c69bb8fe3d512ecc4cf759cc79239f7b179b0ffacaa9a75d522b39400f8452818301527fc89efdaa54c0f20c7adf612882df0950f5a951637e0307cdcb4c672f298b8bc660608301524660808301523060a083015260a0825260c0820193828510908511176200020c5783905251902060c052610e1a9081620004e28239608051816107e8015260a05181610c64015260c05181610c8a0152f35b634e487b7160e01b5f52604160045260245ffd5b8691505f8052815f20905f915b858310620002475750506200016393508201015f62000154565b805483880185015286945088939092019181016200022d565b60ff191688526200016395151560051b85010192505f9150620001549050565b015190505f8062000107565b90859350601f19831691845f52875f20925f5b89828210620002d95750508411620002c0575b505050811b0182556200011a565b01515f1960f88460031b161c191690555f8080620002b2565b83850151865589979095019493840193016200029f565b90919250855f52865f208380860160051c8201928987106200033b575b91869589929594930160051c01915b8281106200032c575050620000f2565b5f81558695508891016200031c565b925081926200030d565b015190505f80620000b9565b5f8080528881209350601f198516905b89828210620003a257505090846001959493921062000389575b505050811b015f55620000cd565b01515f1960f88460031b161c191690555f80806200037b565b600185968293968601518155019501930162000361565b9091505f8052865f208480850160051c82019289861062000400575b9085949392910160051c01905b818110620003f15750620000a3565b5f8155849350600101620003e2565b92508192620003d5565b5f80fd5b601f909101601f19168101906001600160401b038211908210176200020c57604052565b919080601f840112156200040a5782516001600160401b0381116200020c57602090604051926200046d83601f19601f85011601856200040e565b8184528282870101116200040a575f5b818110620004925750825f9394955001015290565b85810183015184820184015282016200047d565b90600182811c92168015620004d6575b6020831014620004c257565b634e487b7160e01b5f52602260045260245ffd5b91607f1691620004b656fe6080604081815260049182361015610015575f80fd5b5f3560e01c90816306fdde03146109fe57508063095ea7b31461096457806318160ddd1461092857806323b872dd1461080c578063313ce567146107b15780633644e5151461077057806340c10f19146106a157806370a082311461063f5780637ecebe00146105dd57806395d89b41146104c3578063a9059cbb14610416578063d505accf146101245763dd62ed3e146100ae575f80fd5b3461012057807ffffffffffffffffffffffffffffffffffffffffffffffffffffffffffffffffc360112610120576020916100e7610be1565b6100ef610c04565b9173ffffffffffffffffffffffffffffffffffffffff8092165f528452825f2091165f528252805f20549051908152f35b5f80fd5b50346101205760e07ffffffffffffffffffffffffffffffffffffffffffffffffffffffffffffffffc3601126101205761015c610be1565b90610165610c04565b91604435606435926084359260ff8416809403610120574285106103b95761018b610c61565b9573ffffffffffffffffffffffffffffffffffffffff80921695865f5260209560058752845f209889549960018b01905585519285898501957f6e71edae12b1b97f4d1f60370fef10105fa2faae0126114a169c64845d6126c987528b89870152169a8b606086015288608086015260a085015260c084015260c0835260e0830167ffffffffffffffff948482108683111761038d57818852845190206101008501927f19010000000000000000000000000000000000000000000000000000000000008452610102860152610122850152604281526101608401948186109086111761036157848752519020835261018082015260a4356101a082015260c4356101c0909101525f808052859160809060015afa15610357575f5116958615158061034e575b156102f3577f8c5be1e5ebec7d5bd14f71427d1e84f3dd0314c0f7b2291e5b200ac8c7c3b9259495965f528352805f20865f52835281815f205551908152a3005b8360649251917f08c379a0000000000000000000000000000000000000000000000000000000008352820152600e60248201527f494e56414c49445f5349474e45520000000000000000000000000000000000006044820152fd5b508487146102b2565b50513d5f823e3d90fd5b60418c7f4e487b71000000000000000000000000000000000000000000000000000000005f525260245ffd5b60418d7f4e487b71000000000000000000000000000000000000000000000000000000005f525260245ffd5b60648760208451917f08c379a0000000000000000000000000000000000000000000000000000000008352820152601760248201527f5045524d49545f444541444c494e455f455850495245440000000000000000006044820152fd5b503461012057807ffffffffffffffffffffffffffffffffffffffffffffffffffffffffffffffffc36011261012057602090610450610be1565b73ffffffffffffffffffffffffffffffffffffffff60243591335f5260038552835f2061047e848254610c27565b90551690815f5260038452825f2081815401905582519081527fddf252ad1be2c89b69c2b068fc378daa952ba7f163c4a11628f55a4df523b3ef843392a35160018152f35b5034610120575f7ffffffffffffffffffffffffffffffffffffffffffffffffffffffffffffffffc3601126101205780515f6001805461050281610abe565b8085529160209160018116908115610595575060011461053c575b610538858761052e82880383610b0f565b5191829182610b7d565b0390f35b60015f90815293507fb10e2d527612073b26eecdfd717e6a320cf44b4afac2b0732d9fcbe2b7fa0cf65b8385106105825750505050810160200161052e8261053861051d565b8054868601840152938201938101610566565b6105389795508693506020925061052e9491507fffffffffffffffffffffffffffffffffffffffffffffffffffffffffffffff001682840152151560051b820101929461051d565b50346101205760207ffffffffffffffffffffffffffffffffffffffffffffffffffffffffffffffffc3601126101205760209073ffffffffffffffffffffffffffffffffffffffff61062d610be1565b165f5260058252805f20549051908152f35b50346101205760207ffffffffffffffffffffffffffffffffffffffffffffffffffffffffffffffffc3601126101205760209073ffffffffffffffffffffffffffffffffffffffff61068f610be1565b165f5260038252805f20549051908152f35b50903461012057817ffffffffffffffffffffffffffffffffffffffffffffffffffffffffffffffffc360112610120576106d9610be1565b602435916002549083820180921161074457505f9273ffffffffffffffffffffffffffffffffffffffff7fddf252ad1be2c89b69c2b068fc378daa952ba7f163c4a11628f55a4df523b3ef9360209360025516948585526003835280852082815401905551908152a3005b6011907f4e487b71000000000000000000000000000000000000000000000000000000005f525260245ffd5b5034610120575f7ffffffffffffffffffffffffffffffffffffffffffffffffffffffffffffffffc360112610120576020906107aa610c61565b9051908152f35b5034610120575f7ffffffffffffffffffffffffffffffffffffffffffffffffffffffffffffffffc360112610120576020905160ff7f0000000000000000000000000000000000000000000000000000000000000000168152f35b50346101205760607ffffffffffffffffffffffffffffffffffffffffffffffffffffffffffffffffc36011261012057610844610be1565b9161084d610c04565b927fddf252ad1be2c89b69c2b068fc378daa952ba7f163c4a11628f55a4df523b3ef6044359273ffffffffffffffffffffffffffffffffffffffff80931692835f526020968288938452875f20335f528452875f2054877fffffffffffffffffffffffffffffffffffffffffffffffffffffffffffffffff8203610905575b505050845f5260038352865f206108e4878254610c27565b90551693845f5260038252855f208181540190558551908152a35160018152f35b61090e91610c27565b90865f528452875f20335f528452875f20555f80876108cc565b5034610120575f7ffffffffffffffffffffffffffffffffffffffffffffffffffffffffffffffffc360112610120576020906002549051908152f35b503461012057807ffffffffffffffffffffffffffffffffffffffffffffffffffffffffffffffffc3601126101205760209161099e610be1565b9060243590335f52845273ffffffffffffffffffffffffffffffffffffffff835f20921691825f52845280835f205582519081527f8c5be1e5ebec7d5bd14f71427d1e84f3dd0314c0f7b2291e5b200ac8c7c3b925843392a35160018152f35b905034610120575f7ffffffffffffffffffffffffffffffffffffffffffffffffffffffffffffffffc360112610120575f8054610a3a81610abe565b808452906020906001908181169081156105955750600114610a6757610538858761052e82880383610b0f565b5f80805293507f290decd9548b62a8d60345a988386fc84ba6bc95484008f6362f93160ef3e5635b838510610aab5750505050810160200161052e8261053861051d565b8054868601840152938201938101610a8f565b90600182811c92168015610b05575b6020831014610ad857565b7f4e487b71000000000000000000000000000000000000000000000000000000005f52602260045260245ffd5b91607f1691610acd565b90601f7fffffffffffffffffffffffffffffffffffffffffffffffffffffffffffffffe0910116810190811067ffffffffffffffff821117610b5057604052565b7f4e487b71000000000000000000000000000000000000000000000000000000005f52604160045260245ffd5b6020808252825181830181905293925f5b858110610bcd575050507fffffffffffffffffffffffffffffffffffffffffffffffffffffffffffffffe0601f845f6040809697860101520116010190565b818101830151848201604001528201610b8e565b6004359073ffffffffffffffffffffffffffffffffffffffff8216820361012057565b6024359073ffffffffffffffffffffffffffffffffffffffff8216820361012057565b91908203918211610c3457565b7f4e487b71000000000000000000000000000000000000000000000000000000005f52601160045260245ffd5b467f000000000000000000000000000000000000000000000000000000000000000003610cac577f000000000000000000000000000000000000000000000000000000000000000090565b6040515f905f5490610cbd82610abe565b8082528160209485820194600190876001821691825f14610dd1575050600114610d78575b50610cef92500382610b0f565b51902090604051908101917f8b73c3c69bb8fe3d512ecc4cf759cc79239f7b179b0ffacaa9a75d522b39400f835260408201527fc89efdaa54c0f20c7adf612882df0950f5a951637e0307cdcb4c672f298b8bc660608201524660808201523060a082015260a0815260c0810181811067ffffffffffffffff821117610b505760405251902090565b5f808052879250907f290decd9548b62a8d60345a988386fc84ba6bc95484008f6362f93160ef3e5635b858310610db9575050610cef93508201015f610ce2565b80548388018501528694508893909201918101610da2565b7fffffffffffffffffffffffffffffffffffffffffffffffffffffffffffffff00168852610cef95151560051b85010192505f9150610ce2905056fea164736f6c6343000817000a608060405234620002ec5762001495803803806200001d81620002f0565b928339810190604081830312620002ec5780516001600160401b0390818111620002ec57836200004f91840162000316565b9160209384820151838111620002ec576200006b920162000316565b928251908282116200020a575f54916001948584811c94168015620002e1575b83851014620001eb578190601f948581116200028e575b5083908583116001146200022a575f926200021e575b50505f19600383901b1c191690851b175f555b84519283116200020a5783548481811c91168015620001ff575b82821014620001eb57828111620001a3575b50809183116001146200013f57508192935f9262000133575b50505f19600383901b1c191690821b1790555b60405161110e9081620003878239f35b015190505f8062000110565b90601f19831694845f52825f20925f905b8782106200018b5750508385961062000172575b505050811b01905562000123565b01515f1960f88460031b161c191690555f808062000164565b80878596829496860151815501950193019062000150565b845f52815f208380860160051c820192848710620001e1575b0160051c019085905b828110620001d5575050620000f7565b5f8155018590620001c5565b92508192620001bc565b634e487b7160e01b5f52602260045260245ffd5b90607f1690620000e5565b634e487b7160e01b5f52604160045260245ffd5b015190505f80620000b8565b90879350601f198316915f8052855f20925f5b878282106200027757505084116200025e575b505050811b015f55620000cb565b01515f1960f88460031b161c191690555f808062000250565b8385015186558b979095019493840193016200023d565b9091505f8052835f208580850160051c820192868610620002d7575b918991869594930160051c01915b828110620002c8575050620000a2565b5f8155859450899101620002b8565b92508192620002aa565b93607f16936200008b565b5f80fd5b6040519190601f01601f191682016001600160401b038111838210176200020a57604052565b919080601f84011215620002ec5782516001600160401b0381116200020a576020906200034c601f8201601f19168301620002f0565b92818452828287010111620002ec575f5b818110620003725750825f9394955001015290565b85810183015184820184015282016200035d56fe6080604090808252600480361015610015575f80fd5b5f3560e01c91826301ffc9a714610ba65750816306fdde0314610acb578163081812fc14610a71578163095ea7b31461098057816323b872dd1461096957816340c10f191461083057816342842e0e146107315781636352211e1461066f57816370a08231146105a957816395d89b4114610456578163a22cb4651461038d578163b88d4fde146101c5578163c87b56dd14610137575063e985e9c5146100ba575f80fd5b3461013357807ffffffffffffffffffffffffffffffffffffffffffffffffffffffffffffffffc360112610133576020906100f3610d64565b6100fb610d87565b9073ffffffffffffffffffffffffffffffffffffffff8091165f5260058452825f2091165f52825260ff815f20541690519015158152f35b5f80fd5b82346101335760207ffffffffffffffffffffffffffffffffffffffffffffffffffffffffffffffffc360112610133578051906020820182811067ffffffffffffffff82111761019957610195935081525f82525191829182610d00565b0390f35b6041847f4e487b71000000000000000000000000000000000000000000000000000000005f525260245ffd5b9050346101335760807ffffffffffffffffffffffffffffffffffffffffffffffffffffffffffffffffc360112610133576101fe610d64565b90610207610d87565b6044359067ffffffffffffffff606435818111610133573660238201121561013357808501359182116101335736602483830101116101335761024b848488610ed4565b823b15958615610261575b61025f8761109c565b005b909180939495965073ffffffffffffffffffffffffffffffffffffffff938493895197889687957f150b7a02000000000000000000000000000000000000000000000000000000009b8c885233908801521660248601526044850152606484016080905281608485015260240160a484013780820160a4015f9052601f017fffffffffffffffffffffffffffffffffffffffffffffffffffffffffffffffe01681010360a401921691815a6020945f91f1928315610384575061025f927fffffffff00000000000000000000000000000000000000000000000000000000915f91610355575b5016145f8080808080610256565b610377915060203d60201161037d575b61036f8183610c92565b810190611064565b5f610347565b503d610365565b513d5f823e3d90fd5b823461013357807ffffffffffffffffffffffffffffffffffffffffffffffffffffffffffffffffc360112610133576103c4610d64565b906024359081151580920361013357335f52600560205273ffffffffffffffffffffffffffffffffffffffff815f20931692835f52602052805f207fffffffffffffffffffffffffffffffffffffffffffffffffffffffffffffff0081541660ff8416179055519081527f17307eab39ab6107e8899845ad3d59bd9653f200f220920489ca2b5937696c3160203392a3005b8234610133575f7ffffffffffffffffffffffffffffffffffffffffffffffffffffffffffffffffc360112610133578051905f9260018054908160011c9160018116801561059f575b6020948585108214610573575083875290811561053557506001146104db575b5050506104d182610195940383610c92565b5191829182610d00565b60015f9081529295507fb10e2d527612073b26eecdfd717e6a320cf44b4afac2b0732d9fcbe2b7fa0cf65b8284106105225750505082610195946104d192820101946104bf565b8054868501880152928601928101610506565b7fffffffffffffffffffffffffffffffffffffffffffffffffffffffffffffff0016868501525050151560051b83010192506104d1826101956104bf565b6022907f4e487b71000000000000000000000000000000000000000000000000000000005f525260245ffd5b92607f169261049f565b82346101335760207ffffffffffffffffffffffffffffffffffffffffffffffffffffffffffffffffc3601126101335773ffffffffffffffffffffffffffffffffffffffff6105f6610d64565b16801561061257602092505f5260038252805f20549051908152f35b60648360208451917f08c379a0000000000000000000000000000000000000000000000000000000008352820152600c60248201527f5a45524f5f4144445245535300000000000000000000000000000000000000006044820152fd5b9050346101335760207ffffffffffffffffffffffffffffffffffffffffffffffffffffffffffffffffc3601126101335780355f52600260205273ffffffffffffffffffffffffffffffffffffffff825f2054169081156106d4575060209151908152f35b60649060208451917f08c379a0000000000000000000000000000000000000000000000000000000008352820152600a60248201527f4e4f545f4d494e544544000000000000000000000000000000000000000000006044820152fd5b9050346101335761074136610daa565b9061074f8282859695610ed4565b803b15938415610763575b61025f8561109c565b60209293945060a4905f73ffffffffffffffffffffffffffffffffffffffff8094895197889687957f150b7a02000000000000000000000000000000000000000000000000000000009b8c88523390880152166024860152604485015260806064850152826084850152165af1928315610384575061025f927fffffffff00000000000000000000000000000000000000000000000000000000915f91610811575b5016145f80808061075a565b61082a915060203d60201161037d5761036f8183610c92565b5f610805565b823461013357807ffffffffffffffffffffffffffffffffffffffffffffffffffffffffffffffffc36011261013357610867610d64565b906024359273ffffffffffffffffffffffffffffffffffffffff80931692610890841515610e6f565b845f526002602052825f20541661090d5750815f526003602052805f2060018154019055825f5260026020525f20817fffffffffffffffffffffffff00000000000000000000000000000000000000008254161790555f7fddf252ad1be2c89b69c2b068fc378daa952ba7f163c4a11628f55a4df523b3ef8180a4005b602060649251917f08c379a0000000000000000000000000000000000000000000000000000000008352820152600e60248201527f414c52454144595f4d494e5445440000000000000000000000000000000000006044820152fd5b346101335761025f61097a36610daa565b91610ed4565b90503461013357817ffffffffffffffffffffffffffffffffffffffffffffffffffffffffffffffffc360112610133576109b8610d64565b9060243592835f52600260205273ffffffffffffffffffffffffffffffffffffffff9081815f205416928333148015610a4e575b6109f590610e0a565b855f526020525f20921691827fffffffffffffffffffffffff00000000000000000000000000000000000000008254161790557f8c5be1e5ebec7d5bd14f71427d1e84f3dd0314c0f7b2291e5b200ac8c7c3b9255f80a4005b50835f526005602052815f20335f526020526109f560ff835f20541690506109ec565b82346101335760207ffffffffffffffffffffffffffffffffffffffffffffffffffffffffffffffffc3601126101335781602092355f52825273ffffffffffffffffffffffffffffffffffffffff815f2054169051908152f35b8234610133575f7ffffffffffffffffffffffffffffffffffffffffffffffffffffffffffffffffc360112610133578051905f925f5460018160011c91600181168015610b9c575b602094858510821461057357508387529081156105355750600114610b44575050506104d182610195940383610c92565b5f8080529295507f290decd9548b62a8d60345a988386fc84ba6bc95484008f6362f93160ef3e5635b828410610b895750505082610195946104d192820101946104bf565b8054868501880152928601928101610b6d565b92607f1692610b13565b90346101335760207ffffffffffffffffffffffffffffffffffffffffffffffffffffffffffffffffc3601126101335735907fffffffff00000000000000000000000000000000000000000000000000000000821680920361013357817f01ffc9a70000000000000000000000000000000000000000000000000000000060209314908115610c68575b8115610c3e575b5015158152f35b7f5b5e139f0000000000000000000000000000000000000000000000000000000091501483610c37565b7f80ac58cd0000000000000000000000000000000000000000000000000000000081149150610c30565b90601f7fffffffffffffffffffffffffffffffffffffffffffffffffffffffffffffffe0910116810190811067ffffffffffffffff821117610cd357604052565b7f4e487b71000000000000000000000000000000000000000000000000000000005f52604160045260245ffd5b6020808252825181830181905293925f5b858110610d50575050507fffffffffffffffffffffffffffffffffffffffffffffffffffffffffffffffe0601f845f6040809697860101520116010190565b818101830151848201604001528201610d11565b6004359073ffffffffffffffffffffffffffffffffffffffff8216820361013357565b6024359073ffffffffffffffffffffffffffffffffffffffff8216820361013357565b7ffffffffffffffffffffffffffffffffffffffffffffffffffffffffffffffffc60609101126101335773ffffffffffffffffffffffffffffffffffffffff90600435828116810361013357916024359081168103610133579060443590565b15610e1157565b60646040517f08c379a000000000000000000000000000000000000000000000000000000000815260206004820152600e60248201527f4e4f545f415554484f52495a45440000000000000000000000000000000000006044820152fd5b15610e7657565b60646040517f08c379a000000000000000000000000000000000000000000000000000000000815260206004820152601160248201527f494e56414c49445f524543495049454e540000000000000000000000000000006044820152fd5b825f5260206002815273ffffffffffffffffffffffffffffffffffffffff926040908480835f20541694169384036110075784610f30911694610f18861515610e6f565b843314908115610fe9575b8115610fd3575b50610e0a565b825f5260038252805f207fffffffffffffffffffffffffffffffffffffffffffffffffffffffffffffffff8154019055835f52805f2060018154019055845f52600282526004815f20927fffffffffffffffffffffffff0000000000000000000000000000000000000000938685825416179055525f209081541690557fddf252ad1be2c89b69c2b068fc378daa952ba7f163c4a11628f55a4df523b3ef5f80a4565b9050865f5260048452825f20541633145f610f2a565b9050845f5260058452825f20335f52845260ff835f20541690610f23565b6064838351907f08c379a00000000000000000000000000000000000000000000000000000000082526004820152600a60248201527f57524f4e475f46524f4d000000000000000000000000000000000000000000006044820152fd5b9081602091031261013357517fffffffff00000000000000000000000000000000000000000000000000000000811681036101335790565b156110a357565b60646040517f08c379a000000000000000000000000000000000000000000000000000000000815260206004820152601060248201527f554e534146455f524543495049454e54000000000000000000000000000000006044820152fdfea164736f6c6343000817000aa164736f6c6343000817000a","linkReferences":{}},"methodIdentifiers":{"MINT_AMOUNT_ERC1155()":"e48c323e","MINT_AMOUNT_ERC20()":"1b210293","TRANSFER_AMOUNT_ERC1155()":"30f1f027","TRANSFER_AMOUNT_ERC20()":"f5c3db8a","initializeERC20Tokens()":"e2acb0f8","initializeNFTTokens()":"628d9070","setERC20TestTokenApprovals(address,address,address)":"035c3deb","setERC20TestTokens(address)":"e6d9ff3d","setNFTTestTokenApprovals(address,address,address)":"ae6c97f8","setNFTTestTokens(address)":"c4d5df15"},"id":59}