{"abi":[{"type":"constructor","inputs":[],"stateMutability":"nonpayable"},{"type":"function","name":"balanceOf","inputs":[{"name":"","type":"address","internalType":"address"},{"name":"","type":"uint256","internalType":"uint256"}],"outputs":[{"name":"","type":"uint256","internalType":"uint256"}],"stateMutability":"view"},{"type":"function","name":"balanceOfBatch","inputs":[{"name":"owners","type":"address[]","internalType":"address[]"},{"name":"ids","type":"uint256[]","internalType":"uint256[]"}],"outputs":[{"name":"balances","type":"uint256[]","internalType":"uint256[]"}],"stateMutability":"view"},{"type":"function","name":"isApprovedForAll","inputs":[{"name":"","type":"address","internalType":"address"},{"name":"","type":"address","internalType":"address"}],"outputs":[{"name":"","type":"bool","internalType":"bool"}],"stateMutability":"view"},{"type":"function","name":"mint","inputs":[{"name":"to","type":"address","internalType":"address"},{"name":"id","type":"uint256","internalType":"uint256"},{"name":"amount","type":"uint256","internalType":"uint256"}],"outputs":[],"stateMutability":"nonpayable"},{"type":"function","name":"safeBatchTransferFrom","inputs":[{"name":"from","type":"address","internalType":"address"},{"name":"to","type":"address","internalType":"address"},{"name":"ids","type":"uint256[]","internalType":"uint256[]"},{"name":"amounts","type":"uint256[]","internalType":"uint256[]"},{"name":"data","type":"bytes","internalType":"bytes"}],"outputs":[],"stateMutability":"nonpayable"},{"type":"function","name":"safeTransferFrom","inputs":[{"name":"from","type":"address","internalType":"address"},{"name":"to","type":"address","internalType":"address"},{"name":"id","type":"uint256","internalType":"uint256"},{"name":"amount","type":"uint256","internalType":"uint256"},{"name":"data","type":"bytes","internalType":"bytes"}],"outputs":[],"stateMutability":"nonpayable"},{"type":"function","name":"setApprovalForAll","inputs":[{"name":"operator","type":"address","internalType":"address"},{"name":"approved","type":"bool","internalType":"bool"}],"outputs":[],"stateMutability":"nonpayable"},{"type":"function","name":"supportsInterface","inputs":[{"name":"interfaceId","type":"bytes4","internalType":"bytes4"}],"outputs":[{"name":"","type":"bool","internalType":"bool"}],"stateMutability":"view"},{"type":"function","name":"uri","inputs":[{"name":"","type":"uint256","internalType":"uint256"}],"outputs":[{"name":"","type":"string","internalType":"string"}],"stateMutability":"view"},{"type":"event","name":"ApprovalForAll","inputs":[{"name":"owner","type":"address","indexed":true,"internalType":"address"},{"name":"operator","type":"address","indexed":true,"internalType":"address"},{"name":"approved","type":"bool","indexed":false,"internalType":"bool"}],"anonymous":false},{"type":"event","name":"TransferBatch","inputs":[{"name":"operator","type":"address","indexed":true,"internalType":"address"},{"name":"from","type":"address","indexed":true,"internalType":"address"},{"name":"to","type":"address","indexed":true,"internalType":"address"},{"name":"ids","type":"uint256[]","indexed":false,"internalType":"uint256[]"},{"name":"amounts","type":"uint256[]","indexed":false,"internalType":"uint256[]"}],"anonymous":false},{"type":"event","name":"TransferSingle","inputs":[{"name":"operator","type":"address","indexed":true,"internalType":"address"},{"name":"from","type":"address","indexed":true,"internalType":"address"},{"name":"to","type":"address","indexed":true,"internalType":"address"},{"name":"id","type":"uint256","indexed":false,"internalType":"uint256"},{"name":"amount","type":"uint256","indexed":false,"internalType":"uint256"}],"anonymous":false},{"type":"event","name":"URI","inputs":[{"name":"value","type":"string","indexed":false,"internalType":"string"},{"name":"id","type":"uint256","indexed":true,"internalType":"uint256"}],"anonymous":false}],"bytecode":{"object":"0x6080806040523461001657610f2b908161001b8239f35b5f80fdfe608060409080825260049081361015610016575f80fd5b5f3560e01c908162fdd58e14610aae5750806301ffc9a7146109c15780630e89341c14610969578063156e29f61461083c5780632eb2c2d61461058c5780634e1273f4146103e5578063a22cb4651461031c578063e985e9c5146102a25763f242432a14610082575f80fd5b3461029e5760a07ffffffffffffffffffffffffffffffffffffffffffffffffffffffffffffffffc36011261029e576100b9610b15565b906100c2610b38565b916044359060643560843567ffffffffffffffff811161029e576100e99036908601610be8565b939073ffffffffffffffffffffffffffffffffffffffff80941690813314801561027b575b61011790610d05565b815f526020945f8652895f20845f528652895f20610136868254610da7565b9055881697885f525f8652895f20845f528652895f20610157868254610de1565b905588838b5186815287898201527fc3d58168c5ae7397731d063d5bbf3d657854427343f4c083240f7aacaa2d0f628d3392a43b6101a457505050505050506101a291501515610ea1565b005b8495969792916102025f928b51998a97889687957ff23a6e61000000000000000000000000000000000000000000000000000000009e8f8852339088015260248701526044860152606485015260a0608485015260a4840191610e63565b03925af19384156102725750927fffffffff00000000000000000000000000000000000000000000000000000000916101a2945f92610245575b50501614610ea1565b6102649250803d1061026b575b61025c8183610c5f565b810190610e2b565b5f8061023c565b503d610252565b513d5f823e3d90fd5b50815f526001602052885f20335f5260205261011760ff8a5f205416905061010e565b5f80fd5b823461029e57807ffffffffffffffffffffffffffffffffffffffffffffffffffffffffffffffffc36011261029e576020906102dc610b15565b6102e4610b38565b9073ffffffffffffffffffffffffffffffffffffffff8091165f5260018452825f2091165f52825260ff815f20541690519015158152f35b823461029e57807ffffffffffffffffffffffffffffffffffffffffffffffffffffffffffffffffc36011261029e57610353610b15565b906024359081151580920361029e57335f52600160205273ffffffffffffffffffffffffffffffffffffffff815f20931692835f52602052805f207fffffffffffffffffffffffffffffffffffffffffffffffffffffffffffffff0081541660ff8416179055519081527f17307eab39ab6107e8899845ad3d59bd9653f200f220920489ca2b5937696c3160203392a3005b503461029e57817ffffffffffffffffffffffffffffffffffffffffffffffffffffffffffffffffc36011261029e5767ffffffffffffffff90803582811161029e576104349036908301610bb7565b909260249060243590811161029e57610454909594939536908701610bb7565b939095610462858514610ca0565b61046b84610f06565b9661047887519889610c5f565b84885261048485610f06565b956020957fffffffffffffffffffffffffffffffffffffffffffffffffffffffffffffffe0878b0198013689375f5b8181106104f85789518881528b51818a018190528190818d01908c908c5f5b8281106104e157505050500390f35b8351855286955093810193928101926001016104d2565b6105078183889d9b9c9d610d6a565b3573ffffffffffffffffffffffffffffffffffffffff811680910361029e575f525f88528a5f20610539828587610d6a565b355f5288528a5f2054895182101561056157600582901b8a01890152979998976001016104b3565b876032877f4e487b71000000000000000000000000000000000000000000000000000000005f52525ffd5b503461029e577ffffffffffffffffffffffffffffffffffffffffffffffffffffffffffffffffc9060a08236011261029e576105c6610b15565b916105cf610b38565b67ffffffffffffffff9060443582811161029e576105f09036908601610bb7565b92909360643582811161029e5761060a9036908801610bb7565b9260843590811161029e576106229036908901610be8565b919093610630818814610ca0565b73ffffffffffffffffffffffffffffffffffffffff809a16958633148015610819575b899b61065f8a92610d05565b8d5f9184169d8e915b8484106107b75791938b93507f4a39dc06d4c0dbc64b70af90fd698a233a518aa5d07e595d983b8c0526c8f7fb916106a891845194808652850191610dee565b918083036020820152806106be3394898b610dee565b0390a43b6106db575050505050505050506101a291501515610ea1565b8a999798995198899788977fbc197c81000000000000000000000000000000000000000000000000000000009c8d8a5233908a015260248901526044880160a0905260a488019061072b92610dee565b908487830301606488015261073f92610dee565b9184830301608485015261075292610e63565b03815a6020945f91f192831561027257506101a2927fffffffff00000000000000000000000000000000000000000000000000000000915f91610798575b501614610ea1565b6107b1915060203d60201161026b5761025c8183610c5f565b5f610790565b6107c78460019661080c94610d6a565b356107d385898b610d6a565b35938d5f526020905f8252835f20835f528252835f206107f4878254610da7565b90555f525f8152825f20915f52525f20918254610de1565b90550188908c8b8f610668565b50865f5260016020528b5f20335f5260205261065f60ff8d5f2054169050610653565b503461029e5760607ffffffffffffffffffffffffffffffffffffffffffffffffffffffffffffffffc36011261029e57610874610b15565b906024359160443584519061088882610c16565b5f825273ffffffffffffffffffffffffffffffffffffffff831694855f526020935f8552875f20825f528552875f206108c2848254610de1565b9055865f895184815285888201527fc3d58168c5ae7397731d063d5bbf3d657854427343f4c083240f7aacaa2d0f628b3392a43b61090b5750505050506101a291501515610ea1565b948392915f61020296978951978895869485937ff23a6e61000000000000000000000000000000000000000000000000000000009c8d865233908601528560248601526044850152606484015260a0608484015260a4830190610b5b565b823461029e5760207ffffffffffffffffffffffffffffffffffffffffffffffffffffffffffffffffc36011261029e5780516109bd916109a882610c16565b5f825251918291602083526020830190610b5b565b0390f35b503461029e5760207ffffffffffffffffffffffffffffffffffffffffffffffffffffffffffffffffc36011261029e57357fffffffff00000000000000000000000000000000000000000000000000000000811680910361029e576020917f01ffc9a7000000000000000000000000000000000000000000000000000000008214918215610a84575b8215610a5a575b50519015158152f35b7f0e89341c000000000000000000000000000000000000000000000000000000001491505f610a51565b7fd9b67a260000000000000000000000000000000000000000000000000000000081149250610a4a565b83903461029e57817ffffffffffffffffffffffffffffffffffffffffffffffffffffffffffffffffc36011261029e5760209173ffffffffffffffffffffffffffffffffffffffff610afe610b15565b165f525f8352805f206024355f5283525f20548152f35b6004359073ffffffffffffffffffffffffffffffffffffffff8216820361029e57565b6024359073ffffffffffffffffffffffffffffffffffffffff8216820361029e57565b91908251928382525f5b848110610ba35750507fffffffffffffffffffffffffffffffffffffffffffffffffffffffffffffffe0601f845f6020809697860101520116010190565b602081830181015184830182015201610b65565b9181601f8401121561029e5782359167ffffffffffffffff831161029e576020808501948460051b01011161029e57565b9181601f8401121561029e5782359167ffffffffffffffff831161029e576020838186019501011161029e57565b6020810190811067ffffffffffffffff821117610c3257604052565b7f4e487b71000000000000000000000000000000000000000000000000000000005f52604160045260245ffd5b90601f7fffffffffffffffffffffffffffffffffffffffffffffffffffffffffffffffe0910116810190811067ffffffffffffffff821117610c3257604052565b15610ca757565b60646040517f08c379a000000000000000000000000000000000000000000000000000000000815260206004820152600f60248201527f4c454e4754485f4d49534d4154434800000000000000000000000000000000006044820152fd5b15610d0c57565b60646040517f08c379a000000000000000000000000000000000000000000000000000000000815260206004820152600e60248201527f4e4f545f415554484f52495a45440000000000000000000000000000000000006044820152fd5b9190811015610d7a5760051b0190565b7f4e487b71000000000000000000000000000000000000000000000000000000005f52603260045260245ffd5b91908203918211610db457565b7f4e487b71000000000000000000000000000000000000000000000000000000005f52601160045260245ffd5b91908201809211610db457565b90918281527f07ffffffffffffffffffffffffffffffffffffffffffffffffffffffffffffff831161029e5760209260051b809284830137010190565b9081602091031261029e57517fffffffff000000000000000000000000000000000000000000000000000000008116810361029e5790565b601f82602094937fffffffffffffffffffffffffffffffffffffffffffffffffffffffffffffffe093818652868601375f8582860101520116010190565b15610ea857565b60646040517f08c379a000000000000000000000000000000000000000000000000000000000815260206004820152601060248201527f554e534146455f524543495049454e54000000000000000000000000000000006044820152fd5b67ffffffffffffffff8111610c325760051b6020019056fea164736f6c6343000817000a","linkReferences":{}},"methodIdentifiers":{"balanceOf(address,uint256)":"00fdd58e","balanceOfBatch(address[],uint256[])":"4e1273f4","isApprovedForAll(address,address)":"e985e9c5","mint(address,uint256,uint256)":"156e29f6","safeBatchTransferFrom(address,address,uint256[],uint256[],bytes)":"2eb2c2d6","safeTransferFrom(address,address,uint256,uint256,bytes)":"f242432a","setApprovalForAll(address,bool)":"a22cb465","supportsInterface(bytes4)":"01ffc9a7","uri(uint256)":"0e89341c"},"id":42}