{"abi":[{"type":"constructor","inputs":[{"name":"_name","type":"string","internalType":"string"},{"name":"_symbol","type":"string","internalType":"string"},{"name":"_decimals","type":"uint8","internalType":"uint8"}],"stateMutability":"nonpayable"},{"type":"function","name":"DOMAIN_SEPARATOR","inputs":[],"outputs":[{"name":"","type":"bytes32","internalType":"bytes32"}],"stateMutability":"pure"},{"type":"function","name":"allowance","inputs":[{"name":"","type":"address","internalType":"address"},{"name":"","type":"address","internalType":"address"}],"outputs":[{"name":"","type":"uint256","internalType":"uint256"}],"stateMutability":"view"},{"type":"function","name":"approve","inputs":[{"name":"spender","type":"address","internalType":"address"},{"name":"amount","type":"uint256","internalType":"uint256"}],"outputs":[{"name":"","type":"bool","internalType":"bool"}],"stateMutability":"nonpayable"},{"type":"function","name":"balanceOf","inputs":[{"name":"","type":"address","internalType":"address"}],"outputs":[{"name":"","type":"uint256","internalType":"uint256"}],"stateMutability":"view"},{"type":"function","name":"burn","inputs":[{"name":"from","type":"address","internalType":"address"},{"name":"value","type":"uint256","internalType":"uint256"}],"outputs":[],"stateMutability":"nonpayable"},{"type":"function","name":"decimals","inputs":[],"outputs":[{"name":"","type":"uint8","internalType":"uint8"}],"stateMutability":"view"},{"type":"function","name":"mint","inputs":[{"name":"to","type":"address","internalType":"address"},{"name":"value","type":"uint256","internalType":"uint256"}],"outputs":[],"stateMutability":"nonpayable"},{"type":"function","name":"name","inputs":[],"outputs":[{"name":"","type":"string","internalType":"string"}],"stateMutability":"view"},{"type":"function","name":"nonces","inputs":[{"name":"","type":"address","internalType":"address"}],"outputs":[{"name":"","type":"uint256","internalType":"uint256"}],"stateMutability":"view"},{"type":"function","name":"permit","inputs":[{"name":"owner","type":"address","internalType":"address"},{"name":"spender","type":"address","internalType":"address"},{"name":"value","type":"uint256","internalType":"uint256"},{"name":"deadline","type":"uint256","internalType":"uint256"},{"name":"v","type":"uint8","internalType":"uint8"},{"name":"r","type":"bytes32","internalType":"bytes32"},{"name":"s","type":"bytes32","internalType":"bytes32"}],"outputs":[],"stateMutability":"nonpayable"},{"type":"function","name":"symbol","inputs":[],"outputs":[{"name":"","type":"string","internalType":"string"}],"stateMutability":"view"},{"type":"function","name":"totalSupply","inputs":[],"outputs":[{"name":"","type":"uint256","internalType":"uint256"}],"stateMutability":"view"},{"type":"function","name":"transfer","inputs":[{"name":"to","type":"address","internalType":"address"},{"name":"amount","type":"uint256","internalType":"uint256"}],"outputs":[{"name":"","type":"bool","internalType":"bool"}],"stateMutability":"nonpayable"},{"type":"function","name":"transferFrom","inputs":[{"name":"from","type":"address","internalType":"address"},{"name":"to","type":"address","internalType":"address"},{"name":"amount","type":"uint256","internalType":"uint256"}],"outputs":[{"name":"","type":"bool","internalType":"bool"}],"stateMutability":"nonpayable"},{"type":"event","name":"Approval","inputs":[{"name":"owner","type":"address","indexed":true,"internalType":"address"},{"name":"spender","type":"address","indexed":true,"internalType":"address"},{"name":"amount","type":"uint256","indexed":false,"internalType":"uint256"}],"anonymous":false},{"type":"event","name":"Transfer","inputs":[{"name":"from","type":"address","indexed":true,"internalType":"address"},{"name":"to","type":"address","indexed":true,"internalType":"address"},{"name":"amount","type":"uint256","indexed":false,"internalType":"uint256"}],"anonymous":false}],"bytecode":{"object":"0x60e0604081815234620004045762001122803803809162000021828662000408565b84398201606083820312620004045782516001600160401b039390848111620004045782620000529183016200042c565b6020928383015186811162000404578591620000709185016200042c565b9201519060ff8216820362000404578051868111620002065780620000965f54620004a0565b92601f93848111620003b3575b5086908483116001146200034b575f926200033f575b50508160011b915f199060031b1c1916175f555b82519086821162000206578190600194620000e98654620004a0565b828111620002ea575b508691831160011462000286575f926200027a575b50505f19600383901b1c191690831b1782555b6080524660a05282515f91815f54936200013485620004a0565b92838352868301958782821691825f146200025a5750506001146200021a575b50620001639250038262000408565b519020918051918201927f8b73c3c69bb8fe3d512ecc4cf759cc79239f7b179b0ffacaa9a75d522b39400f8452818301527fc89efdaa54c0f20c7adf612882df0950f5a951637e0307cdcb4c672f298b8bc660608301524660808301523060a083015260a0825260c082019382851090851117620002065783905251902060c052610c469081620004dc82396080518161067c015260a05181505060c051815050f35b634e487b7160e01b5f52604160045260245ffd5b8691505f8052815f20905f915b858310620002415750506200016393508201015f62000154565b8054838801850152869450889390920191810162000227565b60ff191688526200016395151560051b85010192505f9150620001549050565b015190505f8062000107565b90859350601f19831691845f52875f20925f5b89828210620002d35750508411620002ba575b505050811b0182556200011a565b01515f1960f88460031b161c191690555f8080620002ac565b838501518655899790950194938401930162000299565b90919250855f52865f208380860160051c82019289871062000335575b91869589929594930160051c01915b82811062000326575050620000f2565b5f815586955088910162000316565b9250819262000307565b015190505f80620000b9565b5f8080528881209350601f198516905b898282106200039c57505090846001959493921062000383575b505050811b015f55620000cd565b01515f1960f88460031b161c191690555f808062000375565b60018596829396860151815501950193016200035b565b9091505f8052865f208480850160051c820192898610620003fa575b9085949392910160051c01905b818110620003eb5750620000a3565b5f8155849350600101620003dc565b92508192620003cf565b5f80fd5b601f909101601f19168101906001600160401b038211908210176200020657604052565b919080601f84011215620004045782516001600160401b0381116200020657602090604051926200046783601f19601f850116018562000408565b81845282828701011162000404575f5b8181106200048c5750825f9394955001015290565b858101830151848201840152820162000477565b90600182811c92168015620004d0575b6020831014620004bc57565b634e487b7160e01b5f52602260045260245ffd5b91607f1691620004b056fe60806040526004361015610011575f80fd5b5f3560e01c806306fdde03146100f4578063095ea7b3146100ef57806318160ddd146100ea57806323b872dd146100e5578063313ce567146100e05780633644e515146100db57806340c10f19146100d657806370a08231146100d15780637ecebe00146100cc57806395d89b41146100c75780639dc29fac146100c2578063a9059cbb146100bd578063d505accf146100b85763dd62ed3e146100b3575f80fd5b610b6e565b610a94565b6109de565b61093b565b61085c565b6107f9565b610796565b6106f4565b6106a0565b610645565b610465565b61042a565b61036c565b6101cb565b90601f7fffffffffffffffffffffffffffffffffffffffffffffffffffffffffffffffe0910116810190811067ffffffffffffffff82111761013a57604052565b7f4e487b71000000000000000000000000000000000000000000000000000000005f52604160045260245ffd5b6020808252825181830181905293925f5b8581106101b7575050507fffffffffffffffffffffffffffffffffffffffffffffffffffffffffffffffe0601f845f6040809697860101520116010190565b818101830151848201604001528201610178565b34610322575f7ffffffffffffffffffffffffffffffffffffffffffffffffffffffffffffffffc360112610322576040515f805460018160011c9160018116918215610318575b6020916020851084146102eb5784875260208701939081156102ae5750600114610257575b61025386610247818803826100f9565b60405191829182610167565b0390f35b5f80805294509192917f290decd9548b62a8d60345a988386fc84ba6bc95484008f6362f93160ef3e5635b83861061029d5750505091019050610247826102535f610237565b805485870152948201948101610282565b7fffffffffffffffffffffffffffffffffffffffffffffffffffffffffffffff0016845250505090151560051b019050610247826102535f610237565b7f4e487b71000000000000000000000000000000000000000000000000000000005f52602260045260245ffd5b92607f1692610212565b5f80fd5b6004359073ffffffffffffffffffffffffffffffffffffffff8216820361032257565b6024359073ffffffffffffffffffffffffffffffffffffffff8216820361032257565b346103225760407ffffffffffffffffffffffffffffffffffffffffffffffffffffffffffffffffc360112610322576103a3610326565b73ffffffffffffffffffffffffffffffffffffffff60243591335f526004602052826103f08260405f209073ffffffffffffffffffffffffffffffffffffffff165f5260205260405f2090565b5560405192835216907f8c5be1e5ebec7d5bd14f71427d1e84f3dd0314c0f7b2291e5b200ac8c7c3b92560203392a3602060405160018152f35b34610322575f7ffffffffffffffffffffffffffffffffffffffffffffffffffffffffffffffffc360112610322576020600254604051908152f35b346103225760607ffffffffffffffffffffffffffffffffffffffffffffffffffffffffffffffffc3601126103225761049c610326565b6104a4610349565b6044359173ffffffffffffffffffffffffffffffffffffffff80821692835f5260046020526104f360405f203373ffffffffffffffffffffffffffffffffffffffff165f5260205260405f2090565b547fffffffffffffffffffffffffffffffffffffffffffffffffffffffffffffffff81036105b9575b506105667fddf252ad1be2c89b69c2b068fc378daa952ba7f163c4a11628f55a4df523b3ef9373ffffffffffffffffffffffffffffffffffffffff165f52600360205260405f2090565b610571868254610c2c565b905561059b8173ffffffffffffffffffffffffffffffffffffffff165f52600360205260405f2090565b8054860190556040519485521692602090a360405160018152602090f35b858103908111610640577fddf252ad1be2c89b69c2b068fc378daa952ba7f163c4a11628f55a4df523b3ef9361056691610638336106158473ffffffffffffffffffffffffffffffffffffffff165f52600460205260405f2090565b9073ffffffffffffffffffffffffffffffffffffffff165f5260205260405f2090565b55935061051c565b610bff565b34610322575f7ffffffffffffffffffffffffffffffffffffffffffffffffffffffffffffffffc36011261032257602060405160ff7f0000000000000000000000000000000000000000000000000000000000000000168152f35b34610322575f7ffffffffffffffffffffffffffffffffffffffffffffffffffffffffffffffffc360112610322576cbbbbbbbbbbbbbbbbbbbbbbbbbb5f526caaaaaaaaaaaaaaaaaaaaaaaaaa60205260405ff35b346103225760407ffffffffffffffffffffffffffffffffffffffffffffffffffffffffffffffffc3601126103225761072b610326565b6024359060025482810180911161064057602073ffffffffffffffffffffffffffffffffffffffff5f937fddf252ad1be2c89b69c2b068fc378daa952ba7f163c4a11628f55a4df523b3ef9360025516938484526003825260408420818154019055604051908152a3005b346103225760207ffffffffffffffffffffffffffffffffffffffffffffffffffffffffffffffffc3601126103225773ffffffffffffffffffffffffffffffffffffffff6107e2610326565b165f526003602052602060405f2054604051908152f35b346103225760207ffffffffffffffffffffffffffffffffffffffffffffffffffffffffffffffffc3601126103225773ffffffffffffffffffffffffffffffffffffffff610845610326565b165f526005602052602060405f2054604051908152f35b34610322575f7ffffffffffffffffffffffffffffffffffffffffffffffffffffffffffffffffc360112610322576040515f60018054908160011c9160018116918215610931575b6020916020851084146102eb5784875260208701939081156102ae57506001146108d85761025386610247818803826100f9565b60015f90815294509192917fb10e2d527612073b26eecdfd717e6a320cf44b4afac2b0732d9fcbe2b7fa0cf65b8386106109205750505091019050610247826102535f610237565b805485870152948201948101610905565b92607f16926108a4565b346103225760407ffffffffffffffffffffffffffffffffffffffffffffffffffffffffffffffffc36011261032257610972610326565b73ffffffffffffffffffffffffffffffffffffffff6024359116805f52600360205260405f20805490838203918211610640575f937fddf252ad1be2c89b69c2b068fc378daa952ba7f163c4a11628f55a4df523b3ef92602092558060025403600255604051908152a3005b346103225760407ffffffffffffffffffffffffffffffffffffffffffffffffffffffffffffffffc36011261032257610a15610326565b60243590335f52600360205260405f209081548381039081116106405773ffffffffffffffffffffffffffffffffffffffff92551690815f52600360205260405f208181540190556040519081527fddf252ad1be2c89b69c2b068fc378daa952ba7f163c4a11628f55a4df523b3ef60203392a3602060405160018152f35b346103225760e07ffffffffffffffffffffffffffffffffffffffffffffffffffffffffffffffffc36011261032257610acb610326565b50610ad4610349565b5060843560ff811603610322574260643510610b10576cbbbbbbbbbbbbbbbbbbbbbbbbbb5f526caaaaaaaaaaaaaaaaaaaaaaaaaa60205260405ff35b60646040517f08c379a000000000000000000000000000000000000000000000000000000000815260206004820152601760248201527f5045524d49545f444541444c494e455f455850495245440000000000000000006044820152fd5b346103225760407ffffffffffffffffffffffffffffffffffffffffffffffffffffffffffffffffc360112610322576020610bf6610baa610326565b73ffffffffffffffffffffffffffffffffffffffff610bc7610349565b91165f526004835260405f209073ffffffffffffffffffffffffffffffffffffffff165f5260205260405f2090565b54604051908152f35b7f4e487b71000000000000000000000000000000000000000000000000000000005f52601160045260245ffd5b919082039182116106405756fea164736f6c6343000817000a","linkReferences":{}},"methodIdentifiers":{"DOMAIN_SEPARATOR()":"3644e515","allowance(address,address)":"dd62ed3e","approve(address,uint256)":"095ea7b3","balanceOf(address)":"70a08231","burn(address,uint256)":"9dc29fac","decimals()":"313ce567","mint(address,uint256)":"40c10f19","name()":"06fdde03","nonces(address)":"7ecebe00","permit(address,address,uint256,uint256,uint8,bytes32,bytes32)":"d505accf","symbol()":"95d89b41","totalSupply()":"18160ddd","transfer(address,uint256)":"a9059cbb","transferFrom(address,address,uint256)":"23b872dd"},"id":51}