{"abi":[{"type":"constructor","inputs":[{"name":"_permit2","type":"address","internalType":"contract Permit2"},{"name":"_token","type":"address","internalType":"contract MockERC20"},{"name":"_privateKey","type":"uint256","internalType":"uint256"}],"stateMutability":"nonpayable"},{"type":"function","name":"_PERMIT_BATCH_TRANSFER_FROM_TYPEHASH","inputs":[],"outputs":[{"name":"","type":"bytes32","internalType":"bytes32"}],"stateMutability":"view"},{"type":"function","name":"_PERMIT_BATCH_TYPEHASH","inputs":[],"outputs":[{"name":"","type":"bytes32","internalType":"bytes32"}],"stateMutability":"view"},{"type":"function","name":"_PERMIT_DETAILS_TYPEHASH","inputs":[],"outputs":[{"name":"","type":"bytes32","internalType":"bytes32"}],"stateMutability":"view"},{"type":"function","name":"_PERMIT_SINGLE_TYPEHASH","inputs":[],"outputs":[{"name":"","type":"bytes32","internalType":"bytes32"}],"stateMutability":"view"},{"type":"function","name":"_PERMIT_TRANSFER_FROM_TYPEHASH","inputs":[],"outputs":[{"name":"","type":"bytes32","internalType":"bytes32"}],"stateMutability":"view"},{"type":"function","name":"_TOKEN_PERMISSIONS_TYPEHASH","inputs":[],"outputs":[{"name":"","type":"bytes32","internalType":"bytes32"}],"stateMutability":"view"},{"type":"function","name":"amountPermitted","inputs":[],"outputs":[{"name":"","type":"uint256","internalType":"uint256"}],"stateMutability":"view"},{"type":"function","name":"approve","inputs":[{"name":"amount","type":"uint128","internalType":"uint128"},{"name":"spender","type":"address","internalType":"address"}],"outputs":[],"stateMutability":"nonpayable"},{"type":"function","name":"createPermit","inputs":[{"name":"amount","type":"uint128","internalType":"uint128"},{"name":"spender","type":"address","internalType":"address"}],"outputs":[{"name":"permit","type":"tuple","internalType":"struct IAllowanceTransfer.PermitSingle","components":[{"name":"details","type":"tuple","internalType":"struct IAllowanceTransfer.PermitDetails","components":[{"name":"token","type":"address","internalType":"address"},{"name":"amount","type":"uint160","internalType":"uint160"},{"name":"expiration","type":"uint48","internalType":"uint48"},{"name":"nonce","type":"uint48","internalType":"uint48"}]},{"name":"spender","type":"address","internalType":"address"},{"name":"sigDeadline","type":"uint256","internalType":"uint256"}]},{"name":"sig","type":"bytes","internalType":"bytes"}],"stateMutability":"nonpayable"},{"type":"function","name":"signer","inputs":[],"outputs":[{"name":"","type":"address","internalType":"address"}],"stateMutability":"view"}],"bytecode":{"object":"0x6101006040818152346200023d575f9160608162000e7c8038038091620000278285620002a6565b8339810103126200023d5780516001600160a01b039081811681036200023d57602092838101519083821682036200023d578501519160a05260c0528060805283519063ffa1864960e01b82526004820152737109709ecfa91a80626ff3989d68f67f5b1dd12d908381602481855afa90811562000233575f9162000241575b508060e0528260c0511690813b156200023d578360445f9283895195869485936340c10f1960e01b85521660048401528860248401525af18015620002335762000219575b50908492918160e0511690803b156200021557602485928751988993849263ca669fa760e01b845260048401525af1948515620001e957839495620001f3575b50806044839260c051169160a051168751958693849263095ea7b360e01b845260048401525f1960248401525af18015620001e957620001a8575b8351610bb19081620002cb8239608051816105ae015260a05181818161012101526103d2015260c0518181816101930152610312015260e05181610a580152f35b81813d8311620001e1575b620001bf8183620002a6565b81010312620001dd575180151503620001da57808062000167565b80fd5b5080fd5b503d620001b3565b84513d85823e3d90fd5b6200020290939192936200027e565b62000211579082915f6200012c565b8280fd5b8480fd5b6200022891939295506200027e565b5f9390915f620000ec565b85513d5f823e3d90fd5b5f80fd5b90508381813d831162000276575b6200025b8183620002a6565b810103126200023d575182811681036200023d575f620000a7565b503d6200024f565b6001600160401b0381116200029257604052565b634e487b7160e01b5f52604160045260245ffd5b601f909101601f19168101906001600160401b03821190821017620002925760405256fe6080806040526004361015610012575f80fd5b5f905f3560e01c908163219587b614610a7c57508063238ac93314610a0e5780633eb8b8fd146109b6578063415e982d1461095e5780636302c3cf146109065780636e4f2775146108ae57806378f1683014610856578063a27cb38214610272578063a46feaf7146100e75763c5df4f031461008c575f80fd5b346100e457807ffffffffffffffffffffffffffffffffffffffffffffffffffffffffffffffffc3601126100e45760206040517ff3841cd1ff0085026a6327b620b67997ce40f282c88a8e905a7a5626e310f3d08152f35b80fd5b5034610241576100f636610ab4565b9073ffffffffffffffffffffffffffffffffffffffff916fffffffffffffffffffffffffffffffff837f0000000000000000000000000000000000000000000000000000000000000000169216926103e842019283421161024557803b15610241575f928360849265ffffffffffff60405197889687957f87517c45000000000000000000000000000000000000000000000000000000008752817f00000000000000000000000000000000000000000000000000000000000000001660048801521660248601528960448601521660648401525af18015610236576101ea575b506101e490600154610b97565b60015580f35b90915067ffffffffffffffff8111610209576040525f906101e46101d7565b7f4e487b71000000000000000000000000000000000000000000000000000000005f52604160045260245ffd5b6040513d5f823e3d90fd5b5f80fd5b7f4e487b71000000000000000000000000000000000000000000000000000000005f52601160045260245ffd5b346102415761028036610ab4565b5f6040805161028e81610b1e565b815161029981610b3a565b83815283602082015283838201528360608201528152826020820152015273ffffffffffffffffffffffffffffffffffffffff81165f525f60205265ffffffffffff60405f205416916103e8420180421161024557604051936102fb85610b3a565b73ffffffffffffffffffffffffffffffffffffffff7f00000000000000000000000000000000000000000000000000000000000000001685526fffffffffffffffffffffffffffffffff8316602086015265ffffffffffff8216604086015260608501526040519361036c85610b1e565b845273ffffffffffffffffffffffffffffffffffffffff8316602085015260408401526040517f3644e51500000000000000000000000000000000000000000000000000000000815260208160048173ffffffffffffffffffffffffffffffffffffffff7f0000000000000000000000000000000000000000000000000000000000000000165afa908115610236575f91610824575b5083516040519061048060208301917f65626cad6cb96493bf6f5ebea28756c966f023ab9e8a83a7101849d5573b36788352604084019060609073ffffffffffffffffffffffffffffffffffffffff80825116845260208201511660208401528160408201519165ffffffffffff8093166040860152015116910152565b60a082528160c081011067ffffffffffffffff60c0840111176102095760c082016040528151902073ffffffffffffffffffffffffffffffffffffffff6020870151166040870151917ff3841cd1ff0085026a6327b620b67997ce40f282c88a8e905a7a5626e310f3d060e0850152610100840152610120830152610140820152608060c082015260c0810161016082011067ffffffffffffffff61016083011117610209578061016080920160405260c081015160e08201206101808201937f190100000000000000000000000000000000000000000000000000000000000085526101828301526101a2820152604282820152610580828201610b3a565b0151902091604051927fe341eaa40000000000000000000000000000000000000000000000000000000084527f000000000000000000000000000000000000000000000000000000000000000060048501526024840152606083604481737109709ecfa91a80626ff3989d68f67f5b1dd12d5afa8015610236575f905f945f916107c0575b5073ffffffffffffffffffffffffffffffffffffffff92917fff0000000000000000000000000000000000000000000000000000000000000091604051966020880152604087015260f81b1660608501526041845261066384610b3a565b165f525f60205260405f2080549165ffffffffffff83169165ffffffffffff8314610245576106d8937fffffffffffffffffffffffffffffffffffffffffffffffffffff00000000000065ffffffffffff60016fffffffffffffffffffffffffffffffff960116911617905516600154610b97565b600155604080519261072d84825160609073ffffffffffffffffffffffffffffffffffffffff80825116845260208201511660208401528160408201519165ffffffffffff8093166040860152015116910152565b73ffffffffffffffffffffffffffffffffffffffff6020820151166080850152015160a083015260e060c0830152818151918260e08301525f5b8381106107a75750507fffffffffffffffffffffffffffffffffffffffffffffffffffffffffffffffe0601f835f61010080968601015201168101030190f35b6020828201810151610100878401015285935001610767565b92945050506060813d60601161081c575b816107de60609383610b56565b810103126102415780519260ff841684036102415760208201516040909201519193909173ffffffffffffffffffffffffffffffffffffffff610605565b3d91506107d1565b90506020813d60201161084e575b8161083f60209383610b56565b81010312610241575184610402565b3d9150610832565b34610241575f7ffffffffffffffffffffffffffffffffffffffffffffffffffffffffffffffffc3601126102415760206040517f939c21a48a8dbe3a9a2404a1d46691e4d39f6583d6ec6b35714604c986d801068152f35b34610241575f7ffffffffffffffffffffffffffffffffffffffffffffffffffffffffffffffffc3601126102415760206040517f65626cad6cb96493bf6f5ebea28756c966f023ab9e8a83a7101849d5573b36788152f35b34610241575f7ffffffffffffffffffffffffffffffffffffffffffffffffffffffffffffffffc3601126102415760206040517faf1b0d30d2cab0380e68f0689007e3254993c596f2fdd0aaa7f4d04f794408638152f35b34610241575f7ffffffffffffffffffffffffffffffffffffffffffffffffffffffffffffffffc3601126102415760206040517f618358ac3db8dc274f0cd8829da7e234bd48cd73c4a740aede1adec9846d06a18152f35b34610241575f7ffffffffffffffffffffffffffffffffffffffffffffffffffffffffffffffffc3601126102415760206040517ffcf35f5ac6a2c28868dc44c302166470266239195f02b0ee408334829333b7668152f35b34610241575f7ffffffffffffffffffffffffffffffffffffffffffffffffffffffffffffffffc36011261024157602060405173ffffffffffffffffffffffffffffffffffffffff7f0000000000000000000000000000000000000000000000000000000000000000168152f35b34610241575f7ffffffffffffffffffffffffffffffffffffffffffffffffffffffffffffffffc360112610241576020906001548152f35b7ffffffffffffffffffffffffffffffffffffffffffffffffffffffffffffffffc6040910112610241576004356fffffffffffffffffffffffffffffffff81168103610241579060243573ffffffffffffffffffffffffffffffffffffffff811681036102415790565b6060810190811067ffffffffffffffff82111761020957604052565b6080810190811067ffffffffffffffff82111761020957604052565b90601f7fffffffffffffffffffffffffffffffffffffffffffffffffffffffffffffffe0910116810190811067ffffffffffffffff82111761020957604052565b919082018092116102455756fea164736f6c6343000817000a","linkReferences":{}},"methodIdentifiers":{"_PERMIT_BATCH_TRANSFER_FROM_TYPEHASH()":"3eb8b8fd","_PERMIT_BATCH_TYPEHASH()":"6302c3cf","_PERMIT_DETAILS_TYPEHASH()":"6e4f2775","_PERMIT_SINGLE_TYPEHASH()":"c5df4f03","_PERMIT_TRANSFER_FROM_TYPEHASH()":"78f16830","_TOKEN_PERMISSIONS_TYPEHASH()":"415e982d","amountPermitted()":"219587b6","approve(uint128,address)":"a46feaf7","createPermit(uint128,address)":"a27cb382","signer()":"238ac933"},"id":28}