{"abi":[{"type":"function","name":"DOMAIN_SEPARATOR","inputs":[],"outputs":[{"name":"","type":"bytes32","internalType":"bytes32"}],"stateMutability":"view"},{"type":"function","name":"allowance","inputs":[{"name":"","type":"address","internalType":"address"},{"name":"","type":"address","internalType":"address"},{"name":"","type":"address","internalType":"address"}],"outputs":[{"name":"amount","type":"uint160","internalType":"uint160"},{"name":"expiration","type":"uint48","internalType":"uint48"},{"name":"nonce","type":"uint48","internalType":"uint48"}],"stateMutability":"view"},{"type":"function","name":"approve","inputs":[{"name":"token","type":"address","internalType":"address"},{"name":"spender","type":"address","internalType":"address"},{"name":"amount","type":"uint160","internalType":"uint160"},{"name":"expiration","type":"uint48","internalType":"uint48"}],"outputs":[],"stateMutability":"nonpayable"},{"type":"function","name":"doStore","inputs":[{"name":"from","type":"address","internalType":"address"},{"name":"token","type":"address","internalType":"address"},{"name":"spender","type":"address","internalType":"address"},{"name":"word","type":"uint256","internalType":"uint256"}],"outputs":[],"stateMutability":"nonpayable"},{"type":"function","name":"getStore","inputs":[{"name":"from","type":"address","internalType":"address"},{"name":"token","type":"address","internalType":"address"},{"name":"spender","type":"address","internalType":"address"}],"outputs":[{"name":"word","type":"uint256","internalType":"uint256"}],"stateMutability":"view"},{"type":"function","name":"invalidateNonces","inputs":[{"name":"token","type":"address","internalType":"address"},{"name":"spender","type":"address","internalType":"address"},{"name":"newNonce","type":"uint48","internalType":"uint48"}],"outputs":[],"stateMutability":"nonpayable"},{"type":"function","name":"invalidateUnorderedNonces","inputs":[{"name":"wordPos","type":"uint256","internalType":"uint256"},{"name":"mask","type":"uint256","internalType":"uint256"}],"outputs":[],"stateMutability":"nonpayable"},{"type":"function","name":"lockdown","inputs":[{"name":"approvals","type":"tuple[]","internalType":"struct IAllowanceTransfer.TokenSpenderPair[]","components":[{"name":"token","type":"address","internalType":"address"},{"name":"spender","type":"address","internalType":"address"}]}],"outputs":[],"stateMutability":"nonpayable"},{"type":"function","name":"mockUpdateAll","inputs":[{"name":"from","type":"address","internalType":"address"},{"name":"token","type":"address","internalType":"address"},{"name":"spender","type":"address","internalType":"address"},{"name":"amount","type":"uint160","internalType":"uint160"},{"name":"expiration","type":"uint48","internalType":"uint48"},{"name":"nonce","type":"uint48","internalType":"uint48"}],"outputs":[],"stateMutability":"nonpayable"},{"type":"function","name":"mockUpdateAmountAndExpiration","inputs":[{"name":"from","type":"address","internalType":"address"},{"name":"token","type":"address","internalType":"address"},{"name":"spender","type":"address","internalType":"address"},{"name":"amount","type":"uint160","internalType":"uint160"},{"name":"expiration","type":"uint48","internalType":"uint48"}],"outputs":[],"stateMutability":"nonpayable"},{"type":"function","name":"nonceBitmap","inputs":[{"name":"","type":"address","internalType":"address"},{"name":"","type":"uint256","internalType":"uint256"}],"outputs":[{"name":"","type":"uint256","internalType":"uint256"}],"stateMutability":"view"},{"type":"function","name":"permit","inputs":[{"name":"owner","type":"address","internalType":"address"},{"name":"permitBatch","type":"tuple","internalType":"struct IAllowanceTransfer.PermitBatch","components":[{"name":"details","type":"tuple[]","internalType":"struct IAllowanceTransfer.PermitDetails[]","components":[{"name":"token","type":"address","internalType":"address"},{"name":"amount","type":"uint160","internalType":"uint160"},{"name":"expiration","type":"uint48","internalType":"uint48"},{"name":"nonce","type":"uint48","internalType":"uint48"}]},{"name":"spender","type":"address","internalType":"address"},{"name":"sigDeadline","type":"uint256","internalType":"uint256"}]},{"name":"signature","type":"bytes","internalType":"bytes"}],"outputs":[],"stateMutability":"nonpayable"},{"type":"function","name":"permit","inputs":[{"name":"owner","type":"address","internalType":"address"},{"name":"permitSingle","type":"tuple","internalType":"struct IAllowanceTransfer.PermitSingle","components":[{"name":"details","type":"tuple","internalType":"struct IAllowanceTransfer.PermitDetails","components":[{"name":"token","type":"address","internalType":"address"},{"name":"amount","type":"uint160","internalType":"uint160"},{"name":"expiration","type":"uint48","internalType":"uint48"},{"name":"nonce","type":"uint48","internalType":"uint48"}]},{"name":"spender","type":"address","internalType":"address"},{"name":"sigDeadline","type":"uint256","internalType":"uint256"}]},{"name":"signature","type":"bytes","internalType":"bytes"}],"outputs":[],"stateMutability":"nonpayable"},{"type":"function","name":"permitTransferFrom","inputs":[{"name":"permit","type":"tuple","internalType":"struct ISignatureTransfer.PermitTransferFrom","components":[{"name":"permitted","type":"tuple","internalType":"struct ISignatureTransfer.TokenPermissions","components":[{"name":"token","type":"address","internalType":"address"},{"name":"amount","type":"uint256","internalType":"uint256"}]},{"name":"nonce","type":"uint256","internalType":"uint256"},{"name":"deadline","type":"uint256","internalType":"uint256"}]},{"name":"transferDetails","type":"tuple","internalType":"struct ISignatureTransfer.SignatureTransferDetails","components":[{"name":"to","type":"address","internalType":"address"},{"name":"requestedAmount","type":"uint256","internalType":"uint256"}]},{"name":"owner","type":"address","internalType":"address"},{"name":"signature","type":"bytes","internalType":"bytes"}],"outputs":[],"stateMutability":"nonpayable"},{"type":"function","name":"permitTransferFrom","inputs":[{"name":"permit","type":"tuple","internalType":"struct ISignatureTransfer.PermitBatchTransferFrom","components":[{"name":"permitted","type":"tuple[]","internalType":"struct ISignatureTransfer.TokenPermissions[]","components":[{"name":"token","type":"address","internalType":"address"},{"name":"amount","type":"uint256","internalType":"uint256"}]},{"name":"nonce","type":"uint256","internalType":"uint256"},{"name":"deadline","type":"uint256","internalType":"uint256"}]},{"name":"transferDetails","type":"tuple[]","internalType":"struct ISignatureTransfer.SignatureTransferDetails[]","components":[{"name":"to","type":"address","internalType":"address"},{"name":"requestedAmount","type":"uint256","internalType":"uint256"}]},{"name":"owner","type":"address","internalType":"address"},{"name":"signature","type":"bytes","internalType":"bytes"}],"outputs":[],"stateMutability":"nonpayable"},{"type":"function","name":"permitWitnessTransferFrom","inputs":[{"name":"permit","type":"tuple","internalType":"struct ISignatureTransfer.PermitTransferFrom","components":[{"name":"permitted","type":"tuple","internalType":"struct ISignatureTransfer.TokenPermissions","components":[{"name":"token","type":"address","internalType":"address"},{"name":"amount","type":"uint256","internalType":"uint256"}]},{"name":"nonce","type":"uint256","internalType":"uint256"},{"name":"deadline","type":"uint256","internalType":"uint256"}]},{"name":"transferDetails","type":"tuple","internalType":"struct ISignatureTransfer.SignatureTransferDetails","components":[{"name":"to","type":"address","internalType":"address"},{"name":"requestedAmount","type":"uint256","internalType":"uint256"}]},{"name":"owner","type":"address","internalType":"address"},{"name":"witness","type":"bytes32","internalType":"bytes32"},{"name":"witnessTypeString","type":"string","internalType":"string"},{"name":"signature","type":"bytes","internalType":"bytes"}],"outputs":[],"stateMutability":"nonpayable"},{"type":"function","name":"permitWitnessTransferFrom","inputs":[{"name":"permit","type":"tuple","internalType":"struct ISignatureTransfer.PermitBatchTransferFrom","components":[{"name":"permitted","type":"tuple[]","internalType":"struct ISignatureTransfer.TokenPermissions[]","components":[{"name":"token","type":"address","internalType":"address"},{"name":"amount","type":"uint256","internalType":"uint256"}]},{"name":"nonce","type":"uint256","internalType":"uint256"},{"name":"deadline","type":"uint256","internalType":"uint256"}]},{"name":"transferDetails","type":"tuple[]","internalType":"struct ISignatureTransfer.SignatureTransferDetails[]","components":[{"name":"to","type":"address","internalType":"address"},{"name":"requestedAmount","type":"uint256","internalType":"uint256"}]},{"name":"owner","type":"address","internalType":"address"},{"name":"witness","type":"bytes32","internalType":"bytes32"},{"name":"witnessTypeString","type":"string","internalType":"string"},{"name":"signature","type":"bytes","internalType":"bytes"}],"outputs":[],"stateMutability":"nonpayable"},{"type":"function","name":"transferFrom","inputs":[{"name":"transferDetails","type":"tuple[]","internalType":"struct IAllowanceTransfer.AllowanceTransferDetails[]","components":[{"name":"from","type":"address","internalType":"address"},{"name":"to","type":"address","internalType":"address"},{"name":"amount","type":"uint160","internalType":"uint160"},{"name":"token","type":"address","internalType":"address"}]}],"outputs":[],"stateMutability":"nonpayable"},{"type":"function","name":"transferFrom","inputs":[{"name":"from","type":"address","internalType":"address"},{"name":"to","type":"address","internalType":"address"},{"name":"amount","type":"uint160","internalType":"uint160"},{"name":"token","type":"address","internalType":"address"}],"outputs":[],"stateMutability":"nonpayable"},{"type":"function","name":"useUnorderedNonce","inputs":[{"name":"from","type":"address","internalType":"address"},{"name":"nonce","type":"uint256","internalType":"uint256"}],"outputs":[],"stateMutability":"nonpayable"},{"type":"event","name":"Approval","inputs":[{"name":"owner","type":"address","indexed":true,"internalType":"address"},{"name":"token","type":"address","indexed":true,"internalType":"address"},{"name":"spender","type":"address","indexed":true,"internalType":"address"},{"name":"amount","type":"uint160","indexed":false,"internalType":"uint160"},{"name":"expiration","type":"uint48","indexed":false,"internalType":"uint48"}],"anonymous":false},{"type":"event","name":"Lockdown","inputs":[{"name":"owner","type":"address","indexed":true,"internalType":"address"},{"name":"token","type":"address","indexed":false,"internalType":"address"},{"name":"spender","type":"address","indexed":false,"internalType":"address"}],"anonymous":false},{"type":"event","name":"NonceInvalidation","inputs":[{"name":"owner","type":"address","indexed":true,"internalType":"address"},{"name":"token","type":"address","indexed":true,"internalType":"address"},{"name":"spender","type":"address","indexed":true,"internalType":"address"},{"name":"newNonce","type":"uint48","indexed":false,"internalType":"uint48"},{"name":"oldNonce","type":"uint48","indexed":false,"internalType":"uint48"}],"anonymous":false},{"type":"event","name":"Permit","inputs":[{"name":"owner","type":"address","indexed":true,"internalType":"address"},{"name":"token","type":"address","indexed":true,"internalType":"address"},{"name":"spender","type":"address","indexed":true,"internalType":"address"},{"name":"amount","type":"uint160","indexed":false,"internalType":"uint160"},{"name":"expiration","type":"uint48","indexed":false,"internalType":"uint48"},{"name":"nonce","type":"uint48","indexed":false,"internalType":"uint48"}],"anonymous":false},{"type":"event","name":"UnorderedNonceInvalidation","inputs":[{"name":"owner","type":"address","indexed":true,"internalType":"address"},{"name":"word","type":"uint256","indexed":false,"internalType":"uint256"},{"name":"mask","type":"uint256","indexed":false,"internalType":"uint256"}],"anonymous":false},{"type":"error","name":"AllowanceExpired","inputs":[{"name":"deadline","type":"uint256","internalType":"uint256"}]},{"type":"error","name":"ExcessiveInvalidation","inputs":[]},{"type":"error","name":"InsufficientAllowance","inputs":[{"name":"amount","type":"uint256","internalType":"uint256"}]},{"type":"error","name":"InvalidAmount","inputs":[{"name":"maxAmount","type":"uint256","internalType":"uint256"}]},{"type":"error","name":"InvalidContractSignature","inputs":[]},{"type":"error","name":"InvalidNonce","inputs":[]},{"type":"error","name":"InvalidSignature","inputs":[]},{"type":"error","name":"InvalidSignatureLength","inputs":[]},{"type":"error","name":"InvalidSigner","inputs":[]},{"type":"error","name":"LengthMismatch","inputs":[]},{"type":"error","name":"SignatureExpired","inputs":[{"name":"signatureDeadline","type":"uint256","internalType":"uint256"}]}],"bytecode":{"object":"0x60c0346100c05763ffffffff46168060a05260208201907f8cad95687ba82c2ce50e74f7b754645e5117c3a5bec8151c0726d5857980a86682527f9ac997416e8ff9d2ff6bebeb7149f65cdae5e32e2b90440b566bb3044041d36a604084015260608301523060808301526080825260a082019180831060018060401b038411176100ac57826040525190206080526125d890816100c58239608051816119c5015260a0518161199d0152f35b634e487b7160e01b5f52604160045260245ffd5b5f80fdfe60406080815260049081361015610014575f80fd5b5f3560e01c806303b4aad2146114db5780630d58b1db146113ab578063137c29fe146111b45780632a2d80d114610f225780632b67b57014610d4a57806330f28b7a14610c505780633644e51514610c0f57806336c7851614610bb65780633ff9dcb114610b375780634d77a4c614610aae5780634fe02b4414610a445780635e7983d5146109bb5780635f2f8b7d1461092157806365d9723c1461079157806387517c45146106bc578063927da10514610611578063b61c85e8146105cf578063cc53287f146104b9578063edd9444b146103565763fe8ec1a7146100f8575f80fd5b346103525760c07ffffffffffffffffffffffffffffffffffffffffffffffffffffffffffffffffc3601126103525767ffffffffffffffff91803583811161035257610147903690830161186d565b6024358481116103525761015e903690840161183c565b6101666115cf565b916084358781116103525761017e90369087016117f6565b97909560a43591821161035257610197913691016117f6565b9690958151906101a6826116e6565b606b82527f5065726d697442617463685769746e6573735472616e7366657246726f6d285460208301527f6f6b656e5065726d697373696f6e735b5d207065726d69747465642c61646472838301527f657373207370656e6465722c75696e74323536206e6f6e63652c75696e74323560608301527f3620646561646c696e652c00000000000000000000000000000000000000000060808301528251998a9181610255602085018096611c23565b918237015f8152039861028e7fffffffffffffffffffffffffffffffffffffffffffffffffffffffffffffffe09a8b810183528261171e565b5190209085515161029e81611d1e565b905f5b81811061032a5750506103289961031f9183516102d2816102c6602082018095611d6d565b0384810183528261171e565b519020602089810151858b015195519182019687526040820192909252336060820152608081019190915260a081019390935260643560c08401528260e081015b0390810183528261171e565b519020936122f9565b005b8061034161033b6001938c51611953565b516124d0565b61034b8286611953565b52016102a1565b5f80fd5b5090346103525760807ffffffffffffffffffffffffffffffffffffffffffffffffffffffffffffffffc3601126103525767ffffffffffffffff8135818111610352576103a6903690840161186d565b602435828111610352576103bd903690850161183c565b9390926103c86115cf565b91606435918211610352576103df913691016117f6565b949093835151966103ef88611d1e565b975f5b81811061049757505061032897815161043f81610413602082018095611d6d565b037fffffffffffffffffffffffffffffffffffffffffffffffffffffffffffffffe0810183528261171e565b5190206020860151828701519083519260208401947ffcf35f5ac6a2c28868dc44c302166470266239195f02b0ee408334829333b7668652840152336060840152608083015260a082015260a0815261031f81611702565b806104a861033b6001938a51611953565b6104b2828d611953565b52016103f2565b503461035257602091827ffffffffffffffffffffffffffffffffffffffffffffffffffffffffffffffffc3601126103525780359067ffffffffffffffff8211610352576105099136910161183c565b5f5b81811061051457005b8061052a6105256001938587611a56565b611a66565b61053f87610539848789611a56565b01611a66565b335f52838852865f209173ffffffffffffffffffffffffffffffffffffffff80911692835f528952875f20911690815f528852865f207fffffffffffffffffffffffff000000000000000000000000000000000000000081541690558651918252878201527f89b1add15eff56b3dfe299ad94e01f2b52fbcb80ae1a3baea6ae8c04cb2b98a4863392a20161050b565b5034610352577ffffffffffffffffffffffffffffffffffffffffffffffffffffffffffffffffc36011261035257610328610608611589565b6024359061228a565b50346103525760607ffffffffffffffffffffffffffffffffffffffffffffffffffffffffffffffffc36011261035257610649611589565b906106526115ac565b61065a6115cf565b73ffffffffffffffffffffffffffffffffffffffff9384165f9081526001602090815284822093861682529283528381209185168152908252829020549151928216835265ffffffffffff60a083901c169083015260d01c6040820152606090f35b50346103525760807ffffffffffffffffffffffffffffffffffffffffffffffffffffffffffffffffc360112610352576106f4611589565b906106fd6115ac565b916107066115cf565b906064359265ffffffffffff8416808503610352577fda9fa7c1b00402c17d0161b249b1ab8bbec047c5a52207b9c112deffd817036b92335f526001602052610781835f209673ffffffffffffffffffffffffffffffffffffffff80931697885f5260205282855f20991698895f5260205286855f20612205565b82519416845260208401523392a4005b50346103525760607ffffffffffffffffffffffffffffffffffffffffffffffffffffffffffffffffc360112610352576107c9611589565b6107d16115ac565b916044359065ffffffffffff8083169283810361035257335f5260209060018252835f209573ffffffffffffffffffffffffffffffffffffffff80911696875f528352845f20971696875f528252835f205460d01c92838611156108f95761ffff9084830316116108d157907f55eb90d810e1700b35a8e7e25395ff7f2b2259abd7415ca2284dfb1c246418f3939291335f5260018252835f20875f528252835f20885f528252835f209079ffffffffffffffffffffffffffffffffffffffffffffffffffff7fffffffffffff000000000000000000000000000000000000000000000000000083549260d01b16911617905582519485528401523392a4005b8784517f24d35a26000000000000000000000000000000000000000000000000000000008152fd5b8885517f756688fe000000000000000000000000000000000000000000000000000000008152fd5b50346103525760a07ffffffffffffffffffffffffffffffffffffffffffffffffffffffffffffffffc360112610352576103289061095d611589565b6109656115ac565b9161096e6115cf565b610976611615565b9261097f611659565b9473ffffffffffffffffffffffffffffffffffffffff8092165f52600160205281845f2091165f52602052825f2091165f526020525f20612205565b50346103525760807ffffffffffffffffffffffffffffffffffffffffffffffffffffffffffffffffc360112610352576109f3611589565b6109fb6115ac565b90610a046115cf565b9173ffffffffffffffffffffffffffffffffffffffff8092165f52600160205281845f2091165f52602052825f2091165f52602052606435905f20555f80f35b503461035257807ffffffffffffffffffffffffffffffffffffffffffffffffffffffffffffffffc3601126103525760209073ffffffffffffffffffffffffffffffffffffffff610a93611589565b165f525f8252805f206024355f528252805f20549051908152f35b50346103525760607ffffffffffffffffffffffffffffffffffffffffffffffffffffffffffffffffc36011261035257602090610ae9611589565b610af16115ac565b90610afa6115cf565b9173ffffffffffffffffffffffffffffffffffffffff8092165f526001855281845f2091165f528452825f2091165f528252805f20549051908152f35b50903461035257817ffffffffffffffffffffffffffffffffffffffffffffffffffffffffffffffffc360112610352577f3704902f963766a4e561bbaab6e6cdc1b1dd12f6e9e99648da8843b3f46b918d903591602435335f525f602052815f20845f52602052815f20818154179055815193845260208401523392a2005b346103525760807ffffffffffffffffffffffffffffffffffffffffffffffffffffffffffffffffc36011261035257610328610bf0611589565b610bf86115ac565b610c006115cf565b90610c09611615565b92611b0f565b5034610352575f7ffffffffffffffffffffffffffffffffffffffffffffffffffffffffffffffffc36011261035257602090610c49611994565b9051908152f35b5034610352576101007ffffffffffffffffffffffffffffffffffffffffffffffffffffffffffffffffc36011261035257610c8a3661175f565b90807fffffffffffffffffffffffffffffffffffffffffffffffffffffffffffffff7c36011261035257610cbc6115f2565b9160e43567ffffffffffffffff81116103525761032894610cdf913691016117f6565b939092610cec83516124d0565b6020840151828501519083519260208401947f939c21a48a8dbe3a9a2404a1d46691e4d39f6583d6ec6b35714604c986d801068652840152336060840152608083015260a082015260a08152610d4181611702565b51902091611c4c565b509034610352576101007ffffffffffffffffffffffffffffffffffffffffffffffffffffffffffffffffc36011261035257610d84611589565b7fffffffffffffffffffffffffffffffffffffffffffffffffffffffffffffffdc360160c08112610352576080845191610dbd836116ca565b1261035257835190610dce82611681565b73ffffffffffffffffffffffffffffffffffffffff916024358381168103610352578152604435838116810361035257602082015265ffffffffffff606435818116810361035257878301526084359081168103610352576060820152815260a435938285168503610352576020820194855260c4359086830182815260e43567ffffffffffffffff811161035257610e6a90369084016117f6565b929093804211610ef3575050918591610ee361032899610ee995610e8e8851612530565b90898c511690519083519260208401947ff3841cd1ff0085026a6327b620b67997ce40f282c88a8e905a7a5626e310f3d086528401526060830152608082015260808152610edb816116e6565b519020611d99565b91611dfb565b51925116916120fc565b602492508951917fcd21db4f000000000000000000000000000000000000000000000000000000008352820152fd5b509034610352576060907ffffffffffffffffffffffffffffffffffffffffffffffffffffffffffffffffc9060608236011261035257610f60611589565b926024359167ffffffffffffffff9384841161035257606090843603011261035257855195610f8e876116ca565b8382013585811161035257840136602382011215610352578281013593610fb485611824565b91610fc18451938461171e565b85835260209560248785019160071b8301019136831161035257602401905b828210611158575050505087526044610ffb60248601611638565b94848901958652013592818801958487526044359081116103525761102390369085016117f6565b939094804211611129575050879697515161103d81611d1e565b905f5b8181106110fc57505082899492610ee3926110cb979551611068816104138582018095611d6d565b51902073ffffffffffffffffffffffffffffffffffffffff998a8a51169051918451938401947faf1b0d30d2cab0380e68f0689007e3254993c596f2fdd0aaa7f4d04f7944086386528401526060830152608082015260808152610edb816116e6565b511690805151915f5b8381106110dd57005b806110f683876110f06001958851611953565b516120fc565b016110d4565b8061111561110f6001938d9e9d51611953565b51612530565b61111f8286611953565b5201999899611040565b602492508351917fcd21db4f000000000000000000000000000000000000000000000000000000008352820152fd5b6080823603126103525787608091875161117181611681565b61117a85611638565b8152611187838601611638565b8382015261119689860161166e565b898201526111a587860161166e565b87820152815201910190610fe0565b509034610352576101407ffffffffffffffffffffffffffffffffffffffffffffffffffffffffffffffffc360112610352576111ef3661175f565b91807fffffffffffffffffffffffffffffffffffffffffffffffffffffffffffffff7c360112610352576112216115f2565b67ffffffffffffffff9390610104358581116103525761124490369086016117f6565b90936101243596871161035257611264610d4196610328983691016117f6565b969095825190611273826116e6565b606482527f5065726d69745769746e6573735472616e7366657246726f6d28546f6b656e5060208301527f65726d697373696f6e73207065726d69747465642c6164647265737320737065848301527f6e6465722c75696e74323536206e6f6e63652c75696e7432353620646561646c60608301527f696e652c000000000000000000000000000000000000000000000000000000006080830152835194859181611322602085018096611c23565b918237015f8152039361135b7fffffffffffffffffffffffffffffffffffffffffffffffffffffffffffffffe09586810183528261171e565b5190209261136986516124d0565b6020878101518589015195519182019687526040820192909252336060820152608081019190915260a081019390935260e43560c08401528260e08101610313565b5090346103525760209160207ffffffffffffffffffffffffffffffffffffffffffffffffffffffffffffffffc3601126103525781359067ffffffffffffffff928383116103525736602384011215610352578201359283116103525760249160073660248660071b84010111610352575f5b85811061142757005b80821b83019060807fffffffffffffffffffffffffffffffffffffffffffffffffffffffffffffffdc8336030112610352576114d5858960019460608a6114ab608461147f87519361147885611681565b8601611638565b9485845261148f60448201611638565b80978501526114a060648201611638565b809885015201611638565b918291015273ffffffffffffffffffffffffffffffffffffffff8080809316951693169116611b0f565b0161141e565b50346103525760c07ffffffffffffffffffffffffffffffffffffffffffffffffffffffffffffffffc36011261035257611513611589565b61151b6115ac565b916115246115cf565b9061152d611615565b90611536611659565b9260a4359465ffffffffffff86168603610352576103289673ffffffffffffffffffffffffffffffffffffffff8092165f52600160205281845f2091165f52602052825f2091165f526020525f20611a87565b6004359073ffffffffffffffffffffffffffffffffffffffff8216820361035257565b6024359073ffffffffffffffffffffffffffffffffffffffff8216820361035257565b6044359073ffffffffffffffffffffffffffffffffffffffff8216820361035257565b60c4359073ffffffffffffffffffffffffffffffffffffffff8216820361035257565b6064359073ffffffffffffffffffffffffffffffffffffffff8216820361035257565b359073ffffffffffffffffffffffffffffffffffffffff8216820361035257565b6084359065ffffffffffff8216820361035257565b359065ffffffffffff8216820361035257565b6080810190811067ffffffffffffffff82111761169d57604052565b7f4e487b71000000000000000000000000000000000000000000000000000000005f52604160045260245ffd5b6060810190811067ffffffffffffffff82111761169d57604052565b60a0810190811067ffffffffffffffff82111761169d57604052565b60c0810190811067ffffffffffffffff82111761169d57604052565b90601f7fffffffffffffffffffffffffffffffffffffffffffffffffffffffffffffffe0910116810190811067ffffffffffffffff82111761169d57604052565b7ffffffffffffffffffffffffffffffffffffffffffffffffffffffffffffffffc019060808212610352576040805190611798826116ca565b8082941261035257805181810181811067ffffffffffffffff82111761169d57825260043573ffffffffffffffffffffffffffffffffffffffff81168103610352578152602435602082015282526044356020830152606435910152565b9181601f840112156103525782359167ffffffffffffffff8311610352576020838186019501011161035257565b67ffffffffffffffff811161169d5760051b60200190565b9181601f840112156103525782359167ffffffffffffffff8311610352576020808501948460061b01011161035257565b919091606081840312610352576040805191611888836116ca565b829481359067ffffffffffffffff9182811161035257830181601f820112156103525780356020936118b982611824565b936118c68851958661171e565b828552858086019360061b85010193818511610352579086899897969594939201925b848410611906575050505050855280820135908501520135910152565b90919293949596978483031261035257885190898201908282108583111761169d578a928992845261193787611638565b81528287013583820152815201930191908897969594936118e9565b80518210156119675760209160051b010190565b7f4e487b71000000000000000000000000000000000000000000000000000000005f52603260045260245ffd5b4663ffffffff167f000000000000000000000000000000000000000000000000000000000000000081036119e757507f000000000000000000000000000000000000000000000000000000000000000090565b60405160208101917f8cad95687ba82c2ce50e74f7b754645e5117c3a5bec8151c0726d5857980a86683527f9ac997416e8ff9d2ff6bebeb7149f65cdae5e32e2b90440b566bb3044041d36a6040830152606082015230608082015260808152611a50816116e6565b51902090565b91908110156119675760061b0190565b3573ffffffffffffffffffffffffffffffffffffffff811681036103525790565b929091600179ffffffffffff000000000000000000000000000000000000000073ffffffffffffffffffffffffffffffffffffffff7fffffffffffff00000000000000000000000000000000000000000000000000009365ffffffffffff90818116155f14611b0757504216955b169460a01b16920160d01b1617179055565b905095611af5565b92919273ffffffffffffffffffffffffffffffffffffffff8082165f5260016020528060405f20941693845f5260205260405f20335f5260205260405f209485549565ffffffffffff8760a01c16804211611bf2575082871696838803611b81575b5050611b7f9550169261241b565b565b87848416115f14611bbd57602488604051907ff96fb0710000000000000000000000000000000000000000000000000000000082526004820152fd5b7fffffffffffffffffffffffff00000000000000000000000000000000000000008484611b7f9a031691161790555f80611b71565b602490604051907fd81b2f2e0000000000000000000000000000000000000000000000000000000082526004820152fd5b908151915f5b838110611c39575050015f815290565b8060208092840101518185015201611c29565b9192909360a435936040840151804211611ced5750602084510151808611611cbc5750918591610ee3611c8c94611c8760208801518661228a565b611d99565b73ffffffffffffffffffffffffffffffffffffffff809151511692608435918216820361035257611b7f9361241b565b602490604051907f3728b83d0000000000000000000000000000000000000000000000000000000082526004820152fd5b602490604051907fcd21db4f0000000000000000000000000000000000000000000000000000000082526004820152fd5b90611d2882611824565b611d35604051918261171e565b8281527fffffffffffffffffffffffffffffffffffffffffffffffffffffffffffffffe0611d638294611824565b0190602036910137565b80516020809201915f5b828110611d85575050505090565b835185529381019392810192600101611d77565b611da1611994565b906040519060208201927f190100000000000000000000000000000000000000000000000000000000000084526022830152604282015260428152611a5081611681565b9190826040910312610352576020823592013590565b833b611f885760418203611eda57611e1582820182611de5565b93909260401015611967576020935f9360ff6040608095013560f81c5b60405194855216868401526040830152606082015282805260015afa15611ecf5773ffffffffffffffffffffffffffffffffffffffff805f5116918215611ea5571603611e7b57565b60046040517f815e1d64000000000000000000000000000000000000000000000000000000008152fd5b60046040517f8baa579f000000000000000000000000000000000000000000000000000000008152fd5b6040513d5f823e3d90fd5b60408203611f5e57611eee91810190611de5565b91601b7f7fffffffffffffffffffffffffffffffffffffffffffffffffffffffffffffff84169360ff1c019060ff8211611f31576020935f9360ff608094611e32565b7f4e487b71000000000000000000000000000000000000000000000000000000005f52601160045260245ffd5b60046040517f4be6321b000000000000000000000000000000000000000000000000000000008152fd5b90601f92938173ffffffffffffffffffffffffffffffffffffffff60646020957fffffffffffffffffffffffffffffffffffffffffffffffffffffffffffffffe0604051988997889687947f1626ba7e000000000000000000000000000000000000000000000000000000009d8e8752600487015260406024870152816044870152868601375f85828601015201168101030192165afa8015611ecf575f90612081575b7fffffffff000000000000000000000000000000000000000000000000000000009150160361205757565b60046040517fb0669cbc000000000000000000000000000000000000000000000000000000008152fd5b506020813d6020116120f4575b8161209b6020938361171e565b8101031261035257517fffffffff0000000000000000000000000000000000000000000000000000000081168103610352577fffffffff000000000000000000000000000000000000000000000000000000009061202c565b3d915061208e565b9065ffffffffffff90816060840151169173ffffffffffffffffffffffffffffffffffffffff92838551169484806020830151169360408093015116941694855f526001602052815f20875f52602052815f20971696875f52602052805f2082815460d01c036121dc57916121d79161219a8287877fc6a377bfc4eb120024a8ac08eef205be16b817020812c73223e81d1bdb9708ec999897611a87565b519384938491604091949373ffffffffffffffffffffffffffffffffffffffff606085019616845265ffffffffffff809216602085015216910152565b0390a4565b600482517f756688fe000000000000000000000000000000000000000000000000000000008152fd5b9165ffffffffffff9081811661228257504216905b82547fffffffffffff00000000000000000000000000000000000000000000000000001660a09290921b79ffffffffffff0000000000000000000000000000000000000000169190911773ffffffffffffffffffffffffffffffffffffffff91909116179055565b90509061221a565b9073ffffffffffffffffffffffffffffffffffffffff600160ff83161b92165f525f60205260405f209060081c5f5260205260405f208181541880915516156122cf57565b60046040517f756688fe000000000000000000000000000000000000000000000000000000008152fd5b95909395805151956040926040830151804211611ced57508488036123f157612332918691610ee360209b611c8760208801518661228a565b5f5b868110612345575050505050505050565b612350818351611953565b518861235d83878a611a56565b013590898101518083116123c1575091818888886001968596612387575b50505050505001612334565b6123b6956123b09273ffffffffffffffffffffffffffffffffffffffff61052593511695611a56565b9161241b565b805f8888888361237b565b6024908651907f3728b83d0000000000000000000000000000000000000000000000000000000082526004820152fd5b60046040517fff633a38000000000000000000000000000000000000000000000000000000008152fd5b905f6064926020958295604051947f23b872dd0000000000000000000000000000000000000000000000000000000086526004860152602485015260448401525af13d15601f3d1160015f51141617161561247257565b60646040517f08c379a000000000000000000000000000000000000000000000000000000000815260206004820152601460248201527f5452414e534645525f46524f4d5f4641494c45440000000000000000000000006044820152fd5b602073ffffffffffffffffffffffffffffffffffffffff8251169101516040519060208201927f618358ac3db8dc274f0cd8829da7e234bd48cd73c4a740aede1adec9846d06a184526040830152606082015260608152611a5081611681565b73ffffffffffffffffffffffffffffffffffffffff9081815116916020820151169065ffffffffffff60608160408401511692015116906040519260208401947f65626cad6cb96493bf6f5ebea28756c966f023ab9e8a83a7101849d5573b3678865260408501526060840152608083015260a082015260a0815260c0810181811067ffffffffffffffff82111761169d576040525190209056fea164736f6c6343000817000a","linkReferences":{}},"methodIdentifiers":{"DOMAIN_SEPARATOR()":"3644e515","allowance(address,address,address)":"927da105","approve(address,address,uint160,uint48)":"87517c45","doStore(address,address,address,uint256)":"5e7983d5","getStore(address,address,address)":"4d77a4c6","invalidateNonces(address,address,uint48)":"65d9723c","invalidateUnorderedNonces(uint256,uint256)":"3ff9dcb1","lockdown((address,address)[])":"cc53287f","mockUpdateAll(address,address,address,uint160,uint48,uint48)":"03b4aad2","mockUpdateAmountAndExpiration(address,address,address,uint160,uint48)":"5f2f8b7d","nonceBitmap(address,uint256)":"4fe02b44","permit(address,((address,uint160,uint48,uint48),address,uint256),bytes)":"2b67b570","permit(address,((address,uint160,uint48,uint48)[],address,uint256),bytes)":"2a2d80d1","permitTransferFrom(((address,uint256),uint256,uint256),(address,uint256),address,bytes)":"30f28b7a","permitTransferFrom(((address,uint256)[],uint256,uint256),(address,uint256)[],address,bytes)":"edd9444b","permitWitnessTransferFrom(((address,uint256),uint256,uint256),(address,uint256),address,bytes32,string,bytes)":"137c29fe","permitWitnessTransferFrom(((address,uint256)[],uint256,uint256),(address,uint256)[],address,bytes32,string,bytes)":"fe8ec1a7","transferFrom((address,address,uint160,address)[])":"0d58b1db","transferFrom(address,address,uint160,address)":"36c78516","useUnorderedNonce(address,uint256)":"b61c85e8"},"id":49}