{"abi":[{"type":"function","name":"DOMAIN_SEPARATOR","inputs":[],"outputs":[{"name":"","type":"bytes32","internalType":"bytes32"}],"stateMutability":"view"},{"type":"function","name":"allowance","inputs":[{"name":"","type":"address","internalType":"address"},{"name":"","type":"address","internalType":"address"},{"name":"","type":"address","internalType":"address"}],"outputs":[{"name":"amount","type":"uint160","internalType":"uint160"},{"name":"expiration","type":"uint48","internalType":"uint48"},{"name":"nonce","type":"uint48","internalType":"uint48"}],"stateMutability":"view"},{"type":"function","name":"approve","inputs":[{"name":"token","type":"address","internalType":"address"},{"name":"spender","type":"address","internalType":"address"},{"name":"amount","type":"uint160","internalType":"uint160"},{"name":"expiration","type":"uint48","internalType":"uint48"}],"outputs":[],"stateMutability":"nonpayable"},{"type":"function","name":"invalidateNonces","inputs":[{"name":"token","type":"address","internalType":"address"},{"name":"spender","type":"address","internalType":"address"},{"name":"newNonce","type":"uint48","internalType":"uint48"}],"outputs":[],"stateMutability":"nonpayable"},{"type":"function","name":"invalidateUnorderedNonces","inputs":[{"name":"wordPos","type":"uint256","internalType":"uint256"},{"name":"mask","type":"uint256","internalType":"uint256"}],"outputs":[],"stateMutability":"nonpayable"},{"type":"function","name":"lockdown","inputs":[{"name":"approvals","type":"tuple[]","internalType":"struct IAllowanceTransfer.TokenSpenderPair[]","components":[{"name":"token","type":"address","internalType":"address"},{"name":"spender","type":"address","internalType":"address"}]}],"outputs":[],"stateMutability":"nonpayable"},{"type":"function","name":"nonceBitmap","inputs":[{"name":"","type":"address","internalType":"address"},{"name":"","type":"uint256","internalType":"uint256"}],"outputs":[{"name":"","type":"uint256","internalType":"uint256"}],"stateMutability":"view"},{"type":"function","name":"permit","inputs":[{"name":"owner","type":"address","internalType":"address"},{"name":"permitBatch","type":"tuple","internalType":"struct IAllowanceTransfer.PermitBatch","components":[{"name":"details","type":"tuple[]","internalType":"struct IAllowanceTransfer.PermitDetails[]","components":[{"name":"token","type":"address","internalType":"address"},{"name":"amount","type":"uint160","internalType":"uint160"},{"name":"expiration","type":"uint48","internalType":"uint48"},{"name":"nonce","type":"uint48","internalType":"uint48"}]},{"name":"spender","type":"address","internalType":"address"},{"name":"sigDeadline","type":"uint256","internalType":"uint256"}]},{"name":"signature","type":"bytes","internalType":"bytes"}],"outputs":[],"stateMutability":"nonpayable"},{"type":"function","name":"permit","inputs":[{"name":"owner","type":"address","internalType":"address"},{"name":"permitSingle","type":"tuple","internalType":"struct IAllowanceTransfer.PermitSingle","components":[{"name":"details","type":"tuple","internalType":"struct IAllowanceTransfer.PermitDetails","components":[{"name":"token","type":"address","internalType":"address"},{"name":"amount","type":"uint160","internalType":"uint160"},{"name":"expiration","type":"uint48","internalType":"uint48"},{"name":"nonce","type":"uint48","internalType":"uint48"}]},{"name":"spender","type":"address","internalType":"address"},{"name":"sigDeadline","type":"uint256","internalType":"uint256"}]},{"name":"signature","type":"bytes","internalType":"bytes"}],"outputs":[],"stateMutability":"nonpayable"},{"type":"function","name":"permitTransferFrom","inputs":[{"name":"permit","type":"tuple","internalType":"struct ISignatureTransfer.PermitTransferFrom","components":[{"name":"permitted","type":"tuple","internalType":"struct ISignatureTransfer.TokenPermissions","components":[{"name":"token","type":"address","internalType":"address"},{"name":"amount","type":"uint256","internalType":"uint256"}]},{"name":"nonce","type":"uint256","internalType":"uint256"},{"name":"deadline","type":"uint256","internalType":"uint256"}]},{"name":"transferDetails","type":"tuple","internalType":"struct ISignatureTransfer.SignatureTransferDetails","components":[{"name":"to","type":"address","internalType":"address"},{"name":"requestedAmount","type":"uint256","internalType":"uint256"}]},{"name":"owner","type":"address","internalType":"address"},{"name":"signature","type":"bytes","internalType":"bytes"}],"outputs":[],"stateMutability":"nonpayable"},{"type":"function","name":"permitTransferFrom","inputs":[{"name":"permit","type":"tuple","internalType":"struct ISignatureTransfer.PermitBatchTransferFrom","components":[{"name":"permitted","type":"tuple[]","internalType":"struct ISignatureTransfer.TokenPermissions[]","components":[{"name":"token","type":"address","internalType":"address"},{"name":"amount","type":"uint256","internalType":"uint256"}]},{"name":"nonce","type":"uint256","internalType":"uint256"},{"name":"deadline","type":"uint256","internalType":"uint256"}]},{"name":"transferDetails","type":"tuple[]","internalType":"struct ISignatureTransfer.SignatureTransferDetails[]","components":[{"name":"to","type":"address","internalType":"address"},{"name":"requestedAmount","type":"uint256","internalType":"uint256"}]},{"name":"owner","type":"address","internalType":"address"},{"name":"signature","type":"bytes","internalType":"bytes"}],"outputs":[],"stateMutability":"nonpayable"},{"type":"function","name":"permitWitnessTransferFrom","inputs":[{"name":"permit","type":"tuple","internalType":"struct ISignatureTransfer.PermitTransferFrom","components":[{"name":"permitted","type":"tuple","internalType":"struct ISignatureTransfer.TokenPermissions","components":[{"name":"token","type":"address","internalType":"address"},{"name":"amount","type":"uint256","internalType":"uint256"}]},{"name":"nonce","type":"uint256","internalType":"uint256"},{"name":"deadline","type":"uint256","internalType":"uint256"}]},{"name":"transferDetails","type":"tuple","internalType":"struct ISignatureTransfer.SignatureTransferDetails","components":[{"name":"to","type":"address","internalType":"address"},{"name":"requestedAmount","type":"uint256","internalType":"uint256"}]},{"name":"owner","type":"address","internalType":"address"},{"name":"witness","type":"bytes32","internalType":"bytes32"},{"name":"witnessTypeString","type":"string","internalType":"string"},{"name":"signature","type":"bytes","internalType":"bytes"}],"outputs":[],"stateMutability":"nonpayable"},{"type":"function","name":"permitWitnessTransferFrom","inputs":[{"name":"permit","type":"tuple","internalType":"struct ISignatureTransfer.PermitBatchTransferFrom","components":[{"name":"permitted","type":"tuple[]","internalType":"struct ISignatureTransfer.TokenPermissions[]","components":[{"name":"token","type":"address","internalType":"address"},{"name":"amount","type":"uint256","internalType":"uint256"}]},{"name":"nonce","type":"uint256","internalType":"uint256"},{"name":"deadline","type":"uint256","internalType":"uint256"}]},{"name":"transferDetails","type":"tuple[]","internalType":"struct ISignatureTransfer.SignatureTransferDetails[]","components":[{"name":"to","type":"address","internalType":"address"},{"name":"requestedAmount","type":"uint256","internalType":"uint256"}]},{"name":"owner","type":"address","internalType":"address"},{"name":"witness","type":"bytes32","internalType":"bytes32"},{"name":"witnessTypeString","type":"string","internalType":"string"},{"name":"signature","type":"bytes","internalType":"bytes"}],"outputs":[],"stateMutability":"nonpayable"},{"type":"function","name":"transferFrom","inputs":[{"name":"transferDetails","type":"tuple[]","internalType":"struct IAllowanceTransfer.AllowanceTransferDetails[]","components":[{"name":"from","type":"address","internalType":"address"},{"name":"to","type":"address","internalType":"address"},{"name":"amount","type":"uint160","internalType":"uint160"},{"name":"token","type":"address","internalType":"address"}]}],"outputs":[],"stateMutability":"nonpayable"},{"type":"function","name":"transferFrom","inputs":[{"name":"from","type":"address","internalType":"address"},{"name":"to","type":"address","internalType":"address"},{"name":"amount","type":"uint160","internalType":"uint160"},{"name":"token","type":"address","internalType":"address"}],"outputs":[],"stateMutability":"nonpayable"},{"type":"event","name":"Approval","inputs":[{"name":"owner","type":"address","indexed":true,"internalType":"address"},{"name":"token","type":"address","indexed":true,"internalType":"address"},{"name":"spender","type":"address","indexed":true,"internalType":"address"},{"name":"amount","type":"uint160","indexed":false,"internalType":"uint160"},{"name":"expiration","type":"uint48","indexed":false,"internalType":"uint48"}],"anonymous":false},{"type":"event","name":"Lockdown","inputs":[{"name":"owner","type":"address","indexed":true,"internalType":"address"},{"name":"token","type":"address","indexed":false,"internalType":"address"},{"name":"spender","type":"address","indexed":false,"internalType":"address"}],"anonymous":false},{"type":"event","name":"NonceInvalidation","inputs":[{"name":"owner","type":"address","indexed":true,"internalType":"address"},{"name":"token","type":"address","indexed":true,"internalType":"address"},{"name":"spender","type":"address","indexed":true,"internalType":"address"},{"name":"newNonce","type":"uint48","indexed":false,"internalType":"uint48"},{"name":"oldNonce","type":"uint48","indexed":false,"internalType":"uint48"}],"anonymous":false},{"type":"event","name":"Permit","inputs":[{"name":"owner","type":"address","indexed":true,"internalType":"address"},{"name":"token","type":"address","indexed":true,"internalType":"address"},{"name":"spender","type":"address","indexed":true,"internalType":"address"},{"name":"amount","type":"uint160","indexed":false,"internalType":"uint160"},{"name":"expiration","type":"uint48","indexed":false,"internalType":"uint48"},{"name":"nonce","type":"uint48","indexed":false,"internalType":"uint48"}],"anonymous":false},{"type":"event","name":"UnorderedNonceInvalidation","inputs":[{"name":"owner","type":"address","indexed":true,"internalType":"address"},{"name":"word","type":"uint256","indexed":false,"internalType":"uint256"},{"name":"mask","type":"uint256","indexed":false,"internalType":"uint256"}],"anonymous":false},{"type":"error","name":"AllowanceExpired","inputs":[{"name":"deadline","type":"uint256","internalType":"uint256"}]},{"type":"error","name":"ExcessiveInvalidation","inputs":[]},{"type":"error","name":"InsufficientAllowance","inputs":[{"name":"amount","type":"uint256","internalType":"uint256"}]},{"type":"error","name":"InvalidAmount","inputs":[{"name":"maxAmount","type":"uint256","internalType":"uint256"}]},{"type":"error","name":"InvalidContractSignature","inputs":[]},{"type":"error","name":"InvalidNonce","inputs":[]},{"type":"error","name":"InvalidSignature","inputs":[]},{"type":"error","name":"InvalidSignatureLength","inputs":[]},{"type":"error","name":"InvalidSigner","inputs":[]},{"type":"error","name":"LengthMismatch","inputs":[]},{"type":"error","name":"SignatureExpired","inputs":[{"name":"signatureDeadline","type":"uint256","internalType":"uint256"}]}],"bytecode":{"object":"0x60c0346100c05763ffffffff46168060a05260208201907f8cad95687ba82c2ce50e74f7b754645e5117c3a5bec8151c0726d5857980a86682527f9ac997416e8ff9d2ff6bebeb7149f65cdae5e32e2b90440b566bb3044041d36a604084015260608301523060808301526080825260a082019180831060018060401b038411176100ac57826040525190206080526122d390816100c582396080518161172d015260a051816117050152f35b634e487b7160e01b5f52604160045260245ffd5b5f80fdfe60406080815260049081361015610014575f80fd5b5f3560e01c80630d58b1db146111f9578063137c29fe146110025780632a2d80d114610d705780632b67b57014610b9857806330f28b7a14610a9e5780633644e51514610a5d57806336c78516146109ec5780633ff9dcb11461096d5780634fe02b441461090357806365d9723c1461077357806387517c4514610643578063927da10514610598578063cc53287f14610482578063edd9444b1461031f5763fe8ec1a7146100c1575f80fd5b3461031b5760c07ffffffffffffffffffffffffffffffffffffffffffffffffffffffffffffffffc36011261031b5767ffffffffffffffff91803583811161031b5761011090369083016115d5565b60243584811161031b5761012790369084016115a4565b61012f611470565b9160843587811161031b57610147903690870161154b565b97909560a43591821161031b576101609136910161154b565b96909581519061016f8261138e565b606b82527f5065726d697442617463685769746e6573735472616e7366657246726f6d285460208301527f6f6b656e5065726d697373696f6e735b5d207065726d69747465642c61646472838301527f657373207370656e6465722c75696e74323536206e6f6e63652c75696e74323560608301527f3620646561646c696e652c00000000000000000000000000000000000000000060808301528251998a918161021e602085018096611903565b918237015f815203986102577fffffffffffffffffffffffffffffffffffffffffffffffffffffffffffffffe09a8b81018352826113c6565b51902090855151610267816119fe565b905f5b8181106102f35750506102f1996102e891835161029b8161028f602082018095611a4d565b038481018352826113c6565b519020602089810151858b015195519182019687526040820192909252336060820152608081019190915260a081019390935260643560c08401528260e081015b039081018352826113c6565b51902093611f58565b005b8061030a6103046001938c516116bb565b5161215c565b61031482866116bb565b520161026a565b5f80fd5b50903461031b5760807ffffffffffffffffffffffffffffffffffffffffffffffffffffffffffffffffc36011261031b5767ffffffffffffffff813581811161031b5761036f90369084016115d5565b60243582811161031b5761038690369085016115a4565b939092610391611470565b9160643591821161031b576103a89136910161154b565b949093835151966103b8886119fe565b975f5b8181106104605750506102f1978151610408816103dc602082018095611a4d565b037fffffffffffffffffffffffffffffffffffffffffffffffffffffffffffffffe081018352826113c6565b5190206020860151828701519083519260208401947ffcf35f5ac6a2c28868dc44c302166470266239195f02b0ee408334829333b7668652840152336060840152608083015260a082015260a081526102e8816113aa565b806104716103046001938a516116bb565b61047b828d6116bb565b52016103bb565b503461031b57602091827ffffffffffffffffffffffffffffffffffffffffffffffffffffffffffffffffc36011261031b5780359067ffffffffffffffff821161031b576104d2913691016115a4565b5f5b8181106104dd57005b806104f36104ee60019385876117be565b6117ce565b610508876105028487896117be565b016117ce565b335f52838852865f209173ffffffffffffffffffffffffffffffffffffffff80911692835f528952875f20911690815f528852865f207fffffffffffffffffffffffff000000000000000000000000000000000000000081541690558651918252878201527f89b1add15eff56b3dfe299ad94e01f2b52fbcb80ae1a3baea6ae8c04cb2b98a4863392a2016104d4565b503461031b5760607ffffffffffffffffffffffffffffffffffffffffffffffffffffffffffffffffc36011261031b576105d061142a565b906105d961144d565b6105e1611470565b73ffffffffffffffffffffffffffffffffffffffff9384165f9081526001602090815284822093861682529283528381209185168152908252829020549151928216835265ffffffffffff60a083901c169083015260d01c6040820152606090f35b503461031b5760807ffffffffffffffffffffffffffffffffffffffffffffffffffffffffffffffffc36011261031b5761067b61142a565b9061068461144d565b9161068d611470565b65ffffffffffff926064358481169081810361031b5779ffffffffffff0000000000000000000000000000000000000000947fda9fa7c1b00402c17d0161b249b1ab8bbec047c5a52207b9c112deffd817036b94335f5260016020527fffffffffffff0000000000000000000000000000000000000000000000000000855f209873ffffffffffffffffffffffffffffffffffffffff809416998a5f5260205283875f209b169a8b5f52602052865f209486155f1461076b57504216925b8454921697889360a01b16911617179055815193845260208401523392a4005b90509261074b565b503461031b5760607ffffffffffffffffffffffffffffffffffffffffffffffffffffffffffffffffc36011261031b576107ab61142a565b6107b361144d565b916044359065ffffffffffff8083169283810361031b57335f5260209060018252835f209573ffffffffffffffffffffffffffffffffffffffff80911696875f528352845f20971696875f528252835f205460d01c92838611156108db5761ffff9084830316116108b357907f55eb90d810e1700b35a8e7e25395ff7f2b2259abd7415ca2284dfb1c246418f3939291335f5260018252835f20875f528252835f20885f528252835f209079ffffffffffffffffffffffffffffffffffffffffffffffffffff7fffffffffffff000000000000000000000000000000000000000000000000000083549260d01b16911617905582519485528401523392a4005b8784517f24d35a26000000000000000000000000000000000000000000000000000000008152fd5b8885517f756688fe000000000000000000000000000000000000000000000000000000008152fd5b503461031b57807ffffffffffffffffffffffffffffffffffffffffffffffffffffffffffffffffc36011261031b5760209073ffffffffffffffffffffffffffffffffffffffff61095261142a565b165f525f8252805f206024355f528252805f20549051908152f35b50903461031b57817ffffffffffffffffffffffffffffffffffffffffffffffffffffffffffffffffc36011261031b577f3704902f963766a4e561bbaab6e6cdc1b1dd12f6e9e99648da8843b3f46b918d903591602435335f525f602052815f20845f52602052815f20818154179055815193845260208401523392a2005b3461031b5760807ffffffffffffffffffffffffffffffffffffffffffffffffffffffffffffffffc36011261031b57610a2361142a565b610a2b61144d565b610a33611470565b6064359173ffffffffffffffffffffffffffffffffffffffff8316830361031b576102f1936117ef565b503461031b575f7ffffffffffffffffffffffffffffffffffffffffffffffffffffffffffffffffc36011261031b57602090610a976116fc565b9051908152f35b503461031b576101007ffffffffffffffffffffffffffffffffffffffffffffffffffffffffffffffffc36011261031b57610ad8366114b4565b90807fffffffffffffffffffffffffffffffffffffffffffffffffffffffffffffff7c36011261031b57610b0a611407565b9160e43567ffffffffffffffff811161031b576102f194610b2d9136910161154b565b939092610b3a835161215c565b6020840151828501519083519260208401947f939c21a48a8dbe3a9a2404a1d46691e4d39f6583d6ec6b35714604c986d801068652840152336060840152608083015260a082015260a08152610b8f816113aa565b5190209161192c565b50903461031b576101007ffffffffffffffffffffffffffffffffffffffffffffffffffffffffffffffffc36011261031b57610bd261142a565b7fffffffffffffffffffffffffffffffffffffffffffffffffffffffffffffffdc360160c0811261031b576080845191610c0b83611372565b1261031b57835190610c1c82611329565b73ffffffffffffffffffffffffffffffffffffffff91602435838116810361031b578152604435838116810361031b57602082015265ffffffffffff606435818116810361031b5787830152608435908116810361031b576060820152815260a43593828516850361031b576020820194855260c4359086830182815260e43567ffffffffffffffff811161031b57610cb8903690840161154b565b929093804211610d41575050918591610d316102f199610d3795610cdc885161222b565b90898c511690519083519260208401947ff3841cd1ff0085026a6327b620b67997ce40f282c88a8e905a7a5626e310f3d086528401526060830152608082015260808152610d298161138e565b519020611a79565b91611adb565b5192511691611ddc565b602492508951917fcd21db4f000000000000000000000000000000000000000000000000000000008352820152fd5b50903461031b576060907ffffffffffffffffffffffffffffffffffffffffffffffffffffffffffffffffc9060608236011261031b57610dae61142a565b926024359167ffffffffffffffff9384841161031b57606090843603011261031b57855195610ddc87611372565b8382013585811161031b5784013660238201121561031b578281013593610e0285611579565b91610e0f845193846113c6565b85835260209560248785019160071b8301019136831161031b57602401905b828210610fa6575050505087526044610e4960248601611493565b948489019586520135928188019584875260443590811161031b57610e71903690850161154b565b939094804211610f775750508796975151610e8b816119fe565b905f5b818110610f4a57505082899492610d3192610f19979551610eb6816103dc8582018095611a4d565b51902073ffffffffffffffffffffffffffffffffffffffff998a8a51169051918451938401947faf1b0d30d2cab0380e68f0689007e3254993c596f2fdd0aaa7f4d04f7944086386528401526060830152608082015260808152610d298161138e565b511690805151915f5b838110610f2b57005b80610f448387610f3e60019588516116bb565b51611ddc565b01610f22565b80610f63610f5d6001938d9e9d516116bb565b5161222b565b610f6d82866116bb565b5201999899610e8e565b602492508351917fcd21db4f000000000000000000000000000000000000000000000000000000008352820152fd5b60808236031261031b57876080918751610fbf81611329565b610fc885611493565b8152610fd5838601611493565b83820152610fe4898601611591565b89820152610ff3878601611591565b87820152815201910190610e2e565b50903461031b576101407ffffffffffffffffffffffffffffffffffffffffffffffffffffffffffffffffc36011261031b5761103d366114b4565b91807fffffffffffffffffffffffffffffffffffffffffffffffffffffffffffffff7c36011261031b5761106f611407565b67ffffffffffffffff93906101043585811161031b57611092903690860161154b565b90936101243596871161031b576110b2610b8f966102f19836910161154b565b9690958251906110c18261138e565b606482527f5065726d69745769746e6573735472616e7366657246726f6d28546f6b656e5060208301527f65726d697373696f6e73207065726d69747465642c6164647265737320737065848301527f6e6465722c75696e74323536206e6f6e63652c75696e7432353620646561646c60608301527f696e652c000000000000000000000000000000000000000000000000000000006080830152835194859181611170602085018096611903565b918237015f815203936111a97fffffffffffffffffffffffffffffffffffffffffffffffffffffffffffffffe0958681018352826113c6565b519020926111b7865161215c565b6020878101518589015195519182019687526040820192909252336060820152608081019190915260a081019390935260e43560c08401528260e081016102dc565b50903461031b5760209160207ffffffffffffffffffffffffffffffffffffffffffffffffffffffffffffffffc36011261031b5781359067ffffffffffffffff9283831161031b573660238401121561031b5782013592831161031b5760249160073660248660071b8401011161031b575f5b85811061127557005b80821b83019060807fffffffffffffffffffffffffffffffffffffffffffffffffffffffffffffffdc833603011261031b57611323858960019460608a6112f960846112cd8751936112c685611329565b8601611493565b948584526112dd60448201611493565b80978501526112ee60648201611493565b809885015201611493565b918291015273ffffffffffffffffffffffffffffffffffffffff80808093169516931691166117ef565b0161126c565b6080810190811067ffffffffffffffff82111761134557604052565b7f4e487b71000000000000000000000000000000000000000000000000000000005f52604160045260245ffd5b6060810190811067ffffffffffffffff82111761134557604052565b60a0810190811067ffffffffffffffff82111761134557604052565b60c0810190811067ffffffffffffffff82111761134557604052565b90601f7fffffffffffffffffffffffffffffffffffffffffffffffffffffffffffffffe0910116810190811067ffffffffffffffff82111761134557604052565b60c4359073ffffffffffffffffffffffffffffffffffffffff8216820361031b57565b6004359073ffffffffffffffffffffffffffffffffffffffff8216820361031b57565b6024359073ffffffffffffffffffffffffffffffffffffffff8216820361031b57565b6044359073ffffffffffffffffffffffffffffffffffffffff8216820361031b57565b359073ffffffffffffffffffffffffffffffffffffffff8216820361031b57565b7ffffffffffffffffffffffffffffffffffffffffffffffffffffffffffffffffc01906080821261031b5760408051906114ed82611372565b8082941261031b57805181810181811067ffffffffffffffff82111761134557825260043573ffffffffffffffffffffffffffffffffffffffff8116810361031b578152602435602082015282526044356020830152606435910152565b9181601f8401121561031b5782359167ffffffffffffffff831161031b576020838186019501011161031b57565b67ffffffffffffffff81116113455760051b60200190565b359065ffffffffffff8216820361031b57565b9181601f8401121561031b5782359167ffffffffffffffff831161031b576020808501948460061b01011161031b57565b91909160608184031261031b5760408051916115f083611372565b829481359067ffffffffffffffff9182811161031b57830181601f8201121561031b57803560209361162182611579565b9361162e885195866113c6565b828552858086019360061b8501019381851161031b579086899897969594939201925b84841061166e575050505050855280820135908501520135910152565b90919293949596978483031261031b578851908982019082821085831117611345578a928992845261169f87611493565b8152828701358382015281520193019190889796959493611651565b80518210156116cf5760209160051b010190565b7f4e487b71000000000000000000000000000000000000000000000000000000005f52603260045260245ffd5b4663ffffffff167f0000000000000000000000000000000000000000000000000000000000000000810361174f57507f000000000000000000000000000000000000000000000000000000000000000090565b60405160208101917f8cad95687ba82c2ce50e74f7b754645e5117c3a5bec8151c0726d5857980a86683527f9ac997416e8ff9d2ff6bebeb7149f65cdae5e32e2b90440b566bb3044041d36a60408301526060820152306080820152608081526117b88161138e565b51902090565b91908110156116cf5760061b0190565b3573ffffffffffffffffffffffffffffffffffffffff8116810361031b5790565b92919273ffffffffffffffffffffffffffffffffffffffff8082165f5260016020528060405f20941693845f5260205260405f20335f5260205260405f209485549565ffffffffffff8760a01c168042116118d2575082871696838803611861575b505061185f9550169261207a565b565b87848416115f1461189d57602488604051907ff96fb0710000000000000000000000000000000000000000000000000000000082526004820152fd5b7fffffffffffffffffffffffff0000000000000000000000000000000000000000848461185f9a031691161790555f80611851565b602490604051907fd81b2f2e0000000000000000000000000000000000000000000000000000000082526004820152fd5b908151915f5b838110611919575050015f815290565b8060208092840101518185015201611909565b9192909360a4359360408401518042116119cd575060208451015180861161199c5750918591610d3161196c946119676020880151866121bc565b611a79565b73ffffffffffffffffffffffffffffffffffffffff809151511692608435918216820361031b5761185f9361207a565b602490604051907f3728b83d0000000000000000000000000000000000000000000000000000000082526004820152fd5b602490604051907fcd21db4f0000000000000000000000000000000000000000000000000000000082526004820152fd5b90611a0882611579565b611a1560405191826113c6565b8281527fffffffffffffffffffffffffffffffffffffffffffffffffffffffffffffffe0611a438294611579565b0190602036910137565b80516020809201915f5b828110611a65575050505090565b835185529381019392810192600101611a57565b611a816116fc565b906040519060208201927f1901000000000000000000000000000000000000000000000000000000000000845260228301526042820152604281526117b881611329565b919082604091031261031b576020823592013590565b833b611c685760418203611bba57611af582820182611ac5565b939092604010156116cf576020935f9360ff6040608095013560f81c5b60405194855216868401526040830152606082015282805260015afa15611baf5773ffffffffffffffffffffffffffffffffffffffff805f5116918215611b85571603611b5b57565b60046040517f815e1d64000000000000000000000000000000000000000000000000000000008152fd5b60046040517f8baa579f000000000000000000000000000000000000000000000000000000008152fd5b6040513d5f823e3d90fd5b60408203611c3e57611bce91810190611ac5565b91601b7f7fffffffffffffffffffffffffffffffffffffffffffffffffffffffffffffff84169360ff1c019060ff8211611c11576020935f9360ff608094611b12565b7f4e487b71000000000000000000000000000000000000000000000000000000005f52601160045260245ffd5b60046040517f4be6321b000000000000000000000000000000000000000000000000000000008152fd5b90601f92938173ffffffffffffffffffffffffffffffffffffffff60646020957fffffffffffffffffffffffffffffffffffffffffffffffffffffffffffffffe0604051988997889687947f1626ba7e000000000000000000000000000000000000000000000000000000009d8e8752600487015260406024870152816044870152868601375f85828601015201168101030192165afa8015611baf575f90611d61575b7fffffffff0000000000000000000000000000000000000000000000000000000091501603611d3757565b60046040517fb0669cbc000000000000000000000000000000000000000000000000000000008152fd5b506020813d602011611dd4575b81611d7b602093836113c6565b8101031261031b57517fffffffff000000000000000000000000000000000000000000000000000000008116810361031b577fffffffff0000000000000000000000000000000000000000000000000000000090611d0c565b3d9150611d6e565b9065ffffffffffff90816060840151169173ffffffffffffffffffffffffffffffffffffffff9283855116948460208201511692858160408094015116951695865f526001602052825f20885f52602052825f20981697885f52602052815f209083825460d01c03611f2f57918493917fc6a377bfc4eb120024a8ac08eef205be16b817020812c73223e81d1bdb9708ec9695611f089487155f14611f0d5779ffffffffffff00000000000000000000000000000000000000009042165b60a01b167fffffffffffff00000000000000000000000000000000000000000000000000006001860160d01b1617179055519384938491604091949373ffffffffffffffffffffffffffffffffffffffff606085019616845265ffffffffffff809216602085015216910152565b0390a4565b5079ffffffffffff000000000000000000000000000000000000000087611e9a565b600483517f756688fe000000000000000000000000000000000000000000000000000000008152fd5b959093958051519560409260408301518042116119cd575084880361205057611f91918691610d3160209b6119676020880151866121bc565b5f5b868110611fa4575050505050505050565b611faf8183516116bb565b5188611fbc83878a6117be565b01359089810151808311612020575091818888886001968596611fe6575b50505050505001611f93565b6120159561200f9273ffffffffffffffffffffffffffffffffffffffff6104ee935116956117be565b9161207a565b805f88888883611fda565b6024908651907f3728b83d0000000000000000000000000000000000000000000000000000000082526004820152fd5b60046040517fff633a38000000000000000000000000000000000000000000000000000000008152fd5b926020926064915f93604051927f23b872dd00000000000000000000000000000000000000000000000000000000845273ffffffffffffffffffffffffffffffffffffffff8092166004850152166024830152604482015282855af19081601f3d1160015f511416151661214f575b50156120f157565b60646040517f08c379a000000000000000000000000000000000000000000000000000000000815260206004820152601460248201527f5452414e534645525f46524f4d5f4641494c45440000000000000000000000006044820152fd5b3b153d171590505f6120e9565b602073ffffffffffffffffffffffffffffffffffffffff8251169101516040519060208201927f618358ac3db8dc274f0cd8829da7e234bd48cd73c4a740aede1adec9846d06a1845260408301526060820152606081526117b881611329565b9073ffffffffffffffffffffffffffffffffffffffff600160ff83161b92165f525f60205260405f209060081c5f5260205260405f2081815418809155161561220157565b60046040517f756688fe000000000000000000000000000000000000000000000000000000008152fd5b73ffffffffffffffffffffffffffffffffffffffff9081815116916020820151169065ffffffffffff60608160408401511692015116906040519260208401947f65626cad6cb96493bf6f5ebea28756c966f023ab9e8a83a7101849d5573b3678865260408501526060840152608083015260a082015260a0815260c0810181811067ffffffffffffffff821117611345576040525190209056fea164736f6c6343000817000a","linkReferences":{}},"methodIdentifiers":{"DOMAIN_SEPARATOR()":"3644e515","allowance(address,address,address)":"927da105","approve(address,address,uint160,uint48)":"87517c45","invalidateNonces(address,address,uint48)":"65d9723c","invalidateUnorderedNonces(uint256,uint256)":"3ff9dcb1","lockdown((address,address)[])":"cc53287f","nonceBitmap(address,uint256)":"4fe02b44","permit(address,((address,uint160,uint48,uint48),address,uint256),bytes)":"2b67b570","permit(address,((address,uint160,uint48,uint48)[],address,uint256),bytes)":"2a2d80d1","permitTransferFrom(((address,uint256),uint256,uint256),(address,uint256),address,bytes)":"30f28b7a","permitTransferFrom(((address,uint256)[],uint256,uint256),(address,uint256)[],address,bytes)":"edd9444b","permitWitnessTransferFrom(((address,uint256),uint256,uint256),(address,uint256),address,bytes32,string,bytes)":"137c29fe","permitWitnessTransferFrom(((address,uint256)[],uint256,uint256),(address,uint256)[],address,bytes32,string,bytes)":"fe8ec1a7","transferFrom((address,address,uint160,address)[])":"0d58b1db","transferFrom(address,address,uint160,address)":"36c78516"},"id":2}