{"abi":[{"type":"function","name":"_PERMIT_BATCH_TRANSFER_FROM_TYPEHASH","inputs":[],"outputs":[{"name":"","type":"bytes32","internalType":"bytes32"}],"stateMutability":"view"},{"type":"function","name":"_PERMIT_BATCH_TYPEHASH","inputs":[],"outputs":[{"name":"","type":"bytes32","internalType":"bytes32"}],"stateMutability":"view"},{"type":"function","name":"_PERMIT_DETAILS_TYPEHASH","inputs":[],"outputs":[{"name":"","type":"bytes32","internalType":"bytes32"}],"stateMutability":"view"},{"type":"function","name":"_PERMIT_SINGLE_TYPEHASH","inputs":[],"outputs":[{"name":"","type":"bytes32","internalType":"bytes32"}],"stateMutability":"view"},{"type":"function","name":"_PERMIT_TRANSFER_FROM_TYPEHASH","inputs":[],"outputs":[{"name":"","type":"bytes32","internalType":"bytes32"}],"stateMutability":"view"},{"type":"function","name":"_TOKEN_PERMISSIONS_TYPEHASH","inputs":[],"outputs":[{"name":"","type":"bytes32","internalType":"bytes32"}],"stateMutability":"view"}],"bytecode":{"object":"0x608080604052346100165761027e908161001b8239f35b5f80fdfe60806040908082526004361015610014575f80fd5b5f3560e01c9081633eb8b8fd1461021b57508063415e982d146101c35780636302c3cf1461016b5780636e4f27751461011357806378f16830146100bb5763c5df4f0314610060575f80fd5b346100b7575f7ffffffffffffffffffffffffffffffffffffffffffffffffffffffffffffffffc3601126100b757602090517ff3841cd1ff0085026a6327b620b67997ce40f282c88a8e905a7a5626e310f3d08152f35b5f80fd5b50346100b7575f7ffffffffffffffffffffffffffffffffffffffffffffffffffffffffffffffffc3601126100b757602090517f939c21a48a8dbe3a9a2404a1d46691e4d39f6583d6ec6b35714604c986d801068152f35b50346100b7575f7ffffffffffffffffffffffffffffffffffffffffffffffffffffffffffffffffc3601126100b757602090517f65626cad6cb96493bf6f5ebea28756c966f023ab9e8a83a7101849d5573b36788152f35b50346100b7575f7ffffffffffffffffffffffffffffffffffffffffffffffffffffffffffffffffc3601126100b757602090517faf1b0d30d2cab0380e68f0689007e3254993c596f2fdd0aaa7f4d04f794408638152f35b50346100b7575f7ffffffffffffffffffffffffffffffffffffffffffffffffffffffffffffffffc3601126100b757602090517f618358ac3db8dc274f0cd8829da7e234bd48cd73c4a740aede1adec9846d06a18152f35b346100b7575f7ffffffffffffffffffffffffffffffffffffffffffffffffffffffffffffffffc3601126100b757807ffcf35f5ac6a2c28868dc44c302166470266239195f02b0ee408334829333b76660209252f3fea164736f6c6343000817000a","linkReferences":{}},"methodIdentifiers":{"_PERMIT_BATCH_TRANSFER_FROM_TYPEHASH()":"3eb8b8fd","_PERMIT_BATCH_TYPEHASH()":"6302c3cf","_PERMIT_DETAILS_TYPEHASH()":"6e4f2775","_PERMIT_SINGLE_TYPEHASH()":"c5df4f03","_PERMIT_TRANSFER_FROM_TYPEHASH()":"78f16830","_TOKEN_PERMISSIONS_TYPEHASH()":"415e982d"},"id":57}