{"abi":[{"type":"function","name":"hash","inputs":[{"name":"permit","type":"tuple","internalType":"struct ISignatureTransfer.PermitTransferFrom","components":[{"name":"permitted","type":"tuple","internalType":"struct ISignatureTransfer.TokenPermissions","components":[{"name":"token","type":"address","internalType":"address"},{"name":"amount","type":"uint256","internalType":"uint256"}]},{"name":"nonce","type":"uint256","internalType":"uint256"},{"name":"deadline","type":"uint256","internalType":"uint256"}]}],"outputs":[{"name":"","type":"bytes32","internalType":"bytes32"}],"stateMutability":"view"},{"type":"function","name":"hash","inputs":[{"name":"permit","type":"tuple","internalType":"struct ISignatureTransfer.PermitBatchTransferFrom","components":[{"name":"permitted","type":"tuple[]","internalType":"struct ISignatureTransfer.TokenPermissions[]","components":[{"name":"token","type":"address","internalType":"address"},{"name":"amount","type":"uint256","internalType":"uint256"}]},{"name":"nonce","type":"uint256","internalType":"uint256"},{"name":"deadline","type":"uint256","internalType":"uint256"}]}],"outputs":[{"name":"","type":"bytes32","internalType":"bytes32"}],"stateMutability":"view"},{"type":"function","name":"hashWithWitness","inputs":[{"name":"permit","type":"tuple","internalType":"struct ISignatureTransfer.PermitTransferFrom","components":[{"name":"permitted","type":"tuple","internalType":"struct ISignatureTransfer.TokenPermissions","components":[{"name":"token","type":"address","internalType":"address"},{"name":"amount","type":"uint256","internalType":"uint256"}]},{"name":"nonce","type":"uint256","internalType":"uint256"},{"name":"deadline","type":"uint256","internalType":"uint256"}]},{"name":"witness","type":"bytes32","internalType":"bytes32"},{"name":"witnessTypeString","type":"string","internalType":"string"}],"outputs":[{"name":"","type":"bytes32","internalType":"bytes32"}],"stateMutability":"view"},{"type":"function","name":"hashWithWitness","inputs":[{"name":"permit","type":"tuple","internalType":"struct ISignatureTransfer.PermitBatchTransferFrom","components":[{"name":"permitted","type":"tuple[]","internalType":"struct ISignatureTransfer.TokenPermissions[]","components":[{"name":"token","type":"address","internalType":"address"},{"name":"amount","type":"uint256","internalType":"uint256"}]},{"name":"nonce","type":"uint256","internalType":"uint256"},{"name":"deadline","type":"uint256","internalType":"uint256"}]},{"name":"witness","type":"bytes32","internalType":"bytes32"},{"name":"witnessTypeString","type":"string","internalType":"string"}],"outputs":[{"name":"","type":"bytes32","internalType":"bytes32"}],"stateMutability":"view"}],"bytecode":{"object":"0x60808060405234610016576109c6908161001b8239f35b5f80fdfe604060808152600480361015610013575f80fd5b5f3560e01c80634825c448146104205780637a16a30614610386578063ac37543a1461017c5763d0d66d8b14610047575f80fd5b346101785760207ffffffffffffffffffffffffffffffffffffffffffffffffffffffffffffffffc3601126101785780359067ffffffffffffffff82116101785761009491369101610761565b908151516100a181610886565b905f5b81811061015057602084868582516100ef816100c38782018095610916565b037fffffffffffffffffffffffffffffffffffffffffffffffffffffffffffffffe08101835282610643565b519020908284820151910151835191858301937ffcf35f5ac6a2c28868dc44c302166470266239195f02b0ee408334829333b766855285840152336060840152608083015260a082015260a0815261014681610627565b5190209051908152f35b8061016761016160019388516108d5565b51610942565b61017182866108d5565b52016100a4565b5f80fd5b5090346101785760607ffffffffffffffffffffffffffffffffffffffffffffffffffffffffffffffffc3601126101785767ffffffffffffffff8235818111610178576101cc9036908501610761565b92604435918211610178576101e39136910161071b565b909282516101f08161060b565b606b81526020947f5065726d697442617463685769746e6573735472616e7366657246726f6d2854868301527f6f6b656e5065726d697373696f6e735b5d207065726d69747465642c61646472858301527f657373207370656e6465722c75696e74323536206e6f6e63652c75696e74323560608301527f3620646561646c696e652c00000000000000000000000000000000000000000060808301528451938491816102a0898501809661085d565b918237015f815203926102d97fffffffffffffffffffffffffffffffffffffffffffffffffffffffffffffffe094858101835282610643565b519020918151516102e981610886565b905f5b818110610364575050906101469185516103198161030d8a82018095610916565b03848101835282610643565b5190208684015193860151865180890196875260208701929092523360408701526060860194909452608085019390935260243560a08501528260c085015b03908101835282610643565b8061037561016160019388516108d5565b61037f82866108d5565b52016102ec565b82346101785760807ffffffffffffffffffffffffffffffffffffffffffffffffffffffffffffffffc360112610178576020906103c236610684565b6103cc8151610942565b908284820151910151835191858301937f939c21a48a8dbe3a9a2404a1d46691e4d39f6583d6ec6b35714604c986d80106855285840152336060840152608083015260a082015260a0815261014681610627565b5090346101785760c07ffffffffffffffffffffffffffffffffffffffffffffffffffffffffffffffffc3601126101785761045a36610684565b9160a4359267ffffffffffffffff8411610178576104806101469260209536910161071b565b929084519061048e8261060b565b606482527f5065726d69745769746e6573735472616e7366657246726f6d28546f6b656e50878301527f65726d697373696f6e73207065726d69747465642c6164647265737320737065868301527f6e6465722c75696e74323536206e6f6e63652c75696e7432353620646561646c60608301527f696e652c00000000000000000000000000000000000000000000000000000000608083015285519485918161053b8a8501809661085d565b918237015f815203936105747fffffffffffffffffffffffffffffffffffffffffffffffffffffffffffffffe095868101835282610643565b519020926105828351610942565b8684015193860151865180890196875260208701929092523360408701526060860194909452608085019390935260843560a08501528260c08501610358565b6060810190811067ffffffffffffffff8211176105de57604052565b7f4e487b71000000000000000000000000000000000000000000000000000000005f52604160045260245ffd5b60a0810190811067ffffffffffffffff8211176105de57604052565b60c0810190811067ffffffffffffffff8211176105de57604052565b90601f7fffffffffffffffffffffffffffffffffffffffffffffffffffffffffffffffe0910116810190811067ffffffffffffffff8211176105de57604052565b7ffffffffffffffffffffffffffffffffffffffffffffffffffffffffffffffffc0190608082126101785760408051906106bd826105c2565b8082941261017857805181810181811067ffffffffffffffff8211176105de57825260043573ffffffffffffffffffffffffffffffffffffffff81168103610178578152602435602082015282526044356020830152606435910152565b9181601f840112156101785782359167ffffffffffffffff8311610178576020838186019501011161017857565b67ffffffffffffffff81116105de5760051b60200190565b91909160608184031261017857604080519161077c836105c2565b829481359067ffffffffffffffff9182811161017857830181601f820112156101785780356020936107ad82610749565b936107ba88519586610643565b828552858086019360061b85010193818511610178579086899897969594939201925b8484106107fa575050505050855280820135908501520135910152565b90919293949596978483031261017857885190898201828110858211176105de578a5284359073ffffffffffffffffffffffffffffffffffffffff82168203610178578289928c94528287013583820152815201930191908897969594936107dd565b908151915f5b838110610873575050015f815290565b8060208092840101518185015201610863565b9061089082610749565b61089d6040519182610643565b8281527fffffffffffffffffffffffffffffffffffffffffffffffffffffffffffffffe06108cb8294610749565b0190602036910137565b80518210156108e95760209160051b010190565b7f4e487b71000000000000000000000000000000000000000000000000000000005f52603260045260245ffd5b80516020809201915f5b82811061092e575050505090565b835185529381019392810192600101610920565b602073ffffffffffffffffffffffffffffffffffffffff8251169101516040519060208201927f618358ac3db8dc274f0cd8829da7e234bd48cd73c4a740aede1adec9846d06a1845260408301526060820152606081526080810181811067ffffffffffffffff8211176105de576040525190209056fea164736f6c6343000817000a","linkReferences":{}},"methodIdentifiers":{"hash(((address,uint256),uint256,uint256))":"7a16a306","hash(((address,uint256)[],uint256,uint256))":"d0d66d8b","hashWithWitness(((address,uint256),uint256,uint256),bytes32,string)":"4825c448","hashWithWitness(((address,uint256)[],uint256,uint256),bytes32,string)":"ac37543a"},"id":46}