{"abi":[{"type":"function","name":"verify","inputs":[{"name":"sig","type":"bytes","internalType":"bytes"},{"name":"hashed","type":"bytes32","internalType":"bytes32"},{"name":"signer","type":"address","internalType":"address"}],"outputs":[],"stateMutability":"view"},{"type":"error","name":"InvalidContractSignature","inputs":[]},{"type":"error","name":"InvalidSignature","inputs":[]},{"type":"error","name":"InvalidSignatureLength","inputs":[]},{"type":"error","name":"InvalidSigner","inputs":[]}],"bytecode":{"object":"0x608080604052346100165761041d908161001b8239f35b5f80fdfe6080604081815260049182361015610015575f80fd5b5f3560e01c638048608014610028575f80fd5b346103ba5760607ffffffffffffffffffffffffffffffffffffffffffffffffffffffffffffffffc3601126103ba5767ffffffffffffffff83358181116103ba57366023820112156103ba57808501358281116103ba576024908183019282828201013681116103ba578335946044359773ffffffffffffffffffffffffffffffffffffffff97888a16998a81036103ba573b61025157505088604185145f146101a65750906100d7916103fa565b93909288101561017c5750925f9260809260ff6064602097013560f81c5b8a51948552168684015288830152606082015282805260015afa15610172575f5116801561014a570361012457005b517f815e1d64000000000000000000000000000000000000000000000000000000008152fd5b5050517f8baa579f000000000000000000000000000000000000000000000000000000008152fd5b82513d5f823e3d90fd5b6032897f4e487b71000000000000000000000000000000000000000000000000000000005f52525ffd5b91925092145f14610229576101ba916103fa565b91601b7f7fffffffffffffffffffffffffffffffffffffffffffffffffffffffffffffff84169360ff1c019060ff82116101ff5750925f9260809260ff6020966100f5565b6011897f4e487b71000000000000000000000000000000000000000000000000000000005f52525ffd5b8787517f4be6321b000000000000000000000000000000000000000000000000000000008152fd5b94959698935096508491507f1626ba7e00000000000000000000000000000000000000000000000000000000978888528a880152888688015281604488015260648701378285016064015f905284807fffffffffffffffffffffffffffffffffffffffffffffffffffffffffffffffe0601f81960116810103606401815a93602094fa9283156103f0575f93610336575b5050507fffffffff000000000000000000000000000000000000000000000000000000009150160361031057005b517fb0669cbc000000000000000000000000000000000000000000000000000000008152fd5b6020935090913d84116103e8575b601f8401168401918211848310176103be575060209183918652810103126103ba57517fffffffff00000000000000000000000000000000000000000000000000000000811681036103ba577fffffffff00000000000000000000000000000000000000000000000000000000905f80806102e2565b5f80fd5b6041877f4e487b71000000000000000000000000000000000000000000000000000000005f52525ffd5b3d9350610344565b86513d5f823e3d90fd5b91908260409103126103ba57602082359201359056fea164736f6c6343000817000a","linkReferences":{}},"methodIdentifiers":{"verify(bytes,bytes32,address)":"80486080"},"id":52}