{"abi":[{"type":"constructor","inputs":[],"stateMutability":"nonpayable"},{"type":"function","name":"DOMAIN_SEPARATOR","inputs":[],"outputs":[{"name":"","type":"bytes32","internalType":"bytes32"}],"stateMutability":"view"}],"bytecode":{"object":"0x60c0346100be5763ffffffff46168060a05260208201907f8cad95687ba82c2ce50e74f7b754645e5117c3a5bec8151c0726d5857980a86682527f9ac997416e8ff9d2ff6bebeb7149f65cdae5e32e2b90440b566bb3044041d36a604084015260608301523060808301526080825260a082019180831060018060401b038411176100aa578260405251902060805261017090816100c38239608051816087015260a05181605c0152f35b634e487b7160e01b5f52604160045260245ffd5b5f80fdfe6080806040526004361015610012575f80fd5b5f3560e01c633644e51514610025575f80fd5b3461015f575f7ffffffffffffffffffffffffffffffffffffffffffffffffffffffffffffffffc36011261015f574663ffffffff167f000000000000000000000000000000000000000000000000000000000000000081036100af57505060207f00000000000000000000000000000000000000000000000000000000000000005b604051908152f35b60208201907f8cad95687ba82c2ce50e74f7b754645e5117c3a5bec8151c0726d5857980a86682527f9ac997416e8ff9d2ff6bebeb7149f65cdae5e32e2b90440b566bb3044041d36a604084015260608301523060808301526080825260a082019180831067ffffffffffffffff841117610132576020926040525190206100a7565b7f4e487b71000000000000000000000000000000000000000000000000000000005f52604160045260245ffd5b5f80fdfea164736f6c6343000817000a","linkReferences":{}},"methodIdentifiers":{"DOMAIN_SEPARATOR()":"3644e515"},"id":5}