{"abi":[{"type":"function","name":"fillAllowanceTransferDetail","inputs":[{"name":"length","type":"uint256","internalType":"uint256"},{"name":"tokens","type":"address[]","internalType":"address[]"},{"name":"amount","type":"uint160","internalType":"uint160"},{"name":"to","type":"address","internalType":"address"},{"name":"owners","type":"address[]","internalType":"address[]"}],"outputs":[{"name":"transferDetails","type":"tuple[]","internalType":"struct IAllowanceTransfer.AllowanceTransferDetails[]","components":[{"name":"from","type":"address","internalType":"address"},{"name":"to","type":"address","internalType":"address"},{"name":"amount","type":"uint160","internalType":"uint160"},{"name":"token","type":"address","internalType":"address"}]}],"stateMutability":"pure"},{"type":"function","name":"fillAllowanceTransferDetail","inputs":[{"name":"length","type":"uint256","internalType":"uint256"},{"name":"token","type":"address","internalType":"address"},{"name":"amount","type":"uint160","internalType":"uint160"},{"name":"to","type":"address","internalType":"address"},{"name":"owners","type":"address[]","internalType":"address[]"}],"outputs":[{"name":"transferDetails","type":"tuple[]","internalType":"struct IAllowanceTransfer.AllowanceTransferDetails[]","components":[{"name":"from","type":"address","internalType":"address"},{"name":"to","type":"address","internalType":"address"},{"name":"amount","type":"uint160","internalType":"uint160"},{"name":"token","type":"address","internalType":"address"}]}],"stateMutability":"pure"},{"type":"function","name":"fillSigTransferDetails","inputs":[{"name":"amount","type":"uint256","internalType":"uint256"},{"name":"tos","type":"address[]","internalType":"address[]"}],"outputs":[{"name":"transferDetails","type":"tuple[]","internalType":"struct ISignatureTransfer.SignatureTransferDetails[]","components":[{"name":"to","type":"address","internalType":"address"},{"name":"requestedAmount","type":"uint256","internalType":"uint256"}]}],"stateMutability":"pure"},{"type":"function","name":"fillSigTransferDetails","inputs":[{"name":"length","type":"uint256","internalType":"uint256"},{"name":"amount","type":"uint256","internalType":"uint256"},{"name":"to","type":"address","internalType":"address"}],"outputs":[{"name":"transferDetails","type":"tuple[]","internalType":"struct ISignatureTransfer.SignatureTransferDetails[]","components":[{"name":"to","type":"address","internalType":"address"},{"name":"requestedAmount","type":"uint256","internalType":"uint256"}]}],"stateMutability":"pure"}],"bytecode":{"object":"0x6080806040523461001a57610826908161001f823930815050f35b5f80fdfe60406080815260049081361015610014575f80fd5b5f3560e01c80634fc79d061461030a578063dc0b03bd146102b3578063ed9f2787146101b95763f167d3df14610048575f80fd5b60607ffffffffffffffffffffffffffffffffffffffffffffffffffffffffffffffffc3601126101ab5761007a6104f6565b8151927f47d5f0be00000000000000000000000000000000000000000000000000000000845280359084015273ffffffffffffffffffffffffffffffffffffffff80911660248401525f8360448173__$64f7117583de4ed292654590083e817591$__5af49283156101af575f9361010c575b610108836100fd86602435610737565b905191829182610611565b0390f35b9092503d805f833e61011e818361047a565b810160209182818303126101ab5780519067ffffffffffffffff82116101ab57019381601f860112156101ab578451610156816104bb565b956101638651978861047a565b818752848088019260051b8201019384116101ab578401905b8382106101935750505050506100fd6101086100ed565b815183811681036101ab57815290840190840161017c565b5f80fd5b82513d5f823e3d90fd5b509060a07ffffffffffffffffffffffffffffffffffffffffffffffffffffffffffffffffc3601126101ab578035916024359173ffffffffffffffffffffffffffffffffffffffff928381168091036101ab576102146104f6565b9461021d6104d3565b926084359067ffffffffffffffff82116101ab5761024091949294369101610519565b9461024a84610670565b9581805f94169816925b858110610268578651806101088a82610596565b8083610276600193856106f6565b511688519061028482610415565b81528a602082015285898201528660608201526102a1828b6106f6565b526102ac818a6106f6565b5001610254565b50807ffffffffffffffffffffffffffffffffffffffffffffffffffffffffffffffffc3601126101ab5760243567ffffffffffffffff81116101ab57610108926103036100fd9236908301610519565b9035610737565b509060a07ffffffffffffffffffffffffffffffffffffffffffffffffffffffffffffffffc3601126101ab5767ffffffffffffffff9181356024358481116101ab576103599036908501610519565b936103626104f6565b9061036b6104d3565b946084359182116101ab5761038291369101610519565b61038b83610670565b9473ffffffffffffffffffffffffffffffffffffffff908116928116915f5b8581106103be578651806101088a82610596565b80836103cc600193856106f6565b5116846103d9838d6106f6565b51168951916103e783610415565b8252876020830152868a8301526060820152610403828b6106f6565b5261040e818a6106f6565b50016103aa565b6080810190811067ffffffffffffffff82111761043157604052565b7f4e487b71000000000000000000000000000000000000000000000000000000005f52604160045260245ffd5b6040810190811067ffffffffffffffff82111761043157604052565b90601f7fffffffffffffffffffffffffffffffffffffffffffffffffffffffffffffffe0910116810190811067ffffffffffffffff82111761043157604052565b67ffffffffffffffff81116104315760051b60200190565b6064359073ffffffffffffffffffffffffffffffffffffffff821682036101ab57565b6044359073ffffffffffffffffffffffffffffffffffffffff821682036101ab57565b9080601f830112156101ab576020908235610533816104bb565b93610541604051958661047a565b81855260208086019260051b8201019283116101ab57602001905b82821061056a575050505090565b813573ffffffffffffffffffffffffffffffffffffffff811681036101ab57815290830190830161055c565b60208082019080835283518092528060408094019401925f905b8382106105bf57505050505090565b8451805173ffffffffffffffffffffffffffffffffffffffff908116885281850151811688860152818301518116888401526060918201511690870152608090950194938201936001909101906105b0565b60208082019080835283518092528060408094019401925f905b83821061063a57505050505090565b8451805173ffffffffffffffffffffffffffffffffffffffff16875283015186840152948501949382019360019091019061062b565b9061067a826104bb565b60409061068a604051918261047a565b8381527fffffffffffffffffffffffffffffffffffffffffffffffffffffffffffffffe06106b882956104bb565b01915f5b8381106106c95750505050565b60209082516106d781610415565b5f8152825f818301525f858301525f60608301528286010152016106bc565b805182101561070a5760209160051b010190565b7f4e487b71000000000000000000000000000000000000000000000000000000005f52603260045260245ffd5b919091825190610746826104bb565b937fffffffffffffffffffffffffffffffffffffffffffffffffffffffffffffffe061078360409461077b604051988961047a565b8088526104bb565b015f5b8181106107f7575050845f5b82518110156107ef578073ffffffffffffffffffffffffffffffffffffffff6107bd600193866106f6565b51168651906107cb8261045e565b81528560208201526107dd828a6106f6565b526107e881896106f6565b5001610792565b509450505050565b60209085516108058161045e565b5f8152825f81830152828a0101520161078656fea164736f6c6343000817000a","linkReferences":{"foundry_tests/utils/AddressBuilder.sol":{"AddressBuilder":[{"start":233,"length":20}]}}},"methodIdentifiers":{"fillAllowanceTransferDetail(uint256,address,uint160,address,address[])":"ed9f2787","fillAllowanceTransferDetail(uint256,address[],uint160,address,address[])":"4fc79d06","fillSigTransferDetails(uint256,address[])":"dc0b03bd","fillSigTransferDetails(uint256,uint256,address)":"f167d3df"},"id":58}