{"abi":[{"type":"function","name":"DOMAIN_SEPARATOR","inputs":[],"outputs":[{"name":"","type":"bytes32","internalType":"bytes32"}],"stateMutability":"view"},{"type":"function","name":"invalidateUnorderedNonces","inputs":[{"name":"wordPos","type":"uint256","internalType":"uint256"},{"name":"mask","type":"uint256","internalType":"uint256"}],"outputs":[],"stateMutability":"nonpayable"},{"type":"function","name":"nonceBitmap","inputs":[{"name":"","type":"address","internalType":"address"},{"name":"","type":"uint256","internalType":"uint256"}],"outputs":[{"name":"","type":"uint256","internalType":"uint256"}],"stateMutability":"view"},{"type":"function","name":"permitTransferFrom","inputs":[{"name":"permit","type":"tuple","internalType":"struct ISignatureTransfer.PermitTransferFrom","components":[{"name":"permitted","type":"tuple","internalType":"struct ISignatureTransfer.TokenPermissions","components":[{"name":"token","type":"address","internalType":"address"},{"name":"amount","type":"uint256","internalType":"uint256"}]},{"name":"nonce","type":"uint256","internalType":"uint256"},{"name":"deadline","type":"uint256","internalType":"uint256"}]},{"name":"transferDetails","type":"tuple","internalType":"struct ISignatureTransfer.SignatureTransferDetails","components":[{"name":"to","type":"address","internalType":"address"},{"name":"requestedAmount","type":"uint256","internalType":"uint256"}]},{"name":"owner","type":"address","internalType":"address"},{"name":"signature","type":"bytes","internalType":"bytes"}],"outputs":[],"stateMutability":"nonpayable"},{"type":"function","name":"permitTransferFrom","inputs":[{"name":"permit","type":"tuple","internalType":"struct ISignatureTransfer.PermitBatchTransferFrom","components":[{"name":"permitted","type":"tuple[]","internalType":"struct ISignatureTransfer.TokenPermissions[]","components":[{"name":"token","type":"address","internalType":"address"},{"name":"amount","type":"uint256","internalType":"uint256"}]},{"name":"nonce","type":"uint256","internalType":"uint256"},{"name":"deadline","type":"uint256","internalType":"uint256"}]},{"name":"transferDetails","type":"tuple[]","internalType":"struct ISignatureTransfer.SignatureTransferDetails[]","components":[{"name":"to","type":"address","internalType":"address"},{"name":"requestedAmount","type":"uint256","internalType":"uint256"}]},{"name":"owner","type":"address","internalType":"address"},{"name":"signature","type":"bytes","internalType":"bytes"}],"outputs":[],"stateMutability":"nonpayable"},{"type":"function","name":"permitWitnessTransferFrom","inputs":[{"name":"permit","type":"tuple","internalType":"struct ISignatureTransfer.PermitTransferFrom","components":[{"name":"permitted","type":"tuple","internalType":"struct ISignatureTransfer.TokenPermissions","components":[{"name":"token","type":"address","internalType":"address"},{"name":"amount","type":"uint256","internalType":"uint256"}]},{"name":"nonce","type":"uint256","internalType":"uint256"},{"name":"deadline","type":"uint256","internalType":"uint256"}]},{"name":"transferDetails","type":"tuple","internalType":"struct ISignatureTransfer.SignatureTransferDetails","components":[{"name":"to","type":"address","internalType":"address"},{"name":"requestedAmount","type":"uint256","internalType":"uint256"}]},{"name":"owner","type":"address","internalType":"address"},{"name":"witness","type":"bytes32","internalType":"bytes32"},{"name":"witnessTypeString","type":"string","internalType":"string"},{"name":"signature","type":"bytes","internalType":"bytes"}],"outputs":[],"stateMutability":"nonpayable"},{"type":"function","name":"permitWitnessTransferFrom","inputs":[{"name":"permit","type":"tuple","internalType":"struct ISignatureTransfer.PermitBatchTransferFrom","components":[{"name":"permitted","type":"tuple[]","internalType":"struct ISignatureTransfer.TokenPermissions[]","components":[{"name":"token","type":"address","internalType":"address"},{"name":"amount","type":"uint256","internalType":"uint256"}]},{"name":"nonce","type":"uint256","internalType":"uint256"},{"name":"deadline","type":"uint256","internalType":"uint256"}]},{"name":"transferDetails","type":"tuple[]","internalType":"struct ISignatureTransfer.SignatureTransferDetails[]","components":[{"name":"to","type":"address","internalType":"address"},{"name":"requestedAmount","type":"uint256","internalType":"uint256"}]},{"name":"owner","type":"address","internalType":"address"},{"name":"witness","type":"bytes32","internalType":"bytes32"},{"name":"witnessTypeString","type":"string","internalType":"string"},{"name":"signature","type":"bytes","internalType":"bytes"}],"outputs":[],"stateMutability":"nonpayable"},{"type":"event","name":"UnorderedNonceInvalidation","inputs":[{"name":"owner","type":"address","indexed":true,"internalType":"address"},{"name":"word","type":"uint256","indexed":false,"internalType":"uint256"},{"name":"mask","type":"uint256","indexed":false,"internalType":"uint256"}],"anonymous":false},{"type":"error","name":"InvalidAmount","inputs":[{"name":"maxAmount","type":"uint256","internalType":"uint256"}]},{"type":"error","name":"InvalidContractSignature","inputs":[]},{"type":"error","name":"InvalidNonce","inputs":[]},{"type":"error","name":"InvalidSignature","inputs":[]},{"type":"error","name":"InvalidSignatureLength","inputs":[]},{"type":"error","name":"InvalidSigner","inputs":[]},{"type":"error","name":"LengthMismatch","inputs":[]},{"type":"error","name":"SignatureExpired","inputs":[{"name":"signatureDeadline","type":"uint256","internalType":"uint256"}]}],"bytecode":{"object":"0x60c0346100c05763ffffffff46168060a05260208201907f8cad95687ba82c2ce50e74f7b754645e5117c3a5bec8151c0726d5857980a86682527f9ac997416e8ff9d2ff6bebeb7149f65cdae5e32e2b90440b566bb3044041d36a604084015260608301523060808301526080825260a082019180831060018060401b038411176100ac578260405251902060805261144a90816100c5823960805181610ba7015260a05181610b7f0152f35b634e487b7160e01b5f52604160045260245ffd5b5f80fdfe60406080815260049081361015610014575f80fd5b5f3560e01c8063137c29fe1461065157806330f28b7a146105575780633644e515146105165780633ff9dcb1146104975780634fe02b441461042a578063edd9444b146102c75763fe8ec1a714610069575f80fd5b346102c35760c07ffffffffffffffffffffffffffffffffffffffffffffffffffffffffffffffffc3601126102c35767ffffffffffffffff9180358381116102c3576100b89036908301610a49565b6024358481116102c3576100cf9036908401610b45565b6100d7610949565b916084358781116102c3576100ef9036908701610a03565b97909560a4359182116102c35761010891369101610a03565b96909581519061011782610891565b606b82527f5065726d697442617463685769746e6573735472616e7366657246726f6d285460208301527f6f6b656e5065726d697373696f6e735b5d207065726d69747465642c61646472838301527f657373207370656e6465722c75696e74323536206e6f6e63652c75696e74323560608301527f3620646561646c696e652c00000000000000000000000000000000000000000060808301528251998a91816101c6602085018096610c38565b918237015f815203986101ff7fffffffffffffffffffffffffffffffffffffffffffffffffffffffffffffffe09a8b81018352826108e5565b5190209085515161020f81610d3b565b905f5b81811061029b5750506102999961029091835161024381610237602082018095610dcb565b038481018352826108e5565b519020602089810151858b015195519182019687526040820192909252336060820152608081019190915260a081019390935260643560c08401528260e081015b039081018352826108e5565b51902093610e07565b005b806102b26102ac6001938c51610d8a565b51610f29565b6102bc8286610d8a565b5201610212565b5f80fd5b5090346102c35760807ffffffffffffffffffffffffffffffffffffffffffffffffffffffffffffffffc3601126102c35767ffffffffffffffff81358181116102c3576103179036908401610a49565b6024358281116102c35761032e9036908501610b45565b939092610339610949565b916064359182116102c35761035091369101610a03565b9490938351519661036088610d3b565b975f5b8181106104085750506102999781516103b081610384602082018095610dcb565b037fffffffffffffffffffffffffffffffffffffffffffffffffffffffffffffffe081018352826108e5565b5190206020860151828701519083519260208401947ffcf35f5ac6a2c28868dc44c302166470266239195f02b0ee408334829333b7668652840152336060840152608083015260a082015260a08152610290816108c9565b806104196102ac6001938a51610d8a565b610423828d610d8a565b5201610363565b5090346102c357817ffffffffffffffffffffffffffffffffffffffffffffffffffffffffffffffffc3601126102c357359073ffffffffffffffffffffffffffffffffffffffff82168092036102c3576020915f525f8252805f206024355f528252805f20549051908152f35b5090346102c357817ffffffffffffffffffffffffffffffffffffffffffffffffffffffffffffffffc3601126102c3577f3704902f963766a4e561bbaab6e6cdc1b1dd12f6e9e99648da8843b3f46b918d903591602435335f525f602052815f20845f52602052815f20818154179055815193845260208401523392a2005b50346102c3575f7ffffffffffffffffffffffffffffffffffffffffffffffffffffffffffffffffc3601126102c357602090610550610b76565b9051908152f35b50346102c3576101007ffffffffffffffffffffffffffffffffffffffffffffffffffffffffffffffffc3601126102c3576105913661096c565b90807fffffffffffffffffffffffffffffffffffffffffffffffffffffffffffffff7c3601126102c3576105c3610926565b9160e43567ffffffffffffffff81116102c357610299946105e691369101610a03565b9390926105f38351610f29565b6020840151828501519083519260208401947f939c21a48a8dbe3a9a2404a1d46691e4d39f6583d6ec6b35714604c986d801068652840152336060840152608083015260a082015260a08152610648816108c9565b51902091610c61565b5090346102c3576101407ffffffffffffffffffffffffffffffffffffffffffffffffffffffffffffffffc3601126102c35761068c3661096c565b91807fffffffffffffffffffffffffffffffffffffffffffffffffffffffffffffff7c3601126102c3576106be610926565b67ffffffffffffffff9390610104358581116102c3576106e19036908601610a03565b9093610124359687116102c3576107016106489661029998369101610a03565b96909582519061071082610891565b606482527f5065726d69745769746e6573735472616e7366657246726f6d28546f6b656e5060208301527f65726d697373696f6e73207065726d69747465642c6164647265737320737065848301527f6e6465722c75696e74323536206e6f6e63652c75696e7432353620646561646c60608301527f696e652c0000000000000000000000000000000000000000000000000000000060808301528351948591816107bf602085018096610c38565b918237015f815203936107f87fffffffffffffffffffffffffffffffffffffffffffffffffffffffffffffffe0958681018352826108e5565b519020926108068651610f29565b6020878101518589015195519182019687526040820192909252336060820152608081019190915260a081019390935260e43560c08401528260e08101610284565b6060810190811067ffffffffffffffff82111761086457604052565b7f4e487b71000000000000000000000000000000000000000000000000000000005f52604160045260245ffd5b60a0810190811067ffffffffffffffff82111761086457604052565b6080810190811067ffffffffffffffff82111761086457604052565b60c0810190811067ffffffffffffffff82111761086457604052565b90601f7fffffffffffffffffffffffffffffffffffffffffffffffffffffffffffffffe0910116810190811067ffffffffffffffff82111761086457604052565b60c4359073ffffffffffffffffffffffffffffffffffffffff821682036102c357565b6044359073ffffffffffffffffffffffffffffffffffffffff821682036102c357565b7ffffffffffffffffffffffffffffffffffffffffffffffffffffffffffffffffc0190608082126102c35760408051906109a582610848565b808294126102c357805181810181811067ffffffffffffffff82111761086457825260043573ffffffffffffffffffffffffffffffffffffffff811681036102c3578152602435602082015282526044356020830152606435910152565b9181601f840112156102c35782359167ffffffffffffffff83116102c357602083818601950101116102c357565b67ffffffffffffffff81116108645760051b60200190565b9190916060818403126102c3576040805191610a6483610848565b829481359067ffffffffffffffff918281116102c357830181601f820112156102c3578035602093610a9582610a31565b93610aa2885195866108e5565b828552858086019360061b850101938185116102c3579086899897969594939201925b848410610ae2575050505050855280820135908501520135910152565b9091929394959697848303126102c35788519089820182811085821117610864578a5284359073ffffffffffffffffffffffffffffffffffffffff821682036102c3578289928c9452828701358382015281520193019190889796959493610ac5565b9181601f840112156102c35782359167ffffffffffffffff83116102c3576020808501948460061b0101116102c357565b4663ffffffff167f00000000000000000000000000000000000000000000000000000000000000008103610bc957507f000000000000000000000000000000000000000000000000000000000000000090565b60405160208101917f8cad95687ba82c2ce50e74f7b754645e5117c3a5bec8151c0726d5857980a86683527f9ac997416e8ff9d2ff6bebeb7149f65cdae5e32e2b90440b566bb3044041d36a6040830152606082015230608082015260808152610c3281610891565b51902090565b908151915f5b838110610c4e575050015f815290565b8060208092840101518185015201610c3e565b9192909360a435936040840151804211610d0a5750602084510151808611610cd95750918591610ca1610ca794610c9c602088015186610f89565b610ff8565b9161105a565b73ffffffffffffffffffffffffffffffffffffffff80915151169260843591821682036102c357610cd79361135b565b565b602490604051907f3728b83d0000000000000000000000000000000000000000000000000000000082526004820152fd5b602490604051907fcd21db4f0000000000000000000000000000000000000000000000000000000082526004820152fd5b90610d4582610a31565b610d5260405191826108e5565b8281527fffffffffffffffffffffffffffffffffffffffffffffffffffffffffffffffe0610d808294610a31565b0190602036910137565b8051821015610d9e5760209160051b010190565b7f4e487b71000000000000000000000000000000000000000000000000000000005f52603260045260245ffd5b80516020809201915f5b828110610de3575050505090565b835185529381019392810192600101610dd5565b9190811015610d9e5760061b0190565b959190939295805151956040936040830151804211610d0a5750838803610eff57610e42918991610ca1602098610c9c602088015186610f89565b5f5b868110610e55575050505050505050565b610e60818351610d8a565b519085610e6e82868a610df7565b013586830151808211610ecf575080610e8d575b506001915001610e44565b73ffffffffffffffffffffffffffffffffffffffff8093511690610eb283878b610df7565b3593841684036102c3576001938b610ec99361135b565b5f610e82565b6024908751907f3728b83d0000000000000000000000000000000000000000000000000000000082526004820152fd5b60046040517fff633a38000000000000000000000000000000000000000000000000000000008152fd5b602073ffffffffffffffffffffffffffffffffffffffff8251169101516040519060208201927f618358ac3db8dc274f0cd8829da7e234bd48cd73c4a740aede1adec9846d06a184526040830152606082015260608152610c32816108ad565b9073ffffffffffffffffffffffffffffffffffffffff600160ff83161b92165f525f60205260405f209060081c5f5260205260405f20818154188091551615610fce57565b60046040517f756688fe000000000000000000000000000000000000000000000000000000008152fd5b611000610b76565b906040519060208201927f190100000000000000000000000000000000000000000000000000000000000084526022830152604282015260428152610c32816108ad565b91908260409103126102c3576020823592013590565b833b6111e757604182036111395761107482820182611044565b93909260401015610d9e576020935f9360ff6040608095013560f81c5b60405194855216868401526040830152606082015282805260015afa1561112e5773ffffffffffffffffffffffffffffffffffffffff805f51169182156111045716036110da57565b60046040517f815e1d64000000000000000000000000000000000000000000000000000000008152fd5b60046040517f8baa579f000000000000000000000000000000000000000000000000000000008152fd5b6040513d5f823e3d90fd5b604082036111bd5761114d91810190611044565b91601b7f7fffffffffffffffffffffffffffffffffffffffffffffffffffffffffffffff84169360ff1c019060ff8211611190576020935f9360ff608094611091565b7f4e487b71000000000000000000000000000000000000000000000000000000005f52601160045260245ffd5b60046040517f4be6321b000000000000000000000000000000000000000000000000000000008152fd5b90601f92938173ffffffffffffffffffffffffffffffffffffffff60646020957fffffffffffffffffffffffffffffffffffffffffffffffffffffffffffffffe0604051988997889687947f1626ba7e000000000000000000000000000000000000000000000000000000009d8e8752600487015260406024870152816044870152868601375f85828601015201168101030192165afa801561112e575f906112e0575b7fffffffff00000000000000000000000000000000000000000000000000000000915016036112b657565b60046040517fb0669cbc000000000000000000000000000000000000000000000000000000008152fd5b506020813d602011611353575b816112fa602093836108e5565b810103126102c357517fffffffff00000000000000000000000000000000000000000000000000000000811681036102c3577fffffffff000000000000000000000000000000000000000000000000000000009061128b565b3d91506112ed565b926020926064915f93604051927f23b872dd00000000000000000000000000000000000000000000000000000000845273ffffffffffffffffffffffffffffffffffffffff8092166004850152166024830152604482015282855af19081601f3d1160015f5114161516611430575b50156113d257565b60646040517f08c379a000000000000000000000000000000000000000000000000000000000815260206004820152601460248201527f5452414e534645525f46524f4d5f4641494c45440000000000000000000000006044820152fd5b3b153d171590505f6113ca56fea164736f6c6343000817000a","linkReferences":{}},"methodIdentifiers":{"DOMAIN_SEPARATOR()":"3644e515","invalidateUnorderedNonces(uint256,uint256)":"3ff9dcb1","nonceBitmap(address,uint256)":"4fe02b44","permitTransferFrom(((address,uint256),uint256,uint256),(address,uint256),address,bytes)":"30f28b7a","permitTransferFrom(((address,uint256)[],uint256,uint256),(address,uint256)[],address,bytes)":"edd9444b","permitWitnessTransferFrom(((address,uint256),uint256,uint256),(address,uint256),address,bytes32,string,bytes)":"137c29fe","permitWitnessTransferFrom(((address,uint256)[],uint256,uint256),(address,uint256)[],address,bytes32,string,bytes)":"fe8ec1a7"},"id":4}