{"abi":[{"type":"function","name":"fill","inputs":[{"name":"length","type":"uint256","internalType":"uint256"},{"name":"amount","type":"uint256","internalType":"uint256"}],"outputs":[{"name":"amounts","type":"uint256[]","internalType":"uint256[]"}],"stateMutability":"pure"},{"type":"function","name":"fillUInt160","inputs":[{"name":"length","type":"uint256","internalType":"uint256"},{"name":"amount","type":"uint160","internalType":"uint160"}],"outputs":[{"name":"amounts","type":"uint160[]","internalType":"uint160[]"}],"stateMutability":"pure"},{"type":"function","name":"fillUInt64","inputs":[{"name":"length","type":"uint256","internalType":"uint256"},{"name":"exp","type":"uint64","internalType":"uint64"}],"outputs":[{"name":"exps","type":"uint64[]","internalType":"uint64[]"}],"stateMutability":"pure"},{"type":"function","name":"fillUInt8","inputs":[{"name":"length","type":"uint256","internalType":"uint256"},{"name":"tokenType","type":"uint8","internalType":"uint8"}],"outputs":[{"name":"tokenTypes","type":"uint8[]","internalType":"uint8[]"}],"stateMutability":"pure"},{"type":"function","name":"push","inputs":[{"name":"a","type":"uint256[]","internalType":"uint256[]"},{"name":"b","type":"uint256","internalType":"uint256"}],"outputs":[{"name":"amounts","type":"uint256[]","internalType":"uint256[]"}],"stateMutability":"pure"},{"type":"function","name":"pushUInt8","inputs":[{"name":"a","type":"uint8[]","internalType":"uint8[]"},{"name":"b","type":"uint8","internalType":"uint8"}],"outputs":[{"name":"tokenTypes","type":"uint8[]","internalType":"uint8[]"}],"stateMutability":"pure"}],"bytecode":{"object":"0x6080806040523461001a57610696908161001f823930815050f35b5f80fdfe604060808152600480361015610013575f80fd5b5f3560e01c80631126dbb3146103ca5780633c29fc4314610365578063548a0cf8146102f857806393cdfe911461024b57806395abc929146101575763e6c8bd7b1461005d575f80fd5b817ffffffffffffffffffffffffffffffffffffffffffffffffffffffffffffffffc3601126101535735906024359173ffffffffffffffffffffffffffffffffffffffff92838116809103610153576100bd6100b8836105db565b61056a565b908282526100ca836105db565b926020917fffffffffffffffffffffffffffffffffffffffffffffffffffffffffffffffe06020850195013686375f5b82811061013e575050509083519360208501916020865251809252840192915f5b8281106101285785850386f35b835187168552938101939281019260010161011b565b808261014c600193886105f3565b52016100fa565b5f80fd5b5090807ffffffffffffffffffffffffffffffffffffffffffffffffffffffffffffffffc36011261015357813567ffffffffffffffff8111610153576101a09036908401610539565b6101ab9291926104eb565b93600190600183019081841161021f57506101c590610634565b935f5b8381106101f4575050509260ff6101e26101f095856105f3565b9116905251918291826104fb565b0390f35b6101ff818584610679565b359060ff821680920361015357839161021882896105f3565b52016101c8565b6011907f4e487b71000000000000000000000000000000000000000000000000000000005f525260245ffd5b5090807ffffffffffffffffffffffffffffffffffffffffffffffffffffffffffffffffc36011261015357813567ffffffffffffffff8111610153576102949036908401610539565b600192919293600182019081831161021f57506102b090610634565b925f5b8281106102d95750506101f093506102ce60243591846105f3565b5251918291826104b0565b806102e687928585610679565b356102f182886105f3565b52016102b3565b50817ffffffffffffffffffffffffffffffffffffffffffffffffffffffffffffffffc36011261015357359061032c6104eb565b9061033683610634565b9160ff165f5b848110610350578251806101f086826104fb565b808261035e600193876105f3565b520161033c565b50817ffffffffffffffffffffffffffffffffffffffffffffffffffffffffffffffffc3601126101535735906024359061039e83610634565b915f5b8481106103b5578251806101f086826104b0565b80826103c3600193876105f3565b52016103a1565b50817ffffffffffffffffffffffffffffffffffffffffffffffffffffffffffffffffc3601126101535735906024359167ffffffffffffffff928381168091036101535761041a6100b8836105db565b90828252610427836105db565b926020917fffffffffffffffffffffffffffffffffffffffffffffffffffffffffffffffe06020850195013686375f5b82811061049b575050509083519360208501916020865251809252840192915f5b8281106104855785850386f35b8351871685529381019392810192600101610478565b80826104a9600193886105f3565b5201610457565b60209060206040818301928281528551809452019301915f5b8281106104d7575050505090565b8351855293810193928101926001016104c9565b6024359060ff8216820361015357565b60209060206040818301928281528551809452019301915f5b828110610522575050505090565b835160ff1685529381019392810192600101610514565b9181601f840112156101535782359167ffffffffffffffff8311610153576020808501948460051b01011161015357565b907fffffffffffffffffffffffffffffffffffffffffffffffffffffffffffffffe0601f604051930116820182811067ffffffffffffffff8211176105ae57604052565b7f4e487b71000000000000000000000000000000000000000000000000000000005f52604160045260245ffd5b67ffffffffffffffff81116105ae5760051b60200190565b80518210156106075760209160051b010190565b7f4e487b71000000000000000000000000000000000000000000000000000000005f52603260045260245ffd5b906106416100b8836105db565b8281527fffffffffffffffffffffffffffffffffffffffffffffffffffffffffffffffe061066f82946105db565b0190602036910137565b91908110156106075760051b019056fea164736f6c6343000817000a","linkReferences":{}},"methodIdentifiers":{"fill(uint256,uint256)":"3c29fc43","fillUInt160(uint256,uint160)":"e6c8bd7b","fillUInt64(uint256,uint64)":"1126dbb3","fillUInt8(uint256,uint8)":"548a0cf8","push(uint256[],uint256)":"93cdfe91","pushUInt8(uint8[],uint8)":"95abc929"},"id":54}